:03001B00021100CF
:10110000C0E0C0F0C083C082C0D075D000C000C0B5
:1011100001C002C003C004C005C006C0071212B956
:10112000120AE7120CD6900009E004F0E0C3940A1A
:10113000400812084C900009E4F01206579000088D
:10114000E004F0E0C3947D4004E4F0B2C4D007D0E2
:1011500006D005D004D003D002D001D000D0D0D02A
:0811600082D083D0F0D0E03210
:03000B00021418C4
:0114180032A1
:10122B00C2AF539738121372121274120E487FE822
:10123B007E03121308C2C47FB87E0B121308D2AF01
:05124B00120DA080FB64
:10139500447A000041C80000434800003DA3D70A35
:1013720012125012134C12108B12135F1213A50289
:02138200140550
:100E4800E490004BF0A3F090001AF0A3F090003665
:100E5800F0A3F0900046F0A3F0900049F0A3F090C2
:100E680000281205580000000090001612055800CE
:100E780000000090001C120558000000009000209F
:100E880012055800000000900004120558000000E8
:100E9800009000121205580000000090002E120564
:100EA800580000000090002412055800000000902F
:100EB80000001205580000000090000A12055800B2
:100EC80000000090000E120558000000009000423B
:100ED80012055800000000E4900008F0900032F07D
:030EE800A3F02252
:0511AC0090007EEFF051
:1011B1001211DA7808A60790007EE004FF1211DA16
:1011C1007809EFF6FD18E6FF3395E0EFFEED339574
:0811D100E0FCE42DFFEE3CFE02
:0111D90022F3
:1012B9007F431211AC90004BEEF0A3EFF07F3D128B
:0B12C90011AC90001AEEF0A3EFF02231
:100F7700E4900093F0A3F090008FE0F8A3E0F9A3CA
:100F8700E0FAA3E0FBC000C001C002C0037F431228
:100F970011ACEE3395E0FDFCD003D002D001D000B8
:100FA700EB2FFFEA3EFEE93DFDE83CFC90008F1287
:100FB700054C900094E004F07006900093E004F074
:100FC700C3900094E094C8900093E06480948040BC
:100FD700A6E47BC8FAF9F890008FE0FCA3E0FDA334
:100FE700E0FEA3E0FF12116890002CEEF0A3EFF0F3
:0A0FF70090008F1205580000000062
:0110010022CC
:100BF700120378900086EEF0A3EFF0900082E0FCFD
:100C0700A3E0FDA3E0FEA3E0FF120378AB07AA066B
:100C1700C3900086E064809480503BE0FEA3E0FF31
:100C27007CFF7DFF12051C900086EEF0A3EFF0C35A
:100C370074209FF0744E9E900086F090FF10744EC3
:100C4700F0A37420F0900086E0FFA3E090FF00CFB0
:100C5700F0A3EFF0802A900086E0FEA3E0FFC374C4
:100C6700209FFF744E9EFE900086F0A3EFF090FF4A
:100C770010EEF0A3EFF090FF00744EF0A37420F095
:100C8700C3EA64809480502B7CFF7DFFAF03AE02E4
:100C970012051CAA06AB07C374209BFB744E9AFA75
:100CA70090FF20744EF0A37420F090FF30EAF0A379
:100CB700EBF022C374209BFB744E9AAF0390FF2086
:0E0CC700F0A3EFF090FF30744EF0A37420F015
:010CD50022FC
:1006570090002EE0F8A3E0F9A3E0FAA3E0FB9000F6
:1006670024E0FCA3E0FDA3E0FEA3E0FF120021903D
:10067700000EE0F8A3E0F9A3E0FAA3E0FB120025DF
:1006870090000A12054C90002EE0F8A3E0F9A3E0D1
:10069700FAA3E0FB900024E0FCA3E0FDA3E0FEA3A7
:1006A700E0FF12002190000EE0F8A3E0F9A3E0FAC2
:1006B700A3E0FB12002190000012054CE4FFFEFDB1
:1006C700FC90000AE0F8A3E0F9A3E0FAA3E0FB122C
:1006D70002BC601A401890000AE0FCA3E0FDA3E00A
:1006E700FEA3E0FFE4FBFAF9F8120025802EE4FFF1
:1006F700FEFDFC90000AE0F8A3E0F9A3E0FAA3E00E
:10070700FB1202BC501C90000AE0FCA3E0FDA3E032
:10071700FEA3E0FFE4FBFAF9F812002190000A12A9
:10072700054CE4FFFEFDFC900000E0F8A3E0F9A310
:10073700E0FAA3E0FB1202BC601A4018900000E048
:10074700FCA3E0FDA3E0FEA3E0FFE4FBFAF9F81247
:100757000025802EE4FFFEFDFC900000E0F8A3E0FA
:10076700F9A3E0FAA3E0FB1202BC501C900000E0E2
:10077700FCA3E0FDA3E0FEA3E0FFE4FBFAF9F81217
:10078700002190000012054C7F007E407D9C7C4636
:1007970090000AE0F8A3E0F9A3E0FAA3E0FB120255
:1007A700BC600C400A90000A120558469C40007F26
:1007B700007E407D9C7CC690000AE0F8A3E0F9A388
:1007C700E0FAA3E0FB1202BC500A90000A12055897
:1007D700C69C40007F007E407D9C7C46900000E0E8
:1007E700F8A3E0F9A3E0FAA3E0FB1202BC600C4017
:1007F7000A900000120558469C40007F007E407D0D
:100807009C7CC6900000E0F8A3E0F9A3E0FAA3E01F
:10081700FB1202BC500A900000120558C69C40000B
:10082700900000E0FCA3E0FDA3E0FEA3E0FF900042
:100837008212054C90000AE0FCA3E0FDA3E0FEA3B2
:05084700E0FF020BF7C9
:100CD600AFD2EFFEADD37C00E42DFFEC3E900036A4
:100CE600F0A3EFF0AFD4EFFEADD5E42DFFEC3E90D0
:100CF6000046F0A3EFF053D177E4F5D3F5D2F5D55E
:100D0600F5D443D1CC90000AE0FCA3E0FDA3E0FEBD
:100D1600A3E0FF120378D3EF9400EE648094804042
:100D260003D38001C34014900046E0FEA3E0FFE435
:100D36009FFFE49E900046F0A3EFF0900000E0FCD9
:100D4600A3E0FDA3E0FEA3E0FF120378D3EF940037
:100D5600EE648094804003D38001C3401490003633
:100D6600E0FEA3E0FFE49FFFE49E900036F0A3EFD1
:100D7600F0900046E0FEA3E0FF900039E02FF090EF
:100D86000038E03EF0900036E0FEA3E0FF9000352C
:0A0D9600E02FF0900034E03EF02260
:10084C00900034E0FEA3E0FF900039E02FFD900013
:10085C0038E03EFC12033FE4FBFAF9783F12011634
:10086C0090002812054CE4900034F0A3F09000386E
:10087C00F0A3F07FCD7ECC7D4C7C3F900028E0F83F
:10088C00A3E0F9A3E0FAA3E0FB120116C004C00533
:10089C00C006C0077FCD7ECC7D4C7C3E90003AE0FC
:1008AC00F8A3E0F9A3E0FAA3E0FB120116D003D001
:1008BC0002D001D00012002590002812054C9000A7
:1008CC0028E0FCA3E0FDA3E0FEA3E0FF90003A12B9
:1008DC00054C900016E0FCA3E0FDA3E0FEA3E0FFB6
:1008EC00900028E0F8A3E0F9A3E0FAA3E0FB1200E3
:1008FC002590001612054C900016E0FCA3E0FDA319
:10090C00E0FEA3E0FF120378D3EF9420EE64809412
:10091C00CE400A900016120558469C4000900016D6
:10092C00E0FCA3E0FDA3E0FEA3E0FF120378C3EF1D
:10093C0094E0EE64809431500A900016120558C66B
:10094C009C4000900049E0FCA3E0FDEC12033F90BA
:10095C000028E0F8A3E0F9A3E0FAA3E0FB120021E1
:10096C0090139D12053C120116C004C005C006C0B0
:10097C0007900016E0FCA3E0FDA3E0FEA3E0FF124D
:10098C0003299013A112053C120116D003D002D0FA
:0C099C0001D00012002590002E02054C36
:100AE70090001BE024D0FD90001AE03407FC1203AD
:100AF7003FE4FBFA7980784612021F900004120542
:100B07004C900004E0FCA3E0FDA3E0FEA3E0FF7B24
:100B1700E17A2E7965784212011690000412054C8D
:100B270090004BE0FCA3E0FDEC12033FE4FBFA79F5
:100B3700C0784112021F90002012054C7F6F7E1271
:100B47007D037C3C900020E0F8A3E0F9A3E0FAA342
:100B5700E0FB12011690001CE0F8A3E0F9A3E0FA0D
:100B6700A3E0FB1200257BA47A70797D783F120100
:100B770016C004C005C006C0077F0A7ED77D237C48
:100B87003C900004E0F8A3E0F9A3E0FAA3E0FB122D
:100B97000116D003D002D001D00012002590001C0E
:100BA70012054C900020E0FCA3E0FDA3E0FEA3E0CB
:100BB700FF12032990139912053C120116C004C0B5
:100BC70005C006C00790001CE0FCA3E0FDA3E0FE03
:100BD700A3E0FF12032990139512053C120116D0CA
:100BE70003D002D001D00012002590002402054C4A
:100DA000B2C41213DEEF14B408004003020E2C90FC
:100DB0000DBD75F003A4C58325F0C58373020DDF57
:100DC000020DD5020DEA020DF5020E00020E0B0215
:100DD0000E16020E21900049E4F0A37428F0229030
:100DE000004974FFF0A374D8F02290000E12055849
:100DF000459C40002290000E120558C59C400022E0
:100E00009000421205584302000022900042120551
:100E100058C30200002290000E120558466A600076
:100E20002290000E120558C66A60002290004212FD
:100E300005580000000090000E1205580000000048
:070E4000E4900049F0A3F06B
:010E47002288
:0813F4007F147E71DEFEDFFCB8
:0113FC0022CE
:04130800AD07AC067B
:10130C00E4FBFAC3EB9DEA9C500A1213F40BBB00EE
:04131C00010A80EF53
:0113200022AA
:10125000E4F594F593F592F591F596F595F5B2F5DB
:10126000B1F5B4F5B3F5CAF5C975960EF59575B235
:0412700080F5B12232
:10108B0043BA80E4F5F190FFF2F0F5F6F5F790FF37
:10109B00F0744EF0A37421F090FF00744EF0A37423
:1010AB0020F0A3744EF0A37421F090FF10744EF057
:1010BB00A37420F0A3744EF0A37421F090FF20745E
:1010CB004EF0A37420F0A3744EF0A37421F090FFA4
:1010DB0030744EF0A37420F0A3744EF0A37421F07F
:1010EB0090FF04E4F090FF14F090FF24F090FF3495
:0510FB00F075F58F22E5
:1012D40075D90443A220E4F5F2F5F3F5E9F5F9F53F
:0A12E400EAF5FAF5EBF5FBD2DE2285
:10138400538E7FE4F589758A95758CFFC28DD28C56
:011394002236
:10134C00538EBF53890F758BEB758DCBC28FD28E9D
:03135C00D2AB22EF
:0714050043D1CC53AF1F22BD
:10135F00759850438E0475D7D575D6FF438E0143CC
:03136F008E1022BB
:1013A500759A50438E0475D7D575D6FF438E102296
:070003003098FDC298AF998F
:01000A0022D3
:0A13DE00E59A30E0FB539AFEAF9B46
:0113E80022E2
:0813FD008F993099FDC299227D
:0B13E9008F9BE59A30E1FB539AFD2238
:06140C0000007F16DFFE68
:0114120022B7
:0F13B500D2C5D2C612140CC2C512140CC2C62265
:0C13D200C2C5D2C612140CD2C502140C05
:0E13C400A20092C5D2C612140CC2C602140CAE
:0D000E00D2C612140CA2C5C2C612140C22D8
:02129700AE07A0
:10129900E4780CF6EE25E0FE92C5D2C612140CC213
:1012A900C612140C780C06E6C3940840E702000E37
:10120300E4FED2C5FDFCEE25E0FED2C612140CA20C
:10121300C5E4334EFEC2C612140C0DBD00010CED25
:0712230064084C70E1AF0606
:01122A0022A1
:10132100AC071213B57FD0121297AF04121297AF08
:07133100051212970213D20E
:0211DA00AD075F
:1011DC001213B57FD0121297AF051212971213B5D6
:1011EC007FD1121297121203780AA607D20012139B
:0611FC00C41213D2E6FF4D
:0112020022C9
:05141300C2C4C2C422A6
:10127400E4FD7F6B1213217D077F191213217D0476
:101284007F1A1213217D187F1B1213217D017F1CED
:0312940002132121
:1012EE0000000000000000000000000000000000F0
:0A12FE0000000000000000000000E6
:1013380050006E00000000000000000000000000E7
:03134800000000A2
:0E100200900088EBF0A3EAF0A3E9F0A3EDF074
:1010100074FFA3F0A3F0E4A3F090008BE0FF900036
:101020008EE0FEC39F505B900088E0FBA3E0FAA334
:10103000E0F98E827583001204EFFF90008CE0F0DF
:10104000A3E06FF0E4FD90008CE0FEA3E0FF30E051
:1010500019EEC313FEEF13FFEE64A0FEEF6401FF71
:1010600090008CEEF0A3EFF0800B90008CE0C313A7
:10107000F0A3E013F00DEDB408CC90008EE004F086
:0A108000809790008CE0FEA3E0FFD3
:01108A002243
:1009A80078517C007D017BFF7A1279EE7E007F080A
:1009B8001204C978597C007D017BFF7A1279F67E92
:1009C800007F081204C978617C007D017BFF7A12E0
:1009D80079FE7E007F0A1204C9E490006CF0A3F04F
:1009E80090006BF090006BE0FFC39404505BEF2520
:1009F800E025E0246EF582E43400F583E0FCA3E012
:100A0800FDA3E0FEA3E0FF12037890006BE0FD2554
:100A1800E02451F582E43400F583EEF0A3EFF0ED25
:100A280025E02451F582E43400F583E0FEA3E0FFDD
:100A3800ED25E02459F582E43400F583EEF0A3EFC8
:100A4800F090006BE004F0809BE490006BF0900065
:100A58006BE0FF25E02459F582E43400F583A3E038
:100A6800FEEF25E02461F582E43400F583EEF09092
:100A7800006BE0FD25E02459F582E43400F583E0BD
:100A8800FFED25E02462F582E43400F583EFF09071
:100A9800006BE004F0E0B404B57B017A0079617D75
:100AA8000812100290006CEEF0A3EFF090006CE0DA
:100AB800FEA3E0900069F0EEA3F0E4A3F090006BD1
:100AC800E0FFC3940A501774612FF582E43400F5EF
:0E0AD80083E0FF1213FD90006BE004F080DF5E
:010AE60022ED
:03000000020EEB02
:0C0EEB00787FE4F6D8FD758120020F32FC
:10001E000203E4E86480F8E933E83360110460F029
:10002E00ED33EC337009E8FCE9FDEAFEEBFF220448
:10003E0060DED3EB9FEA9EE99DE8C2E78CF0C2F743
:10004E0095F0400CE8CCF8E9CDF9EACEFAEBCFFB0F
:10005E001203AF85D0F05804700320D5B3E80470B6
:10006E00075002B2D50203EE92D5EC0460F7E4CC51
:10007E00C0E0C398F8603B94186008400DD0E0FBD8
:10008E000203C6E4FBFAC9FC8028E830E406E4C9A2
:10009E00FBE4CAFCE830E305E4C9CACBFCE854072C
:1000AE006010F8C3E913F9EA13FAEB13FBEC13FC37
:1000BE00D8F130F52FC3E49CFCEF9BFFEE9AFEEDDA
:1000CE0099FDD0E0FBEF4E4D4C701222DB03020384
:1000DE00EBEC2CFCEF33FFEE33FEED33FDED30E7B2
:1000EE00EB0203C6EF2BFFEE3AFEED39FDD0E0FB3F
:1000FE0050130BBB00030203EEED13FDEE13FEEFE8
:08010E0013FFEC13FC0203C611
:10011600EC4D6011E8497017ED33EC3304600DE4E3
:10012600FCFFFEFD22E933E8330470F80203E41213
:1001360003AF58046009E4CC248150062850090214
:1001460003EE2840030203EBC0E0EB4A7044B9809B
:1001560006D0E0FB0203DAEF4E701CBD8008EBFF11
:10016600EAFEE9FD80EBE98DF0A4FEE5F00201FF71
:10017600E9CDF9EAFEEBFFEF89F0A4FCE5F0CE89C4
:10018600F0A42EFFE435F0CD89F0A42DFEE435F081
:100196008067EF4E7005BD80D780C3EF8BF0A4ACAF
:1001A600F0EE8BF0A42CFCE435F0F8EF8AF0A42CEA
:1001B600E5F038FCE433CB8DF0A42CFCE5F03BF8FD
:1001C600EE8AF0A42CFCE5F038F8E433CF89F0A4ED
:1001D6002CFCE5F038CF3400CE89F0A42FFFE5F0F3
:1001E6003EFEE433C98DF0A42EFEE5F039CD8AF04B
:1001F600A42FFFE5F03EFEE43DFD33D0E0FB5007C3
:100206000BBB000F0203EEEC2CFCEF33FFEE33FECC
:06021600ED33FD0203C6FA
:10021C000203EEEC5D046005E8590470030203E48C
:10022C001203AF580460F6EC4860F2EC7004FDFE6B
:10023C00FF22C860DB2481C85009C39860025006B5
:10024C000203EB9850CAF582E9294B4A7005AB8240
:10025C000203DA75F0007C1A7880C3EF9BEE9AEDFE
:10026C0099400DC3EF9BFFEE9AFEED99FDE842F02D
:10027C00DC23ACF0D0E0FFD0E0FED0E0FDAB822080
:10028C00E7101BEB60BAEC2CFCEF33FFEE33FEED0A
:10029C0033FD0203C6E803F830E705C0F075F00043
:1002AC00EF2FFFEE33FEED33FD40B830E7C280AAEE
:1002BC0074F8CC6480CCC86480C8F582046043C3F5
:1002CC00EB9FF5F0EA9E42F0E99D42F0E89C45F088
:1002DC0060305018E5825FFFE582F42B5582FB50AD
:1002EC00210ABA001D09B90019088016E5825BFBCA
:1002FC00E582F42F5582FF50090EBE00050DBD009E
:10030C00010CC3EB9FF5F0EA9E42F0E99D42F0E848
:0D031C009C45F06007CC4820E701B3EC22BF
:10032900ED33EC33600A047003BD8004ECB2E7FCE2
:0103390022A1
:10033A0075F020800E75F010800575F0087D007E3E
:10034A00007F003392D530D50312052EEC334010CE
:10035A00EF33FFEE33FEED33FDEC33FCD5F0ED2247
:0E036A00E5F0247EA2D513CC92E7CDCEFF2283
:10037800EDD2E7CD33EC3392D524814006E4FFFE7D
:10038800FDFC22FCE4CFCECDCC24E0501174FF80DC
:10039800EDC3CC13CCCD13CDCE13CECF13CF047079
:0703A800F030D5DE02052E46
:1003AF00E9D2E7C933E833F892D5EDD2E7CD33EC94
:0703BF0033FC5002B2D5220D
:1003C600EC30E7100FBF000C0EBE00080DBD000498
:1003D6000BEB6014A2D5EB13FCED92E7FD2274FF44
:1003E600FCFDFEFF22E480F8A2D574FF13FC7D809D
:0303F600E480EFB1
:100EF70002122BE493A3F8E493A34003F68001F2D4
:100F070008DFF48029E493A3F85407240CC8C333FB
:100F1700C4540F4420C8834004F456800146F6DFCA
:100F2700E4800B0102040810204080901338E47E0F
:100F3700019360BCA3FF543F30E509541FFEE493BF
:100F4700A360010ECF54C025E060A840B8E493A386
:100F5700FAE493A3F8E493A3C8C582C8CAC583CAB1
:100F6700F0A3C8C582C8CAC583CADFE9DEE780BE69
:01134B0000A1
:1003F900E709F608DFFA8046E709F208DFFA803EE6
:1004090088828C83E709F0A3DFFA8032E309F608D2
:10041900DFFA8078E309F208DFFA807088828C833A
:10042900E309F0A3DFFA806489828A83E0A3F608EE
:10043900DFFA805889828A83E0A3F208DFFA804CC8
:1004490080D280FA80C680D4806980F2803380109F
:1004590080A680EA809A80A880DA80E280CA803308
:1004690089828A83ECFAE493A3C8C582C8CCC58380
:10047900CCF0A3C8C582C8CCC583CCDFE9DEE78050
:100489000D89828A83E493A3F608DFF9ECFAA9F0CF
:10049900EDFB2289828A83ECFAE0A3C8C582C8CC25
:1004A900C583CCF0A3C8C582C8CCC583CCDFEADE3E
:1004B900E880DB89828A83E493A3F208DFF980CCA0
:1004C90088F0EF60010E4E60C388F0ED2402B40499
:1004D9000050B9F582EB2402B4040050AF23234540
:0604E90082239004497318
:1004EF00BB010CE58229F582E5833AF583E02250C2
:1004FF0006E92582F8E622BBFE06E92582F8E2220C
:0D050F00E58229F582E5833AF583E4932225
:10051C00EF8DF0A4A8F0CF8CF0A428CE8DF0A42EF3
:02052C00FE22AD
:10116800C2D5E830E70FB2D5E4C39BFBE49AFAE4B2
:1011780099F9E498F8EC30E717B2D512119E1205E8
:10118800C5E4C39BFBE49AFAE499F9E498F8800370
:101198001205C530D50DE4C39FFFE49EFEE49DFD16
:0411A800E49CFC22A5
:0E052E00C3E49FFFE49EFEE49DFDE49CFC22DE
:10053C00E493F8740193F9740293FA740393FB2215
:0C054C00ECF0A3EDF0A3EEF0A3EFF02222
:10055800A8828583F0D083D08212056F12056F12AE
:10056800056F12056FE473E493A3C583C5F0C583D3
:10057800C8C582C8F0A3C583C5F0C583C8C582C8ED
:010588002250
:1005890075F008758200EF2FFFEE33FECD33CDCC29
:1005990033CCC58233C5829BED9AEC99E5829840AC
:1005A9000CF582EE9BFEED9AFDEC99FC0FD5F0D689
:1005B900E4CEFBE4CDFAE4CCF9A88222B800C1B9B3
:1005C9000059BA002DEC8BF084CFCECDFCE5F0CBF1
:1005D900F97818EF2FFFEE33FEED33FDEC33FCEB2A
:1005E90033FB10D703994004EB99FB0FD8E5E4F9E5
:1005F900FA227818EF2FFFEE33FEED33FDEC33FCD2
:10060900C933C910D7059BE99A4007EC9BFCE99AC5
:10061900F90FD8E0E4C9FAE4CCFB2275F010EF2F0A
:10062900FFEE33FEED33FDCC33CCC833C810D7070A
:100639009BEC9AE899400AED9BFDEC9AFCE899F845
:0E0649000FD5F0DAE4CDFBE4CCFAE4C8F922D8
:00000001FF
