:03001B0002122F9F
:10122F00C0E0C0F0C083C082C0D075D000C000C085
:10123F0001C002C003C004C005C006C0071214429B
:10124F00120B99120F3190000EE004F0E0C3940AD4
:10125F00401512138812089C90002DE0B401031260
:10126F000FFB90000EE4F012067D90000DE004F0ED
:10127F00E0C3947D4004E4F0B2B7D007D006D005A8
:10128F00D004D003D002D001D000D0D0D082D083F0
:05129F00D0F0D0E032A8
:03000B00020041AF
:01004100328C
:030043000214B4F0
:1014B400C0E0C083C082E59A30E009539AFE9000F0
:1014C40008E59BF09000517401F0D082D083D0E005
:0114D40032E5
:1013BC00C2AF53973812158412001E120CB37FC89B
:1013CC007E00121524C2B7D2AF900051E0C3940135
:0F13DC004008120D8FE4900051F01212A480EA25
:1015550042B4000040400000416800003FB333330F
:081565004396000000000000A5
:04153D0041002D003C
:101584001214D51215991212FB1215AC1215BF12B2
:05159400164F021634A1
:100CB300E4900052F0A3F090001FF0A3F0900040E6
:100CC300F0A3F090004CF0A3F090003EF0A3F0905E
:100CD3000042F0A3F090004FF0A3F090004FF0A378
:100CE300F090002E12057E000000009000441205D3
:100CF3007E0000000090001B12057E0000000090A3
:100D0300002112057E0000000090002512057E00E0
:100D130000000090000912057E00000000900017FB
:100D230012057E0000000090003812057E000000CE
:100D33000090002912057E000000009000001205BB
:100D43007E0000000090000F12057E00000000905E
:100D5300001312057E0000000090004812057E007B
:100D6300000000E490000DF090003CF0A3F0900030
:100D73000412057E0000000090003212057E000080
:0C0D83000000E4900051F0900008F02205
:0513EB00900087EFF007
:1013F0001214197808A607900087E004FF12141948
:101400007809EFF6FD18E6FF3395E0EFFEED339532
:08141000E0FCE42DFFEE3CFEC0
:0114180022B1
:101442007F451213EB900052EEF0A3EFF07F3B12B8
:1014520013EB90001FEEF0A3EFF07F471213EB9017
:081462000054EEF0A3EFF022AC
:10108E00E490009EF0A3F090009AE0F8A3E0F9A39C
:10109E00E0FAA3E0FBC000C001C002C0037F45120E
:1010AE0013EBEE3395E0FDFCD003D002D001D0005F
:1010BE00EB2FFFEA3EFEE93DFDE83CFC90009A1264
:1010CE00057290009FE004F0700690009EE004F020
:1010DE00C390009FE094F490009EE0648094814061
:1010EE00A6E47BF47A01F9F890009AE0FCA3E0FD07
:1010FE00A3E0FEA3E0FF121344900036EEF0A3EF40
:0B110E00F090009A12057E0000000027
:0111190022B3
:100E6500C3EE64809480500FD2A0C2C4C3E49FFF38
:100E7500E49E9000878008C2A0D2C4900087EEF05F
:100E8500A3EFF0C3EC648094805013D2C3C2C2C3F5
:100E9500E49DFEE49C900089F0A3CEF0800EC2C3D1
:100EA500D2C2AF05900089ECF0A3EFF0900087E087
:100EB500FEA3E0FFC374E89FFF74039EFE900087C6
:100EC500F0A3EFF0A3E0FCA3E0FDC374E89DF0748C
:100ED500039C900089F090FF10EEF0A3EFF09000D6
:100EE50089E0FFA3E090FF20CFF0A3EFF0E4FFFE41
:100EF5007DF07C41900021E0F8A3E0F9A3E0FAA39E
:100F0500E0FB1202E46002501AE4FFFE7DF07CC1B2
:100F1500900021E0F8A3E0F9A3E0FAA3E0FB1202B8
:0B0F2500E45008C2A0C2C4C2C3C2C294
:010F3000229E
:10067D00900038E0F8A3E0F9A3E0FAA3E0FB9000C6
:10068D0029E0FCA3E0FDA3E0FEA3E0FF12004990EA
:10069D000013E0F8A3E0F9A3E0FAA3E0FB12004D8C
:1006AD00900004E0F8A3E0F9A3E0FAA3E0FB120048
:1006BD004D90000F120572900038E0F8A3E0F9A3F9
:1006CD00E0FAA3E0FB900029E0FCA3E0FDA3E0FE2F
:1006DD00A3E0FF120049900013E0F8A3E0F9A3E0B6
:1006ED00FAA3E0FB120049900004E0F8A3E0F9A39F
:1006FD00E0FAA3E0FB120049900000120572E4FF3E
:10070D00FEFDFC90000FE0F8A3E0F9A3E0FAA3E0F2
:10071D00FB1202E4601A401890000FE0FCA3E0FD0C
:10072D00A3E0FEA3E0FFE4FBFAF9F812004D802EE2
:10073D00E4FFFEFDFC90000FE0F8A3E0F9A3E0FA62
:10074D00A3E0FB1202E4501C90000FE0FCA3E0FDBF
:10075D00A3E0FEA3E0FFE4FBFAF9F81200499000D4
:10076D000F120572E4FFFEFDFC900000E0F8A3E01F
:10077D00F9A3E0FAA3E0FB1202E4601A401890001E
:10078D0000E0FCA3E0FDA3E0FEA3E0FFE4FBFAF92B
:10079D00F812004D802EE4FFFEFDFC900000E0F805
:1007AD00A3E0F9A3E0FAA3E0FB1202E4501C9000D1
:1007BD0000E0FCA3E0FDA3E0FEA3E0FFE4FBFAF9FB
:1007CD00F8120049900000120572E4FFFE7D7A7C5C
:1007DD004490000FE0F8A3E0F9A3E0FAA3E0FB12C8
:1007ED0002E4600C400A90000F12057E447A00006E
:1007FD00E4FFFE7D7A7CC490000FE0F8A3E0F9A33E
:10080D00E0FAA3E0FB1202E4500A90000F12057EFD
:10081D00C47A0000E4FFFE7D7A7C44900000E0F88D
:10082D00A3E0F9A3E0FAA3E0FB1202E4600C400A96
:10083D0090000012057E447A0000E4FFFE7D7A7C74
:10084D00C4900000E0F8A3E0F9A3E0FAA3E0FB12E6
:10085D0002E4500A90000012057EC47A0000900058
:10086D000FE0FCA3E0FDA3E0FEA3E0FF1203A0C098
:10087D0006C007900000E0FCA3E0FDA3E0FEA3E0AE
:0F088D00FF1203A0AD07AC06D007D006020E6520
:100F3100AFD2EFFEADD37C00E42DFFEC3E9000403C
:100F4100F0A3EFF0AFD4EFFEADD5E42DFFEC3E9072
:100F5100004CF0A3EFF053D177E4F5D3F5D2F5D5FA
:100F6100F5D443D1CC90000FE0FCA3E0FDA3E0FE5B
:100F7100A3E0FF1203A0D3EF9400EE6480948040BD
:100F810003D38001C3401490004CE0FEA3E0FFE4D2
:100F91009FFFE49E90004CF0A3EFF0900000E0FC76
:100FA100A3E0FDA3E0FEA3E0FF1203A0D3EF9400B2
:100FB100EE648094804003D38001C34014900040CC
:100FC100E0FEA3E0FFE49FFFE49E900040F0A3EF6A
:100FD100F090004CE0FEA3E0FF900043E02FF09082
:100FE1000042E03EF0900040E0FEA3E0FF90003FB1
:0A0FF100E02FF090003EE03EF022F9
:10089C0090003EE0FEA3E0FF900043E02FFD9000AF
:1008AC0042E03EFC120367E4FBFAF9783F12013E8A
:1008BC0090002E120572E490003EF0A3F0900042DE
:1008CC00F0A3F07FCD7ECC7D4C7C3F90002EE0F8E9
:1008DC00A3E0F9A3E0FAA3E0FB12013EC004C005BB
:1008EC00C006C0077FCD7ECC7D4C7C3E900044E0A2
:1008FC00F8A3E0F9A3E0FAA3E0FB12013ED003D089
:10090C0002D001D00012004D90002E120572900002
:10091C002EE0FCA3E0FDA3E0FEA3E0FF9000441258
:10092C00057290004FE0FCA3E0FDEC120367900011
:10093C008B12057290008BE0FCA3E0FDA3E0FEA3FC
:10094C00E0FF90002EE0F8A3E0F9A3E0FAA3E0FBAF
:10095C0012004990008B12057290155D1205529091
:10096C00008BE0F8A3E0F9A3E0FAA3E0FB12013E50
:10097C0090008712057290156112055290008BE061
:10098C00F8A3E0F9A3E0FAA3E0FB12013E90008F7C
:10099C0012057290001BE0FCA3E0FDA3E0FEA3E0B7
:1009AC00FF90008FE0F8A3E0F9A3E0FAA3E0FB12BC
:1009BC00004D90001B12057290001BE0FCA3E0FDA3
:1009CC00A3E0FEA3E0FF900048E0F8A3E0F9A3E069
:1009DC00FAA3E0FB12004D90001B12057290001B55
:1009EC00E0FCA3E0FDA3E0FEA3E0FF1203A0D3EF25
:1009FC0094E8EE64809483400A90001B12057E44B8
:100A0C007A000090001BE0FCA3E0FDA3E0FEA3E055
:100A1C00FF1203A0C3EF9418EE6480947C500A90EC
:100A2C00001B12057EC47A000090001BE0FCA3E0C2
:100A3C00FDA3E0FEA3E0FF900087E0F8A3E0F9A39C
:0E0A4C00E0FAA3E0FB12004D900038020572A4
:100B9900900020E02430FD90001FE034F8FC12039F
:100BA90067E4FBFA7980784612024790000912053A
:100BB90072900009E0FCA3E0FDA3E0FEA3E0FF7B47
:100BC900E17A2E7965784212013E90000912057288
:100BD900900052E0FCA3E0FDEC120367E4FBFA7914
:100BE900F47841120247E4FBFA798078BF12013E9A
:100BF9009000251205727F6F7E127D037C3C900068
:100C090025E0F8A3E0F9A3E0FAA3E0FB12013E9086
:100C19000021E0F8A3E0F9A3E0FAA3E0FB12004DFC
:100C29007BA47A70797D783F12013EC004C005C06B
:100C390006C0077F0A7ED77D237C3C900009E0F837
:100C4900A3E0F9A3E0FAA3E0FB12013ED003D0022E
:100C5900D001D00012004D9000211205729000259C
:100C6900E0FCA3E0FDA3E0FEA3E0FF120351901511
:100C79005912056212013EC004C005C006C00790A2
:100C89000021E0FCA3E0FDA3E0FEA3E0FF12035175
:100C990090155512056212013ED003D002D001D041
:0A0CA9000012004D900029020572B0
:100D8F00900008E0FF14B40D004003020E49900DCF
:100D9F00AB75F003A4C58325F0C58373020DDD0287
:100DAF000DD2020DFE020E09020E14020E1E020ECD
:100DBF0029020E34020E49020E49020DE8020DF30C
:100DCF00020E3F90004812057E4220000022900044
:100DDF004812057EC22000002290004812057E4175
:100DEF00A000002290004812057EC1A000002290B2
:100DFF00001312057E434800002290001312057E57
:100E0F00C34800002290004FE4F0A37414F0229026
:100E1F00004F74FFF0A374ECF02290001312057EC4
:100E2F0043C800002290001312057EC3C8000022A1
:100E3F0090004FE4F0A37408F02290004812057E52
:100E4F000000000090001312057E00000000E490E7
:050E5F00004FF0A3F0BC
:010E6400226B
:1013880090003EE0FEA3E0FFC3900043E09FFF9083
:101398000042E09EFEAD07FC120367901569120536
:1013A8006212013EE4FBFA798078BF12013E900098
:0413B80004020572B4
:100FFB00A2B4E4FF33900087CFF0A3EFF0A2C8E4D4
:10100B00FF33A3CFF0A3EFF0900087E0FAA3E0FB50
:10101B004A7012A3E07004A3E06401700890156598
:10102B00120552801FEB64014A701F900089E0701B
:10103B0002A3E07015FFFE7D807CBF901565120545
:10104B006212013E900056020572900087E070021A
:10105B00A3E0700C900089E07002A3E0700280188E
:10106B00900087E07004A3E064017016900089E0A3
:10107B007004A3E06401700A90005612057E000014
:02108B00000063
:01108D002240
:1012A4001215D2AC07E412036C900032120572E4FA
:1012B400FBFA795C7843900032E0FCA3E0FDA3E004
:1012C400FEA3E0FF1202477B007A407903784612BE
:1012D400013E900032120572900032E0FCA3E0FD62
:1012E400A3E0FEA3E0FF1203A0D3EF94E8EE648032
:0712F400949C5002C2C122CC
:1014D500E4F594F593F592F591F5B2F5B1F5B4F51A
:0B14E500B3F5CAF5C975960EF5952207
:1012FB0043BA80E4F5F190FFF2F0F5F6F5F790FFC5
:10130B00F07403F0A374E9F090FF107403F0A3746E
:10131B00E8F0A37403F0A374E9F090FF207403F0DA
:10132B00A374E8F0A37403F0A374E9F090FF14E442
:09133B00F090FF24F075F5862204
:1014F00075D90443A220E4F5F2F5F3F5E9F5F9F521
:0A150000EAF5FAF5EBF5FBD2DE2266
:1015E400538E7FE4F589758A95758CFFC28DD28CF4
:0115F40022D4
:10159900538EBF53890F758BEB758DCBC28FD28E4E
:0315A900D2AB22A0
:07164F0043D1CC53AF1F2271
:1015AC00759850438E0475D7F775D6FD438E01435D
:0315BC008E10226C
:1015BF00759A50438E0475D7F775D6FD438E107507
:0315CF00AF012247
:070003003098FDC298AF998F
:01000A0022D3
:0A161E00E59A30E0FB539AFEAF9B03
:01162800229F
:081647008F993099FDC2992230
:0B1629008F9BE59A30E1FB539AFD22F5
:0A163400439D20E4F5BD75BC802243
:1015D20075BC8D00000000E5BC30E4FB53BCEFAFEE
:0215E200BD2228
:08163E007F147E71DEFEDFFC6B
:011646002281
:04152400AD07AC065D
:10152800E4FBFAC3EB9DEA9C500A12163E0BBB0083
:04153800010A80EF35
:01153C00228C
:0616560000007F16DFFE1C
:01165C00226B
:0F15F500D286D2CB121656C286121656C2CB22FF
:0C161200C286D2CB121656D286021656A3
:0E160400A2009286D2CB121656C2CB02165608
:0D000E00D2CB121656A286C2CB1216562275
:02149200AE07A3
:10149400E4780CF6EE25E0FE9286D2CB121656C204
:1014A400CB121656780C06E6C3940840E702000EE9
:10146A00E4FED286FDFCEE25E0FED2CB121656A291
:10147A0086E4334EFEC2CB1216560DBD00010CEDAA
:07148A0064084C70E1AF069D
:011491002238
:10156D00AC071215F57FD0121492AF04121492AF7E
:07157D000512149202161280
:02141900AD071D
:10141B001215F57FD0121492AF051214921215F516
:10142B007FD112149212146A780AA607D2001216F0
:06143B0004121612E6FF88
:011441002288
:05165D00C2B7C2B72274
:10001E00E4FD7F6B12156D7D077F1912156D7D0442
:10002E007F1A12156D7D187F1B12156D7D017F1CB9
:03003E0002156D3B
:10150A0000000000000000000000000000000000D1
:0A151A0000000000000000000000C7
:1015410050007700000000000000000000000000D3
:0315510000000097
:0E11A600900093EBF0A3EAF0A3E9F0A3EDF0C4
:1011B40074FFA3F0A3F0E4A3F0900096E0FF900086
:1011C40099E0FEC39F505B900093E0FBA3E0FAA379
:1011D400E0F98E82758300120517FF900097E0F006
:1011E400A3E06FF0E4FD900097E0FEA3E0FF30E0A1
:1011F40019EEC313FEEF13FFEE64A0FEEF6401FFCC
:10120400900097EEF0A3EFF0800B900097E0C313EB
:10121400F0A3E013F00DEDB408CC900099E004F0D5
:0A1224008097900097E0FEA3E0FF22
:01122E00229D
:100A5A00785A7C007D017BFF7A15790A7E007F082F
:100A6A001204F178627C007D017BFF7A1579127E8F
:100A7A00007F081204F1786A7C007D017BFF7A15F9
:100A8A00791A7E007F0A1204F1E4900075F0A3F04F
:100A9A00900074F0900074E0FFC39404505BEF255B
:100AAA00E025E02477F582E43400F583E0FCA3E056
:100ABA00FDA3E0FEA3E0FF1203A0900074E0FD2571
:100ACA00E0245AF582E43400F583EEF0A3EFF0ED6A
:100ADA0025E0245AF582E43400F583E0FEA3E0FF22
:100AEA00ED25E02462F582E43400F583EEF0A3EF0D
:100AFA00F0900074E004F0809BE4900074F09000A1
:100B0A0074E0FF25E02462F582E43400F583A3E073
:100B1A00FEEF25E0246AF582E43400F583EEF090D6
:100B2A000074E0FD25E02462F582E43400F583E0F8
:100B3A00FFED25E0246BF582E43400F583EFF090B5
:100B4A000074E004F0E0B404B57B017A00796A7DB0
:100B5A00081211A6900075EEF0A3EFF0900075E070
:100B6A00FEA3E0900072F0EEA3F0E4A3F09000740C
:100B7A00E0FFC3940A5017746A2FF582E43400F533
:0E0B8A0083E0FF121647900074E004F080DF55
:010B9800223A
:0300000002111AD0
:0C111A00787FE4F6D8FD75812002116199
:1000460002040CE86480F8E933E83360110460F0D8
:10005600ED33EC337009E8FCE9FDEAFEEBFF220420
:1000660060DED3EB9FEA9EE99DE8C2E78CF0C2F71B
:1000760095F0400CE8CCF8E9CDF9EACEFAEBCFFBE7
:100086001203D785D0F05804700320D5B3E8047066
:10009600075002B2D502041692D5EC0460F7E4CC00
:1000A600C0E0C398F8603B94186008400DD0E0FBB0
:1000B6000203EEE4FBFAC9FC8028E830E406E4C952
:1000C600FBE4CAFCE830E305E4C9CACBFCE8540704
:1000D6006010F8C3E913F9EA13FAEB13FBEC13FC0F
:1000E600D8F130F52FC3E49CFCEF9BFFEE9AFEEDB2
:1000F60099FDD0E0FBEF4E4D4C701222DB0302045B
:1001060013EC2CFCEF33FFEE33FEED33FDED30E761
:10011600EB0203EEEF2BFFEE3AFEED39FDD0E0FBEE
:1001260050130BBB0003020416ED13FDEE13FEEF96
:0801360013FFEC13FC0203EEC1
:10013E00EC4D6011E8497017ED33EC3304600DE4BB
:10014E00FCFFFEFD22E933E8330470F802040C12C2
:10015E0003D758046009E4CC2481500628500902C4
:10016E000416284003020413C0E0EB4A7044B98021
:10017E0006D0E0FB020402EF4E701CBD8008EBFFC0
:10018E00EAFEE9FD80EBE98DF0A4FEE5F002022720
:10019E00E9CDF9EAFEEBFFEF89F0A4FCE5F0CE899C
:1001AE00F0A42EFFE435F0CD89F0A42DFEE435F059
:1001BE008067EF4E7005BD80D780C3EF8BF0A4AC87
:1001CE00F0EE8BF0A42CFCE435F0F8EF8AF0A42CC2
:1001DE00E5F038FCE433CB8DF0A42CFCE5F03BF8D5
:1001EE00EE8AF0A42CFCE5F038F8E433CF89F0A4C5
:1001FE002CFCE5F038CF3400CE89F0A42FFFE5F0CB
:10020E003EFEE433C98DF0A42EFEE5F039CD8AF022
:10021E00A42FFFE5F03EFEE43DFD33D0E0FB50079A
:10022E000BBB000F020416EC2CFCEF33FFEE33FE7B
:06023E00ED33FD0203EEAA
:10024400020416EC5D046005E85904700302040C12
:100254001203D7580460F6EC4860F2EC7004FDFE1B
:10026400FF22C860DB2481C85009C398600250068D
:100274000204139850CAF582E9294B4A7005AB82EF
:1002840002040275F0007C1A7880C3EF9BEE9AEDAD
:1002940099400DC3EF9BFFEE9AFEED99FDE842F005
:1002A400DC23ACF0D0E0FFD0E0FED0E0FDAB822058
:1002B400E7101BEB60BAEC2CFCEF33FFEE33FEEDE2
:1002C40033FD0203EEE803F830E705C0F075F000F3
:1002D400EF2FFFEE33FEED33FD40B830E7C280AAC6
:1002E40074F8CC6480CCC86480C8F582046043C3CD
:1002F400EB9FF5F0EA9E42F0E99D42F0E89C45F060
:1003040060305018E5825FFFE582F42B5582FB5084
:10031400210ABA001D09B90019088016E5825BFBA1
:10032400E582F42F5582FF50090EBE00050DBD0075
:10033400010CC3EB9FF5F0EA9E42F0E99D42F0E820
:0D0344009C45F06007CC4820E701B3EC2297
:10035100ED33EC33600A047003BD8004ECB2E7FCBA
:010361002279
:1003620075F020800E75F010800575F0087D007E16
:10037200007F003392D530D503120544EC33401090
:10038200EF33FFEE33FEED33FDEC33FCD5F0ED221F
:0E039200E5F0247EA2D513CC92E7CDCEFF225B
:1003A000EDD2E7CD33EC3392D524814006E4FFFE55
:1003B000FDFC22FCE4CFCECDCC24E0501174FF80B4
:1003C000EDC3CC13CCCD13CDCE13CECF13CF047051
:0703D000F030D5DE02054408
:1003D700E9D2E7C933E833F892D5EDD2E7CD33EC6C
:0703E70033FC5002B2D522E5
:1003EE00EC30E7100FBF000C0EBE00080DBD000470
:1003FE000BEB6014A2D5EB13FCED92E7FD2274FF1C
:10040E00FCFDFEFF22E480F8A2D574FF13FC7D8074
:03041E00E480EF88
:101126000213BCE493A3F8E493A34003F68001F210
:1011360008DFF48029E493A3F85407240CC8C333CA
:10114600C4540F4420C8834004F456800146F6DF99
:10115600E4800B010204081020408090153DE47ED7
:10116600019360BCA3FF543F30E509541FFEE4938E
:10117600A360010ECF54C025E060A840B8E493A355
:10118600FAE493A3F8E493A3C8C582C8CAC583CA80
:10119600F0A3C8C582C8CAC583CADFE9DEE780BE38
:011554000096
:10042100E709F608DFFA8046E709F208DFFA803EBD
:1004310088828C83E709F0A3DFFA8032E309F608AA
:10044100DFFA8078E309F208DFFA807088828C8312
:10045100E309F0A3DFFA806489828A83E0A3F608C6
:10046100DFFA805889828A83E0A3F208DFFA804CA0
:1004710080D280FA80C680D4806980F28033801077
:1004810080A680EA809A80A880DA80E280CA8033E0
:1004910089828A83ECFAE493A3C8C582C8CCC58358
:1004A100CCF0A3C8C582C8CCC583CCDFE9DEE78028
:1004B1000D89828A83E493A3F608DFF9ECFAA9F0A7
:1004C100EDFB2289828A83ECFAE0A3C8C582C8CCFD
:1004D100C583CCF0A3C8C582C8CCC583CCDFEADE16
:1004E100E880DB89828A83E493A3F208DFF980CC78
:1004F10088F0EF60010E4E60C388F0ED2402B40471
:100501000050B9F582EB2402B4040050AF23234517
:06051100822390047173C7
:10051700BB010CE58229F582E5833AF583E0225099
:1005270006E92582F8E622BBFE06E92582F8E222E3
:0D053700E58229F582E5833AF583E49322FD
:10134400C2D5E830E70FB2D5E4C39BFBE49AFAE4D4
:1013540099F9E498F8EC30E717B2D512137A12052C
:10136400EBE4C39BFBE49AFAE499F9E498F880036C
:101374001205EB30D50DE4C39FFFE49EFEE49DFD12
:04138400E49CFC22C7
:0E054400C3E49FFFE49EFEE49DFDE49CFC22C8
:10055200E493FC740193FD740293FE740393FF22EF
:10056200E493F8740193F9740293FA740393FB22EF
:0C057200ECF0A3EDF0A3EEF0A3EFF022FC
:10057E00A8828583F0D083D082120595120595123C
:10058E000595120595E473E493A3C583C5F0C58361
:10059E00C8C582C8F0A3C583C5F0C583C8C582C8C7
:0105AE00222A
:1005AF0075F008758200EF2FFFEE33FECD33CDCC03
:1005BF0033CCC58233C5829BED9AEC99E582984086
:1005CF000CF582EE9BFEED9AFDEC99FC0FD5F0D663
:1005DF00E4CEFBE4CDFAE4CCF9A88222B800C1B98D
:1005EF000059BA002DEC8BF084CFCECDFCE5F0CBCB
:1005FF00F97818EF2FFFEE33FEED33FDEC33FCEB04
:10060F0033FB10D703994004EB99FB0FD8E5E4F9BE
:10061F00FA227818EF2FFFEE33FEED33FDEC33FCAB
:10062F00C933C910D7059BE99A4007EC9BFCE99A9F
:10063F00F90FD8E0E4C9FAE4CCFB2275F010EF2FE4
:10064F00FFEE33FEED33FDCC33CCC833C810D707E4
:10065F009BEC9AE899400AED9BFDEC9AFCE899F81F
:0E066F000FD5F0DAE4CDFBE4CCFAE4C8F922B2
:00000001FF
