:03001B00021CCCF8
:101CCC00C0E0C0F0C083C082C0D075D000C000C0DE
:101CDC0001C002C003C004C005C006C0071220CE5C
:101CEC0012114612174A900018E004F0E0C3940A4F
:101CFC004015121FE7120C9190003BE0B401031247
:101D0C001993900018E4F0120A72900016E004F097
:101D1C00E0C3947D4004E4F0B2B7D007D006D00500
:101D2C00D004D003D002D001D000D0D0D082D08348
:051D3C00D0F0D0E03200
:03000B00020041AF
:01004100328C
:03004300021D415A
:101D4100C0E0C083C082C0D075D008E59A30E045BC
:101D5100539AFEE59BB44309900084E4F09000049B
:101D6100F0900004E004F0E0C3942040037420F0FC
:101D7100900004E0FF2456F582E43400F583E59BEE
:101D8100F074562FF582E43400F583E0B43B0690FD
:0E1D910000847401F0D0D0D082D083D0E03234
:101E9200C2AF12221D12001E12147E1220797F324E
:101EA2007E001221D7C2B7D2AF1222EB7F057E008D
:101EB2001221D7900084E0C39401400E7B017A0086
:101EC2007957121260E4900084F0121D9F3006D9F7
:0A1ED200121E45900052EFF080CF81
:10201B0041542B4E414D454D5742616C616E63658A
:10202B00640D0A002C003B0042B40000404000004D
:10203B00417000003FB333334396000000000000B3
:0C211E0041003B0041008400410004002F
:10221D0012218712225B121EDC12226E122207126D
:05222D00230D0222E177
:10147E00E4900085F0A3F0900029F0A3F0900053C3
:10148E00F0A3F090007FF0A3F0900050F0A3F09046
:10149E000055F0A3F0900082F0A3F0900082F0A32C
:1014AE00F090003C12073600000000900077120703
:1014BE003600000000900025120736000000009054
:1014CE00002F12073600000000900033120736007E
:1014DE00000000900012120736000000009000215C
:1014EE001207360000000090004A12073600000076
:1014FE00009000371207360000000090000012071F
:10150E00360000000090001912073600000000900F
:10151E00001D1207360000000090007B12073600F7
:10152E00000000E4900016F090004EF0A3F0900042
:10153E0089120736000000009000051207360000E1
:10154E000000900044120736000000009000401288
:10155E00073600000000E4900084F090000DF0903B
:10156E00002B120736000000007BFF7A20791B0249
:02157E001FB29A
:05204B0090008DEFF094
:102050001220A57812A60790008DE004FF1220A59B
:102060007813EFF6FD18E6FF3395E0EFFEED3395BC
:08207000E0FCE42DFFEE3CFE54
:012078002245
:1020CE007F4512204B900085EEF0A3EFF07F3B1280
:1020DE00204B900029EEF0A3EFF07F4712204B909B
:0820EE000087EEF0A3EFF022E1
:101A2600E49000EDF0A3F09000E9E0F8A3E0F9A35C
:101A3600E0FAA3E0FBC000C001C002C0037F45126C
:101A4600204BEE3395E0FDFCD003D002D001D00050
:101A5600EB2FFFEA3EFEE93DFDE83CFC9000E91273
:101A6600072A9000EEE004F070069000EDE004F026
:101A7600C39000EEE094F49000EDE0648094814021
:101A8600A6E47BF47A01F9F89000E9E0FCA3E0FD16
:101A9600A3E0FEA3E0FF121F6E900048EEF0A3EF56
:0B1AA600F09000E9120736000000007D
:011AB1002212
:1018D600C3EE64809480500FD2A0C2C4C3E49FFFBD
:1018E600E49E90008D8008C2A0D2C490008DEEF0D8
:1018F600A3EFF0C3EC648094805013D2C3C2C2C37A
:10190600E49DFEE49C90008FF0A3CEF0800EC2C34F
:10191600D2C2AF0590008FECF0A3EFF090008DE0FF
:10192600FEA3E0FFC374E89FFF74039EFE90008D44
:10193600F0A3EFF0A3E0FCA3E0FDC374E89DF07410
:10194600039C90008FF090FF10EEF0A3EFF0900054
:101956008FE0FFA3E090FF20CFF0A3EFF090002FE1
:10196600E0FCA3E0FDA3E0FEA3E0FF1203A0D3EF9B
:101976009419EE64809480500BC3EF94E7EE648074
:0C198600947F5008C2A0C2C4C2C3C2C2F9
:011992002232
:100A720090004AE0F8A3E0F9A3E0FAA3E0FB9000BB
:100A820037E0FCA3E0FDA3E0FEA3E0FF12004990E3
:100A9200001DE0F8A3E0F9A3E0FAA3E0FB12004D89
:100AA200900089E0F8A3E0F9A3E0FAA3E0FB1200CA
:100AB2004D90001912072A90004AE0F8A3E0F9A32A
:100AC200E0FAA3E0FB900037E0FCA3E0FDA3E0FE28
:100AD200A3E0FF12004990001DE0F8A3E0F9A3E0B3
:100AE200FAA3E0FB120049900089E0F8A3E0F9A321
:100AF200E0FAA3E0FB12004990000012072AE4FF8B
:100B0200FEFDFC900019E0F8A3E0F9A3E0FAA3E0EF
:100B1200FB1202E4601A4018900019E0FCA3E0FD09
:100B2200A3E0FEA3E0FFE4FBFAF9F812004D802EE9
:100B3200E4FFFEFDFC900019E0F8A3E0F9A3E0FA5F
:100B4200A3E0FB1202E4501C900019E0FCA3E0FDBC
:100B5200A3E0FEA3E0FFE4FBFAF9F81200499000DB
:100B62001912072AE4FFFEFDFC900000E0F8A3E062
:100B7200F9A3E0FAA3E0FB1202E4601A4018900025
:100B820000E0FCA3E0FDA3E0FEA3E0FFE4FBFAF932
:100B9200F812004D802EE4FFFEFDFC900000E0F80C
:100BA200A3E0F9A3E0FAA3E0FB1202E4501C9000D8
:100BB20000E0FCA3E0FDA3E0FEA3E0FFE4FBFAF902
:100BC200F812004990000012072AE4FFFE7D7A7CA9
:100BD20044900019E0F8A3E0F9A3E0FAA3E0FB12C5
:100BE20002E4600C400A900019120736447A0000B1
:100BF200E4FFFE7D7A7CC4900019E0F8A3E0F9A33B
:100C0200E0FAA3E0FB1202E4500A90001912073640
:100C1200C47A0000E4FFFE7D7A7C44900000E0F894
:100C2200A3E0F9A3E0FAA3E0FB1202E4600C400A9D
:100C3200900000120736447A0000E4FFFE7D7A7CC1
:100C4200C4900000E0F8A3E0F9A3E0FAA3E0FB12ED
:100C520002E4500A900000120736C47A00009000A5
:100C620019E0FCA3E0FDA3E0FEA3E0FF1203A0C095
:100C720006C007900000E0FCA3E0FDA3E0FEA3E0B5
:0F0C8200FF1203A0AD07AC06D007D0060218D6AC
:10174A00AFD2EFFEADD37C00E42DFFEC3E90005308
:10175A00F0A3EFF0AFD4EFFEADD5E42DFFEC3E9051
:10176A00007FF0A3EFF053D177E4F5D3F5D2F5D5A6
:10177A00F5D443D1CC900019E0FCA3E0FDA3E0FE30
:10178A00A3E0FF1203A0D3EF9400EE64809480409C
:10179A0003D38001C3401490007FE0FEA3E0FFE47E
:1017AA009FFFE49E90007FF0A3EFF0900000E0FC22
:1017BA00A3E0FDA3E0FEA3E0FF1203A0D3EF940091
:1017CA00EE648094804003D38001C3401490005398
:1017DA00E0FEA3E0FFE49FFFE49E900053F0A3EF36
:1017EA00F090007FE0FEA3E0FF900056E02FF0901B
:1017FA000055E03EF0900053E0FEA3E0FF90005158
:0A180A00E02FF0900050E03EF022C5
:100C9100900050E0FEA3E0FF900056E02FFD900091
:100CA10055E03EFC120367E4FBFAF9783F12013E7E
:100CB10090003C12072AE4900050F0A3F0900055F8
:100CC100F0A3F07FCD7ECC7D4C7C3F90003CE0F8E2
:100CD100A3E0F9A3E0FAA3E0FB12013EC004C005C2
:100CE100C006C0077FCD7ECC7D4C7C3E900077E076
:100CF100F8A3E0F9A3E0FAA3E0FB12013ED003D090
:100D010002D001D00012004D90003C12072A900041
:100D11003CE0FCA3E0FDA3E0FEA3E0FF900077121E
:100D2100072A900082E0FCA3E0FDEC12036790002B
:100D31008D12072A90008DE0FCA3E0FDA3E0FEA345
:100D4100E0FF90003CE0F8A3E0F9A3E0FAA3E0FBA8
:100D510012004990008D12072A90203B12070A9039
:100D6100008DE0F8A3E0F9A3E0FAA3E0FB12013E55
:100D710090009112072A90203F12070A90008DE0FF
:100D8100F8A3E0F9A3E0FAA3E0FB12013E9000957D
:100D910012072A900025E0FCA3E0FDA3E0FEA3E0FA
:100DA100FF900095E0F8A3E0F9A3E0FAA3E0FB12BD
:100DB100004D90002512072A900025E0FCA3E0FDDC
:100DC100A3E0FEA3E0FF90002BE0F8A3E0F9A3E08D
:100DD100FAA3E0FB12004D90002512072A9000258E
:100DE100E0FCA3E0FDA3E0FEA3E0FF1203A0D3EF2C
:100DF10094E8EE64809483400A90002512073644FB
:100E01007A0000900025E0FCA3E0FDA3E0FEA3E052
:100E1100FF1203A0C3EF9418EE6480947C500A90F3
:100E21000025120736C47A0000900025E0FCA3E0FB
:100E3100FDA3E0FEA3E0FF90007BE0F8A3E0F9A3AF
:100E4100E0FAA3E0FB12004D90002512072A900062
:100E510025E0FCA3E0FDA3E0FEA3E0FF900091E00C
:100E6100F8A3E0F9A3E0FAA3E0FB12004D90004AD9
:030E710002072A4B
:1011460090002AE02430FD900029E034F8FC1203D8
:1011560067E4FBFA7980784612024790001212077C
:101166002A900012E0FCA3E0FDA3E0FEA3E0FF7BD3
:10117600E17A2E7965784212013E90001212072A12
:10118600900085E0FCA3E0FDEC120367E4FBFA792E
:10119600F47841120247E4FBFA798078BF12013EE7
:1011A60090003312072A7F6F7E127D037C3C9000ED
:1011B60033E0F8A3E0F9A3E0FAA3E0FB12013E90C6
:1011C600002FE0F8A3E0F9A3E0FAA3E0FB12004D3C
:1011D6007BA47A70797D783F12013EC004C005C0B9
:1011E60006C0077F0A7ED77D237C3C900012E0F87C
:1011F600A3E0F9A3E0FAA3E0FB12013ED003D0027C
:10120600D001D00012004D90002F12072A90003313
:10121600E0FCA3E0FDA3E0FEA3E0FF120351902053
:101226003712071A12013EC004C005C006C0079057
:10123600002FE0FCA3E0FDA3E0FEA3E0FF120351B4
:1012460090203312071A12013ED003D002D001D0EB
:0A1256000012004D90003702072A35
:1018140090000DE0FF120787184601183B0218518B
:1018240003185C04186705187406188207188D08D5
:1018340018980D000018A890007B12073642480043
:10184400002290007B120736C24800002290001D3F
:10185400120736434800002290001D120736C34881
:10186400000022E4FD7F191221677D017F0D800BAA
:10187400E4FD7F0D1221677D017F1902216790002D
:101884001D12073643C800002290001D120736C3FC
:10189400C8000022900082E4F0A37408F090003B9A
:1018A4007401F02290007B120736000000009000C3
:1018B4001D12073600000000E4900082F0A3F0FD42
:1018C4007F131221677D017F13122167E490003B8F
:0118D400F023
:0118D50022F0
:101FE700900050E0FEA3E0FFC3900056E09FFF90F3
:101FF7000055E09EFEAD07FC1203679020471207CD
:102007001A12013EE4FBFA798078BF12013E900074
:042017000502072A8D
:10199300A2B4E4FF3390008DCFF0A3EFF0A2C8E42C
:1019A300FF33A3CFF0A3EFF090008DE0FAA3E0FBA9
:1019B3004A7012A3E07004A3E0640170089020430E
:1019C30012070A801FEB64014A701F90008FE070BA
:1019D30002A3E07015FFFE7D807CBF9020431207B9
:1019E3001A12013E90008902072A90008DE07002CE
:1019F300A3E0700C90008FE07002A3E070028018E7
:101A030090008DE07004A3E06401701690008FE0F5
:101A13007004A3E06401700A900089120736000085
:021A23000000C1
:011A2500229E
:101D9F00122281AC07E412036C90004412072AE46C
:101DAF00FBFA795C7843900044E0FCA3E0FDA3E0EC
:101DBF00FEA3E0FF1202477B007A407903784612B8
:101DCF00013E90004412072A900044E0FCA3E0FD7E
:101DDF00A3E0FEA3E0FF1203A0D3EF944BEE6480C9
:071DEF00949D5002C2C122C5
:10137600900052E0FFC39400407AEFD3940A507471
:10138600C3740A9FFFE49400FEC3E49FFFE49EFE3D
:101396007C007D0A1205CDAC06AD07E4120367900A
:1013A600002B12072AE4FFFE7DA07CC190002BE0F3
:1013B600F8A3E0F9A3E0FAA3E0FB1202E4600D4013
:1013C6000B90002B120736C1A0000022E4FFFE7D21
:1013D600207CC290002BE0F8A3E0F9A3E0FAA3E09A
:1013E600FB1202E4400302147D90002B120736C262
:1013F60020000022900052E0FFD39414406FEFD3F8
:10140600941E5069E024ECFFE434FFFE7C007D0A64
:101416001205CDAC06AD07E412036790002B120748
:101426002AE4FFFE7DA07C4190002BE0F8A3E0F9C2
:10143600A3E0FAA3E0FB1202E4500B90002B120784
:101446003641A0000022E4FFFE7D207C4290002B66
:10145600E0F8A3E0F9A3E0FAA3E0FB1202E46017C8
:10146600401590002B120736422000002290002BD8
:081476001207360000000022FD
:0E0E740090000EE0FCA3E0FDA3E0FEA3E0FF73
:060E820090009D12072AFA
:100E88009000A5E0FCA3E0FDA3E0FEA3E0FF900036
:100E9800A1E0F8A3E0F9A3E0FAA3E0FB1202E490D2
:100EA80000A9E0F85063A3E0F9A3E0FAA3E0FBA3EC
:100EB800E0FCA3E0FDA3E0FEA3E0FF120049C004AC
:100EC800C005C006C0079000A1E0F8A3E0F9A3E0C0
:100ED800FAA3E0FBA3E0FCA3E0FDA3E0FEA3E0FF90
:100EE800120049D003D002D001D000120247C0043A
:100EF800C005C006C0079000A1E0F8A3E0F9A3E090
:100F0800FAA3E0FB90009D8061A3E0F9A3E0FAA3B7
:100F1800E0FBA3E0FCA3E0FDA3E0FEA3E0FF1200DA
:100F280049C004C005C006C0079000A5E0F8A3E0CA
:100F3800F9A3E0FAA3E0FB9000A1E0FCA3E0FDA385
:100F4800E0FEA3E0FF120049D003D002D001D00098
:100F5800120247C004C005C006C00790009DE0F813
:100F6800A3E0F9A3E0FAA3E0FBA3E0FCA3E0FDA360
:100F7800E0FEA3E0FF120049D003D002D001D00068
:100F88001202479000B112072A9000ADE0FCA3E0DE
:100F9800FDA3E0FEA3E0FFA3E0F8A3E0F9A3E0FAD5
:100FA800A3E0FB1202E4601340119000ADE0FCA343
:100FB800E0FDA3E0FEA3E0FFA380329000A9E0FCDF
:100FC800A3E0FDA3E0FEA3E0FF9000B1E0F8A3E0FA
:100FD800F9A3E0FAA3E0FB1202E450149000A9E0A0
:100FE800FCA3E0FDA3E0FEA3E0FF9000B112072AF6
:0E0FF8009000B1E0FCA3E0FDA3E0FEA3E0FF4B
:0110060022C7
:1007EB0090009CEFF0701590007B12073600000014
:1007FB000090001D120736000000002290009CE0C4
:10080B0064066003020935FFFEFDFC90000EE0F864
:10081B00A3E0F9A3E0FAA3E0FB1202E4602F402D62
:10082B009000A1120736000000009000A5120736B9
:10083B003F8000009000A9120736000000009000D6
:10084B00AD12073642480000120E748046E4FFFEDC
:10085B00FDFC90000EE0F8A3E0F9A3E0FAA3E0FBA7
:10086B001202E450349000A11207360000000090F1
:10087B0000A5120736BF8000009000A912073600B2
:10088B000000009000AD12073642480000120E74B3
:10089B0012035190007B12072AE4FFFEFDFC90002F
:1008AB0009E0F8A3E0F9A3E0FAA3E0FB1202E4608D
:1008BB0030402E9000A1120736000000009000A5DA
:1008CB001207363F8000009000A912073600000087
:1008DB00009000AD12073643C80000900009020AD1
:1008EB001DE4FFFEFDFC900009E0F8A3E0F9A3E096
:1008FB00FAA3E0FB1202E44003020A719000A1127A
:10090B000736000000009000A5120736BF800000DC
:10091B009000A9120736000000009000AD120736B8
:10092B0043C80000900009020A6590009CE0640532
:10093B006003020A71FFFEFDFC900009E0F8A3E0E2
:10094B00F9A3E0FAA3E0FB1202E46032403090001E
:10095B00A1120736000000009000A512073641A037
:10096B0000009000A9120736000000009000AD12A5
:10097B00073642480000900009120E778049E4FFC9
:10098B00FEFDFC900009E0F8A3E0F9A3E0FAA3E078
:10099B00FB1202E450379000A11207360000000052
:1009AB009000A5120736C1A000009000A9120736CF
:1009BB00000000009000AD12073642480000900086
:1009CB0009120E7712035190007B12072AE4FFFEE7
:1009DB00FDFC90000EE0F8A3E0F9A3E0FAA3E0FB26
:1009EB001202E4603240309000A112073600000082
:1009FB00009000A5120736422000009000A91207B4
:100A0B0036000000009000AD12073643C80000907E
:100A1B00000E120E778049E4FFFEFDFC90000EE005
:100A2B00F8A3E0F9A3E0FAA3E0FB1202E45037903D
:100A3B0000A1120736000000009000A5120736C275
:100A4B002000009000A9120736000000009000ADB6
:100A5B0012073643C8000090000E120E7712035196
:070A6B0090001D12072A2272
:10126000900099EBF0A3EAF0A3E9F0900084E0701D
:1012700003021375900099E0FBA3E0FAA3E0F912D2
:1012800005876443600302136C9000011205A0649B
:101290004A705690009F74FFF0A37420F0A3742F3F
:1012A000F012166690009F74FFF0A37420F0A374F0
:1012B0002FF07B007A007900121666121F2590002D
:1012C0000912072A90009F74FFF0A37420F0A37402
:1012D00031F07B007A007900121666121F2590000B
:1012E0000E12072A7F06021369900099E0FBA3E023
:1012F000FAA3E0F99000011205A0644D705590002A
:101300009F74FFF0A37420F0A3742FF01216669060
:10131000009F74FFF0A37420F0A3742FF07B007A79
:10132000007900121666121F2590000912072A90F4
:10133000009F74FFF0A37420F0A37431F07B007A57
:10134000007900121666121F2590000E12072A7FE0
:10135000058016900099E0FBA3E0FAA3E0F9900065
:10136000011205A0B45305E4FF1207EBE4900084DA
:06137000F0900004F022E1
:10218700E4F594F593F592F591F5B2F5B1F5CAF545
:0C219700C9759607F59575B41CF5B322C8
:101EDC0043BA80E4F5F190FFF2F0F5F6F5F790FFD8
:101EEC00F07403F0A374E9F090FF107403F0A37482
:101EFC00E8F0A37403F0A374E9F090FF207403F0EE
:101F0C00A374E8F0A37403F0A374E9F090FF14E455
:091F1C00F090FF24F075F5862217
:1021A30075D90443A220E4F5F2F5F3F5E9F5F9F561
:0A21B300EAF5FAF5EBF5FBD2DE22A7
:01004200229B
:10225B00538EBF53890F758BEB758DCBC28FD28E7F
:03226B00D2AB22D1
:07230D0043D1CC53AF1F22A6
:10226E00759850438E0475D7F775D6FD438E01438E
:03227E008E10229D
:10220700759A50438E0475D7F775D6FD43B50143CC
:062217008E1075AF0122DC
:0722FD003098FDC298AF9973
:0123040022B6
:0A22CB00E59A30E0FB539AFEAF9B4A
:0122D50022E6
:082305008F993099FDC2992265
:0B22D6008F9BE59A30E1FB539AFD223C
:0B1FB200900099EBF0A3EAF0A3E9F027
:101FBD00E4FEFD122232AE07E4FDEDC39E501A90F1
:101FCD000099E0FBA3E0FAA3E0F98D82758300127E
:091FDD0005A0FF1222D60D80E1DF
:011FE60022D8
:0A22E100439D20E4F5BD75BC80228A
:1022810075BC8D00000000E5BC30E4FB53BCEFAF32
:02229100BD226C
:0922EB00D2B020B00375C76022D7
:0623140000007F2FDFFE38
:01231A0022A0
:0822F4007F147E71DEFEDFFCA9
:0122FC0022BF
:0421D700AD07AC069E
:1021DB00E4FBFAC3EB9DEA9C500A1222F40BBB0002
:0421EB00010A80EF76
:0121EF0022CD
:06231B0000007F16DFFE4A
:012321002299
:0F229300D286D2CB12231BC28612231BC2CB22B0
:0C22BF00C286D2CB12231BD28602231B46
:0E22B100A2009286D2CB12231BC2CB02231BAB
:0D000E00D2CB12231BA286C2CB12231B22D1
:02214500AE07E3
:10214700E47816F6EE25E0FE9286D2CB12231BC268
:10215700CB12231B781606E6C3940840E702000E4D
:1020F600E4FED286FDFCEE25E0FED2CB12231BA227
:1021060086E4334EFEC2CB12231B0DBD00010CED3F
:0721160064084C70E1AF0604
:01211D00229F
:1021F000AC071222937FD0122145AF04122145AFC4
:07220000051221450222BF77
:0220A500AD0785
:1020A7001222937FD0122145AF05122145122293A8
:1020B7007FD11221451220F67814A607D2001222EA
:0620C700B11222BFE6FF8A
:0120CD0022F0
:05000600C2B7C2B722E1
:10001E00E4FD7F6B1221F07D077F191221F07D0424
:10002E007F1A1221F07D187F1B1221F07D017F1C9B
:03003E000221F0AC
:1021BD000000000000000000000000000000000012
:0A21CD000000000000000000000008
:10212A005000D20000000000000000000000000083
:03213A00000000A2
:0E1B3E009000E2EBF0A3EAF0A3E9F0A3EDF0D3
:101B4C0074FFA3F0A3F0E4A3F09000E5E0FF900095
:101B5C00E8E0FEC39F505B9000E2E0FBA3E0FAA339
:101B6C00E0F98E827583001205A0FF9000E6E0F08C
:101B7C00A3E06FF0E4FD9000E6E0FEA3E0FF30E0B0
:101B8C0019EEC313FEEF13FFEE64A0FEEF6401FF2A
:101B9C009000E6EEF0A3EFF0800B9000E6E0C313AC
:101BAC00F0A3E013F00DEDB408CC9000E8E004F0E5
:0A1BBC0080979000E6E0FEA3E0FF32
:011BC60022FC
:1010070078B57C007D017BFF7A2179BD7E007F0862
:1010170012056178BD7C007D017BFF7A2179C57E51
:10102700007F0812056178C57C007D017BFF7A216E
:1010370079CD7E007F0A120561E49000D0F0A3F01D
:101047009000CFF09000CFE0FFC39404505BEF25F2
:10105700E025E024D2F582E43400F583E0FCA3E048
:10106700FDA3E0FEA3E0FF1203A09000CFE0FD2563
:10107700E024B5F582E43400F583EEF0A3EFF0ED5C
:1010870025E024B5F582E43400F583E0FEA3E0FF14
:10109700ED25E024BDF582E43400F583EEF0A3EFFF
:1010A700F09000CFE004F0809BE49000CFF0900038
:1010B700CFE0FF25E024BDF582E43400F583A3E00B
:1010C700FEEF25E024C5F582E43400F583EEF090C9
:1010D70000CFE0FD25E024BDF582E43400F583E090
:1010E700FFED25E024C6F582E43400F583EFF090A8
:1010F70000CFE004F0E0B404B57B017A0079C57D48
:1011070008121B3E9000D0EEF0A3EFF09000D0E065
:10111700FEA3E09000CDF0EEA3F0E4A3F09000CFA3
:10112700E0FFC3940A501774C52FF582E43400F525
:0E11370083E0FF1223059000CFE004F080DF7C
:011145002287
:07213D004200F20000C106A0
:07232200C2B6C288C2A82266
:0F22A200D2B6122314122314C2B6D2A8C2062237
:101E4500E4FB900099120736000000003006389038
:101E550000F2E0FEA3E0FFE4FCFD90009912072AE2
:101E6500E47FFC7E03FDFC900099E0F8A3E0F9A374
:101E7500E0FAA3E0FB1205DF7BA07A867901780002
:0C1E850012066AAB0780037FFF22AF0348
:011E9100222E
:03000300021DF6E5
:101DF600C0E0C083C082C0D075D000C000C007302C
:101E0600B20C758A00758C00D28CC2068024C28CF6
:101E1600AF8C9000F2E4F0A3EFF0E0F8E4F0E89085
:101E260000F2F0AF8AA3E02FF09000F2E03400F069
:0F1E3600D206D007D000D0D0D082D083D0E032F7
:10207900438E805389F0758AE5758CF9C28DD28CAF
:1020890043D90443DA4243DB4275EAEC75FAEC754D
:0C209900EBEC75FBEC43A22043D8402286
:10216700EFC394064019EFD394205013ED7006EF98
:10217700F4F5EAF5FAEDB40106EFF4F5EBF5FB2219
:03000000021AB22F
:0C1AB200787FE4F6D8FD758120021AF957
:1000460002040CE86480F8E933E83360110460F0D8
:10005600ED33EC337009E8FCE9FDEAFEEBFF220420
:1000660060DED3EB9FEA9EE99DE8C2E78CF0C2F71B
:1000760095F0400CE8CCF8E9CDF9EACEFAEBCFFBE7
:100086001203D785D0F05804700320D5B3E8047066
:10009600075002B2D502041692D5EC0460F7E4CC00
:1000A600C0E0C398F8603B94186008400DD0E0FBB0
:1000B6000203EEE4FBFAC9FC8028E830E406E4C952
:1000C600FBE4CAFCE830E305E4C9CACBFCE8540704
:1000D6006010F8C3E913F9EA13FAEB13FBEC13FC0F
:1000E600D8F130F52FC3E49CFCEF9BFFEE9AFEEDB2
:1000F60099FDD0E0FBEF4E4D4C701222DB0302045B
:1001060013EC2CFCEF33FFEE33FEED33FDED30E761
:10011600EB0203EEEF2BFFEE3AFEED39FDD0E0FBEE
:1001260050130BBB0003020416ED13FDEE13FEEF96
:0801360013FFEC13FC0203EEC1
:10013E00EC4D6011E8497017ED33EC3304600DE4BB
:10014E00FCFFFEFD22E933E8330470F802040C12C2
:10015E0003D758046009E4CC2481500628500902C4
:10016E000416284003020413C0E0EB4A7044B98021
:10017E0006D0E0FB020402EF4E701CBD8008EBFFC0
:10018E00EAFEE9FD80EBE98DF0A4FEE5F002022720
:10019E00E9CDF9EAFEEBFFEF89F0A4FCE5F0CE899C
:1001AE00F0A42EFFE435F0CD89F0A42DFEE435F059
:1001BE008067EF4E7005BD80D780C3EF8BF0A4AC87
:1001CE00F0EE8BF0A42CFCE435F0F8EF8AF0A42CC2
:1001DE00E5F038FCE433CB8DF0A42CFCE5F03BF8D5
:1001EE00EE8AF0A42CFCE5F038F8E433CF89F0A4C5
:1001FE002CFCE5F038CF3400CE89F0A42FFFE5F0CB
:10020E003EFEE433C98DF0A42EFEE5F039CD8AF022
:10021E00A42FFFE5F03EFEE43DFD33D0E0FB50079A
:10022E000BBB000F020416EC2CFCEF33FFEE33FE7B
:06023E00ED33FD0203EEAA
:10024400020416EC5D046005E85904700302040C12
:100254001203D7580460F6EC4860F2EC7004FDFE1B
:10026400FF22C860DB2481C85009C398600250068D
:100274000204139850CAF582E9294B4A7005AB82EF
:1002840002040275F0007C1A7880C3EF9BEE9AEDAD
:1002940099400DC3EF9BFFEE9AFEED99FDE842F005
:1002A400DC23ACF0D0E0FFD0E0FED0E0FDAB822058
:1002B400E7101BEB60BAEC2CFCEF33FFEE33FEEDE2
:1002C40033FD0203EEE803F830E705C0F075F000F3
:1002D400EF2FFFEE33FEED33FD40B830E7C280AAC6
:1002E40074F8CC6480CCC86480C8F582046043C3CD
:1002F400EB9FF5F0EA9E42F0E99D42F0E89C45F060
:1003040060305018E5825FFFE582F42B5582FB5084
:10031400210ABA001D09B90019088016E5825BFBA1
:10032400E582F42F5582FF50090EBE00050DBD0075
:10033400010CC3EB9FF5F0EA9E42F0E99D42F0E820
:0D0344009C45F06007CC4820E701B3EC2297
:10035100ED33EC33600A047003BD8004ECB2E7FCBA
:010361002279
:1003620075F020800E75F010800575F0087D007E16
:10037200007F003392D530D5031206FCEC334010D7
:10038200EF33FFEE33FEED33FDEC33FCD5F0ED221F
:0E039200E5F0247EA2D513CC92E7CDCEFF225B
:1003A000EDD2E7CD33EC3392D524814006E4FFFE55
:1003B000FDFC22FCE4CFCECDCC24E0501174FF80B4
:1003C000EDC3CC13CCCD13CDCE13CECF13CF047051
:0703D000F030D5DE0206FC4F
:101F2500D20190009C12077E121F61C0E0FF1222B1
:101F350047D0E040F3121593400122ECC0E0EDC01C
:101F4500E0EEC0E0EFC0E0121F61D0F0AFF0D0F0DE
:101F5500AEF0D0F0ADF0D0F0ACF080D9E475F00182
:091F650090009C12076702058739
:1003D700E9D2E7C933E833F892D5EDD2E7CD33EC6C
:0703E70033FC5002B2D522E5
:1003EE00EC30E7100FBF000C0EBE00080DBD000470
:1003FE000BEB6014A2D5EB13FCED92E7FD2274FF1C
:10040E00FCFDFEFF22E480F8A2D574FF13FC7D8074
:03041E00E480EF88
:10158000C202C203C204C205F9E4F510F511FCFD64
:10159000FEFFE91001EA20040CB42D04D204D3228A
:1015A000B42B02D32224D0504794095041240A304E
:1015B0000515F88511F0740AA42872E74051C5F0AA
:1015C000704D85F011D322D203C0E0E4FBFA7920FC
:1015D000784112013EECF8EDF9EEFAEFFBD0E0FCB9
:1015E000E412036C12004D3002B41510D322240A09
:1015F000200520B4FE0720021AD202D32224EB6079
:101600000424E0700EA2049202D205C204D322C3C5
:1016100002040CE430050BE511300402F404A202CC
:1016200092043003EA251020D2E5A2E79205500289
:10163000F404B4260050D8CCC0E0EDC0E0EEC0E029
:10164000EFC0E0EC120451D0E0FFD0E0FED0E0FDAE
:10165000D0E0FC20050512013E8003120247300451
:0616600003120351C32236
:100421003F8000004120000042C80000447A0000E3
:10043100461C400047C35000497424004B18968065
:100441004CBEBC205A0E1BCA6753C21C749DC5AE5C
:10045100FB60065407601C232312047FEB543860B1
:100461000912046B12047A12013EECF8EDF9EEFA6E
:10047100EFCB22EB12047A80F1543803241C900450
:1004810021FE93FC0EEE93FD0EEE930ECE93FF2212
:101ABE00021E92E493A3F8E493A34003F68001F28E
:101ACE0008DFF48029E493A3F85407240CC8C33329
:101ADE00C4540F4420C8834004F456800146F6DFF8
:101AEE00E4800B010204081020408090211EE47E49
:101AFE00019360BCA3FF543F30E509541FFEE493ED
:101B0E00A360010ECF54C025E060A840B8E493A3B3
:101B1E00FAE493A3F8E493A3C8C582C8CAC583CADE
:101B2E00F0A3C8C582C8CAC583CADFE9DEE780BE96
:01214400009A
:10049100E709F608DFFA8046E709F208DFFA803E4D
:1004A10088828C83E709F0A3DFFA8032E309F6083A
:1004B100DFFA8078E309F208DFFA807088828C83A2
:1004C100E309F0A3DFFA806489828A83E0A3F60856
:1004D100DFFA805889828A83E0A3F208DFFA804C30
:1004E10080D280FA80C680D4806980F28033801007
:1004F10080A680EA809A80A880DA80E280CA803370
:1005010089828A83ECFAE493A3C8C582C8CCC583E7
:10051100CCF0A3C8C582C8CCC583CCDFE9DEE780B7
:100521000D89828A83E493A3F608DFF9ECFAA9F036
:10053100EDFB2289828A83ECFAE0A3C8C582C8CC8C
:10054100C583CCF0A3C8C582C8CCC583CCDFEADEA5
:10055100E880DB89828A83E493A3F208DFF980CC07
:1005610088F0EF60010E4E60C388F0ED2402B40400
:100571000050B9F582EB2402B4040050AF232345A7
:0605810082239004E173E7
:10058700BB010689828A83E0225002E722BBFE0272
:09059700E32289828A83E49322A5
:1005A000BB010CE58229F582E5833AF583E0225010
:1005B00006E92582F8E622BBFE06E92582F8E2225A
:0D05C000E58229F582E5833AF583E4932274
:1005CD00EF8DF0A4A8F0CF8CF0A428CE8DF0A42E42
:0205DD00FE22FC
:1005DF00E88FF0A4CC8BF0A42CFCE98EF0A42CFCBB
:1005EF008AF0EDA42CFCEA8EF0A4CDA8F08BF0A439
:1005FF002DCC3825F0FDE98FF0A42CCD35F0FCEB98
:10060F008EF0A4FEA9F0EB8FF0A4CFC5F02ECD395C
:0F061F00FEE43CFCEAA42DCE35F0FDE43CFC22C9
:10062E0075F008758200EF2FFFEE33FECD33CDCC83
:10063E0033CCC58233C5829BED9AEC99E582984006
:10064E000CF582EE9BFEED9AFDEC99FC0FD5F0D6E3
:10065E00E4CEFBE4CDFAE4CCF9A88222B800C1B90D
:10066E000059BA002DEC8BF084CFCECDFCE5F0CB4B
:10067E00F97818EF2FFFEE33FEED33FDEC33FCEB84
:10068E0033FB10D703994004EB99FB0FD8E5E4F93F
:10069E00FA227818EF2FFFEE33FEED33FDEC33FC2C
:1006AE00C933C910D7059BE99A4007EC9BFCE99A20
:1006BE00F90FD8E0E4C9FAE4CCFB2275F010EF2F65
:1006CE00FFEE33FEED33FDCC33CCC833C810D70765
:1006DE009BEC9AE899400AED9BFDEC9AFCE899F8A0
:0E06EE000FD5F0DAE4CDFBE4CCFAE4C8F92233
:101F6E00C2D5E830E70FB2D5E4C39BFBE49AFAE49E
:101F7E0099F9E498F8EC30E717B2D5121FA41206BF
:101F8E006AE4C39BFBE49AFAE499F9E498F88003B7
:101F9E0012066A30D50DE4C39FFFE49EFEE49DFD5C
:041FAE00E49CFC2291
:0E06FC00C3E49FFFE49EFEE49DFDE49CFC220F
:10070A00E493FC740193FD740293FE740393FF2235
:10071A00E493F8740193F9740293FA740393FB2235
:0C072A00ECF0A3EDF0A3EEF0A3EFF02242
:10073600A8828583F0D083D08212074D12074D120E
:10074600074D12074DE473E493A3C583C5F0C58333
:10075600C8C582C8F0A3C583C5F0C583C8C582C80D
:010766002270
:10076700F8E0FBA3A3E0F925F0F0E582158270021B
:070777001583E0FA38F022BF
:09077E00EBF0A3EAF0A3E9F0227C
:10078700D083D082F8E4937012740193700DA3A301
:1007970093F8740193F5828883E473740293686015
:0607A700EFA3A3A380DF15
:10224700EFC394094005EF940E4004EFB42003D385
:042257008001C3221D
:10223200E4FFFE120587600C0FEF70010E09E970D2
:05224200F20A80EF220A
:1016660090009CEBF0A3EAF0A3E9F090009CE0FB6D
:10167600A3E0FAA3E04A4B70159000EFE0F9A3E06F
:10168600FAA3E090009CC9F0A3EAF0A3E9F0900069
:101696009CE0FBA3E0FAA3E04A4B7004FBFAF922B4
:1016A60090009FE0F9A3E0FAA3E09000A5C9F0A39B
:1016B600EAF0A3E9F090009CE0FBA3E0FAA3E0F9CE
:1016C600121BC790009DEE8FF01207BF90009CE0A2
:1016D600FBA3E0FAA3E0F91205877012F99000EF78
:1016E600C9F0A3F0A3E9F07B007A0079002290000C
:1016F6009FE0F9A3E0FAA3E09000A5C9F0A3EAF001
:10170600A3E9F090009CE0FBA3E0FAA3E0F9121C29
:101716004B9000EFEBF0A3EAF0A3E9F04A4B601818
:101726009000EFE0FBA3E0FAA3E0F9E41207AD9026
:1017360000F075F0011207BF90009CE0FBA3E0FAF1
:04174600A3E0F92201
:1007AD00BB010689828A83F0225002F722BBFE012B
:0207BD00F32225
:1007BF00C5F0F8A3E028F0C5F0F8E58215827002C5
:0607CF001583E038F02262
:101BC7009000A2EBF0A3EAF0A3E9F0E49000A8F0FC
:101BD700A3F0E4FEFF9000A5E0FBA3E0FAA3E0F981
:101BE7008F828E831205A0FD60189000A2E0FBA3F0
:101BF700E0FAA3E0F91205876D60070FBF00010E39
:101C070080D39000A5E0FBA3E0FAA3E0F98F828ED2
:101C1700831205A0700280239000A9E004F07006EB
:101C27009000A8E004F09000A2E0FBA3E475F001A7
:101C37001207BFA9F0FA12058770979000A8E0FE77
:041C4700A3E0FF22F5
:101C4B009000A2EBF0A3EAF0A3E9F09000A5E0F975
:101C5B00A3E0FAA3E0A3C9F0A3EAF0A3E9F0900094
:101C6B00A8E0FBA3E0FAA3E0F9120587FF601D9043
:101C7B0000A2E0FBA3E0FAA3E0F91205876F600C6A
:101C8B009000A9E475F0011207BF80D29000A8E084
:101C9B00FBA3E0FAA3E0F9120587600C9000A2E029
:101CAB00FBA3E0FAA3E0F9229000A2E0FBA3E4750A
:101CBB00F0011207D5A9F0FA120587708EFBFAF91D
:011CCB0022F6
:1007D500A3F8E0C5F025F0F0E582158270021583D7
:0607E500E0C838F0E82234
:00000001FF
