:03001B000210F5DB
:1010F500C0E0C0F0C083C082C0D075D000C000C0C1
:1011050001C002C003C004C005C006C0071212AE6C
:10111500120ADB120CCA900009E004F0E0C3940A3D
:10112500400812084C900009E4F012065790000898
:10113500E004F0E0C3947D4004E4F0B2C4D007D0ED
:1011450006D005D004D003D002D001D000D0D0D035
:0811550082D083D0F0D0E0321B
:03000B0002140DCF
:01140D0032AC
:10122000C2AF539738121367121269120E3D7FE84E
:101230007E031212FDC2C47FB87E0B1212FDD2AF24
:05124000120D9480FB7B
:10138A00447A000041C80000434800003DA3D70A40
:1013670012124512134112108012135412139A02CB
:0213770013FA67
:100E3D00E490004BF0A3F090001AF0A3F090003670
:100E4D00F0A3F0900046F0A3F0900049F0A3F090CD
:100E5D0000281205580000000090001612055800D9
:100E6D0000000090001C12055800000000900020AA
:100E7D0012055800000000900004120558000000F3
:100E8D00009000121205580000000090002E12056F
:100E9D00580000000090002412055800000000903A
:100EAD0000001205580000000090000A12055800BD
:100EBD0000000090000E1205580000000090004246
:100ECD0012055800000000E4900008F0900032F088
:030EDD00A3F0225D
:0511A10090007EEFF05C
:1011A6001211CF7808A60790007EE004FF1211CF37
:1011B6007809EFF6FD18E6FF3395E0EFFEED33957F
:0811C600E0FCE42DFFEE3CFE0D
:0111CE0022FE
:1012AE007F431211A190004BEEF0A3EFF07F3D12A1
:0B12BE0011A190001AEEF0A3EFF02247
:100F6C00E4900093F0A3F090008FE0F8A3E0F9A3D5
:100F7C00E0FAA3E0FBC000C001C002C0037F431233
:100F8C0011A1EE3395E0FDFCD003D002D001D000CE
:100F9C00EB2FFFEA3EFEE93DFDE83CFC90008F1292
:100FAC00054C900094E004F07006900093E004F07F
:100FBC00C3900094E094C8900093E06480948040C7
:100FCC00A6E47BC8FAF9F890008FE0FCA3E0FDA33F
:100FDC00E0FEA3E0FF12115D90002CEEF0A3EFF009
:0A0FEC0090008F120558000000006D
:010FF60022D8
:100BEB00120378900086EEF0A3EFF0900082E0FC09
:100BFB00A3E0FDA3E0FEA3E0FF120378AB07AA0678
:100C0B00C3900086E064809480503BE0FEA3E0FF3D
:100C1B007CFF7DFF12051C900086EEF0A3EFF0C366
:100C2B0074209FF0744E9E900086F090FF10744ECF
:100C3B00F0A37420F0900086E0FFA3E090FF00CFBC
:100C4B00F0A3EFF0802A900086E0FEA3E0FFC374D0
:100C5B00209FFF744E9EFE900086F0A3EFF090FF56
:100C6B0010EEF0A3EFF090FF00744EF0A37420F0A1
:100C7B00C3EA64809480502B7CFF7DFFAF03AE02F0
:100C8B0012051CAA06AB07C374209BFB744E9AFA81
:100C9B0090FF20744EF0A37420F090FF30EAF0A385
:100CAB00EBF022C374209BFB744E9AAF0390FF2092
:0E0CBB00F0A3EFF090FF30744EF0A37420F021
:010CC9002208
:1006570090002EE0F8A3E0F9A3E0FAA3E0FB9000F6
:1006670024E0FCA3E0FDA3E0FEA3E0FF120021903D
:10067700000EE0F8A3E0F9A3E0FAA3E0FB120025DF
:1006870090000A12054C90002EE0F8A3E0F9A3E0D1
:10069700FAA3E0FB900024E0FCA3E0FDA3E0FEA3A7
:1006A700E0FF12002190000EE0F8A3E0F9A3E0FAC2
:1006B700A3E0FB12002190000012054CE4FFFEFDB1
:1006C700FC90000AE0F8A3E0F9A3E0FAA3E0FB122C
:1006D70002BC601A401890000AE0FCA3E0FDA3E00A
:1006E700FEA3E0FFE4FBFAF9F8120025802EE4FFF1
:1006F700FEFDFC90000AE0F8A3E0F9A3E0FAA3E00E
:10070700FB1202BC501C90000AE0FCA3E0FDA3E032
:10071700FEA3E0FFE4FBFAF9F812002190000A12A9
:10072700054CE4FFFEFDFC900000E0F8A3E0F9A310
:10073700E0FAA3E0FB1202BC601A4018900000E048
:10074700FCA3E0FDA3E0FEA3E0FFE4FBFAF9F81247
:100757000025802EE4FFFEFDFC900000E0F8A3E0FA
:10076700F9A3E0FAA3E0FB1202BC501C900000E0E2
:10077700FCA3E0FDA3E0FEA3E0FFE4FBFAF9F81217
:10078700002190000012054C7F007E407D9C7C4636
:1007970090000AE0F8A3E0F9A3E0FAA3E0FB120255
:1007A700BC600C400A90000A120558469C40007F26
:1007B700007E407D9C7CC690000AE0F8A3E0F9A388
:1007C700E0FAA3E0FB1202BC500A90000A12055897
:1007D700C69C40007F007E407D9C7C46900000E0E8
:1007E700F8A3E0F9A3E0FAA3E0FB1202BC600C4017
:1007F7000A900000120558469C40007F007E407D0D
:100807009C7CC6900000E0F8A3E0F9A3E0FAA3E01F
:10081700FB1202BC500A900000120558C69C40000B
:10082700900000E0FCA3E0FDA3E0FEA3E0FF900042
:100837008212054C90000AE0FCA3E0FDA3E0FEA3B2
:05084700E0FF020BEBD5
:100CCA00AFD2EFFEADD37C00E42DFFEC3E900036B0
:100CDA00F0A3EFF0AFD4EFFEADD5E42DFFEC3E90DC
:100CEA000046F0A3EFF053D177E4F5D3F5D2F5D56A
:100CFA00F5D443D1CC90000AE0FCA3E0FDA3E0FECA
:100D0A00A3E0FF120378D3EF9400EE64809480404E
:100D1A0003D38001C34014900046E0FEA3E0FFE441
:100D2A009FFFE49E900046F0A3EFF0900000E0FCE5
:100D3A00A3E0FDA3E0FEA3E0FF120378D3EF940043
:100D4A00EE648094804003D38001C340149000363F
:100D5A00E0FEA3E0FFE49FFFE49E900036F0A3EFDD
:100D6A00F0900046E0FEA3E0FF900039E02FF090FB
:100D7A000038E03EF0900036E0FEA3E0FF90003538
:0A0D8A00E02FF0900034E03EF0226C
:10084C00900034E0FEA3E0FF900039E02FFD900013
:10085C0038E03EFC12033FE4FBFAF9783F12011634
:10086C0090002812054CE4900034F0A3F09000386E
:10087C00F0A3F07FCD7ECC7D4C7C3F900028E0F83F
:10088C00A3E0F9A3E0FAA3E0FB120116C004C00533
:10089C00C006C0077FCD7ECC7D4C7C3E90003AE0FC
:1008AC00F8A3E0F9A3E0FAA3E0FB120116D003D001
:1008BC0002D001D00012002590002812054C9000A7
:1008CC0028E0FCA3E0FDA3E0FEA3E0FF90003A12B9
:1008DC00054C900016E0FCA3E0FDA3E0FEA3E0FFB6
:1008EC00900028E0F8A3E0F9A3E0FAA3E0FB1200E3
:1008FC002590001612054C900016E0FCA3E0FDA319
:10090C00E0FEA3E0FF120378D3EF9420EE64809412
:10091C00CE400A900016120558469C4000900016D6
:10092C00E0FCA3E0FDA3E0FEA3E0FF120378C3EF1D
:10093C0094E0EE64809431500A900016120558C66B
:10094C009C4000900016E0FCA3E0FDA3E0FEA3E0B9
:10095C00FF12032990139612053C120116C004C015
:10096C0005C006C007900028E0FCA3E0FDA3E0FE54
:10097C00A3E0FF12032990139212053C120116D02A
:10098C0003D002D001D00012002590002E02054C9D
:100ADB0090001BE024D0FD90001AE03407FC1203B9
:100AEB003FE4FBFA7980784612021F90000412054E
:100AFB004C900004E0FCA3E0FDA3E0FEA3E0FF7B31
:100B0B00E17A2E7965784212011690000412054C99
:100B1B0090004BE0FCA3E0FDEC12033FE4FBFA7901
:100B2B00C0784112021F90002012054C7F6F7E127D
:100B3B007D037C3C900020E0F8A3E0F9A3E0FAA34E
:100B4B00E0FB12011690001CE0F8A3E0F9A3E0FA19
:100B5B00A3E0FB1200257BA47A70797D783F12010C
:100B6B0016C004C005C006C0077F0A7ED77D237C54
:100B7B003C900004E0F8A3E0F9A3E0FAA3E0FB1239
:100B8B000116D003D002D001D00012002590001C1A
:100B9B0012054C900020E0FCA3E0FDA3E0FEA3E0D7
:100BAB00FF12032990138E12053C120116C004C0CC
:100BBB0005C006C00790001CE0FCA3E0FDA3E0FE0F
:100BCB00A3E0FF12032990138A12053C120116D0E1
:100BDB0003D002D001D00012002590002402054C56
:100D9400B2C41213D3EF14B408004003020E21901E
:100DA4000DB175F003A4C58325F0C58373020DD47A
:100DB400020DC9020DDF020DEA020DF5020E00025A
:100DC4000E0B020E169000497405F0A374DCF02299
:100DD40090004974FAF0A37424F02290000E1205D6
:100DE40058459C40002290000E120558C59C4000B6
:100DF4002290004212055843020000229000421241
:100E04000558C30200002290000E120558466A607D
:100E1400002290000E120558C66A6000229000421B
:100E24001205580000000090000E12055800000042
:080E340000E4900049F0A3F076
:010E3C002293
:0813E9007F147E71DEFEDFFCC3
:0113F10022D9
:0412FD00AD07AC0687
:10130100E4FBFAC3EB9DEA9C500A1213E90BBB0004
:04131100010A80EF5E
:0113150022B5
:10124500E4F594F593F592F591F596F595F5B2F5E6
:10125500B1F5B4F5B3F5CAF5C975960EF59575B240
:0412650080F5B1223D
:1010800043BA80E4F5F190FFF2F0F5F6F5F790FF42
:10109000F0744EF0A37421F090FF00744EF0A3742E
:1010A00020F0A3744EF0A37421F090FF10744EF062
:1010B000A37420F0A3744EF0A37421F090FF207469
:1010C0004EF0A37420F0A3744EF0A37421F090FFAF
:1010D00030744EF0A37420F0A3744EF0A37421F08A
:1010E00090FF04E4F090FF14F090FF24F090FF34A0
:0510F000F075F58F22F0
:1012C90075D90443A220E4F5F2F5F3F5E9F5F9F54A
:0A12D900EAF5FAF5EBF5FBD2DE2290
:10137900538E7FE4F589758A95758CFFC28DD28C61
:011389002241
:10134100538EBF53890F758BEB758DCBC28FD28EA8
:03135100D2AB22FA
:0713FA0043D1CC53AF1F22C9
:10135400759850438E0475D7D575D6FF438E0143D7
:031364008E1022C6
:10139A00759A50438E0475D7D575D6FF438E1022A1
:070003003098FDC298AF998F
:01000A0022D3
:0A13D300E59A30E0FB539AFEAF9B51
:0113DD0022ED
:0813F2008F993099FDC2992288
:0B13DE008F9BE59A30E1FB539AFD2243
:0614010000007F16DFFE73
:0114070022C2
:0F13AA00D2C5D2C6121401C2C5121401C2C62286
:0C13C700C2C5D2C6121401D2C502140126
:0E13B900A20092C5D2C6121401C2C6021401CF
:0D000E00D2C6121401A2C5C2C612140122EE
:02128C00AE07AB
:10128E00E4780CF6EE25E0FE92C5D2C6121401C229
:10129E00C6121401780C06E6C3940840E702000E4D
:1011F800E4FED2C5FDFCEE25E0FED2C6121401A223
:10120800C5E4334EFEC2C61214010DBD00010CED3B
:0712180064084C70E1AF0611
:01121F0022AC
:10131600AC071213AA7FD012128CAF0412128CAF34
:071326000512128C0213C72F
:0211CF00AD076A
:1011D1001213AA7FD012128CAF0512128C1213AA0D
:1011E1007FD112128C1211F8780AA607D2001213BD
:0611F100B91213C7E6FF6E
:0111F70022D5
:05140800C2C4C2C422B1
:10126900E4FD7F6B1213167D077F191213167D0497
:101279007F1A1213167D187F1B1213167D017F1C0E
:0312890002131637
:1012E30000000000000000000000000000000000FB
:0A12F30000000000000000000000F1
:10132D0050006E00000000000000000000000000F2
:03133D00000000AD
:0E0FF700900088EBF0A3EAF0A3E9F0A3EDF080
:1010050074FFA3F0A3F0E4A3F090008BE0FF900041
:101015008EE0FEC39F505B900088E0FBA3E0FAA33F
:10102500E0F98E827583001204EFFF90008CE0F0EA
:10103500A3E06FF0E4FD90008CE0FEA3E0FF30E05C
:1010450019EEC313FEEF13FFEE64A0FEEF6401FF7C
:1010550090008CEEF0A3EFF0800B90008CE0C313B2
:10106500F0A3E013F00DEDB408CC90008EE004F091
:0A107500809790008CE0FEA3E0FFDE
:01107F00224E
:10099C0078517C007D017BFF7A1279E37E007F0821
:1009AC001204C978597C007D017BFF7A1279EB7EA9
:1009BC00007F081204C978617C007D017BFF7A12EC
:1009CC0079F37E007F0A1204C9E490006CF0A3F066
:1009DC0090006BF090006BE0FFC39404505BEF252C
:1009EC00E025E0246EF582E43400F583E0FCA3E01E
:1009FC00FDA3E0FEA3E0FF12037890006BE0FD2561
:100A0C00E02451F582E43400F583EEF0A3EFF0ED31
:100A1C0025E02451F582E43400F583E0FEA3E0FFE9
:100A2C00ED25E02459F582E43400F583EEF0A3EFD4
:100A3C00F090006BE004F0809BE490006BF0900071
:100A4C006BE0FF25E02459F582E43400F583A3E044
:100A5C00FEEF25E02461F582E43400F583EEF0909E
:100A6C00006BE0FD25E02459F582E43400F583E0C9
:100A7C00FFED25E02462F582E43400F583EFF0907D
:100A8C00006BE004F0E0B404B57B017A0079617D81
:100A9C0008120FF790006CEEF0A3EFF090006CE0F2
:100AAC00FEA3E0900069F0EEA3F0E4A3F090006BDD
:100ABC00E0FFC3940A501774612FF582E43400F5FB
:0E0ACC0083E0FF1213F290006BE004F080DF75
:010ADA0022F9
:03000000020EE00D
:0C0EE000787FE4F6D8FD758120020F2712
:10001E000203E4E86480F8E933E83360110460F029
:10002E00ED33EC337009E8FCE9FDEAFEEBFF220448
:10003E0060DED3EB9FEA9EE99DE8C2E78CF0C2F743
:10004E0095F0400CE8CCF8E9CDF9EACEFAEBCFFB0F
:10005E001203AF85D0F05804700320D5B3E80470B6
:10006E00075002B2D50203EE92D5EC0460F7E4CC51
:10007E00C0E0C398F8603B94186008400DD0E0FBD8
:10008E000203C6E4FBFAC9FC8028E830E406E4C9A2
:10009E00FBE4CAFCE830E305E4C9CACBFCE854072C
:1000AE006010F8C3E913F9EA13FAEB13FBEC13FC37
:1000BE00D8F130F52FC3E49CFCEF9BFFEE9AFEEDDA
:1000CE0099FDD0E0FBEF4E4D4C701222DB03020384
:1000DE00EBEC2CFCEF33FFEE33FEED33FDED30E7B2
:1000EE00EB0203C6EF2BFFEE3AFEED39FDD0E0FB3F
:1000FE0050130BBB00030203EEED13FDEE13FEEFE8
:08010E0013FFEC13FC0203C611
:10011600EC4D6011E8497017ED33EC3304600DE4E3
:10012600FCFFFEFD22E933E8330470F80203E41213
:1001360003AF58046009E4CC248150062850090214
:1001460003EE2840030203EBC0E0EB4A7044B9809B
:1001560006D0E0FB0203DAEF4E701CBD8008EBFF11
:10016600EAFEE9FD80EBE98DF0A4FEE5F00201FF71
:10017600E9CDF9EAFEEBFFEF89F0A4FCE5F0CE89C4
:10018600F0A42EFFE435F0CD89F0A42DFEE435F081
:100196008067EF4E7005BD80D780C3EF8BF0A4ACAF
:1001A600F0EE8BF0A42CFCE435F0F8EF8AF0A42CEA
:1001B600E5F038FCE433CB8DF0A42CFCE5F03BF8FD
:1001C600EE8AF0A42CFCE5F038F8E433CF89F0A4ED
:1001D6002CFCE5F038CF3400CE89F0A42FFFE5F0F3
:1001E6003EFEE433C98DF0A42EFEE5F039CD8AF04B
:1001F600A42FFFE5F03EFEE43DFD33D0E0FB5007C3
:100206000BBB000F0203EEEC2CFCEF33FFEE33FECC
:06021600ED33FD0203C6FA
:10021C000203EEEC5D046005E8590470030203E48C
:10022C001203AF580460F6EC4860F2EC7004FDFE6B
:10023C00FF22C860DB2481C85009C39860025006B5
:10024C000203EB9850CAF582E9294B4A7005AB8240
:10025C000203DA75F0007C1A7880C3EF9BEE9AEDFE
:10026C0099400DC3EF9BFFEE9AFEED99FDE842F02D
:10027C00DC23ACF0D0E0FFD0E0FED0E0FDAB822080
:10028C00E7101BEB60BAEC2CFCEF33FFEE33FEED0A
:10029C0033FD0203C6E803F830E705C0F075F00043
:1002AC00EF2FFFEE33FEED33FD40B830E7C280AAEE
:1002BC0074F8CC6480CCC86480C8F582046043C3F5
:1002CC00EB9FF5F0EA9E42F0E99D42F0E89C45F088
:1002DC0060305018E5825FFFE582F42B5582FB50AD
:1002EC00210ABA001D09B90019088016E5825BFBCA
:1002FC00E582F42F5582FF50090EBE00050DBD009E
:10030C00010CC3EB9FF5F0EA9E42F0E99D42F0E848
:0D031C009C45F06007CC4820E701B3EC22BF
:10032900ED33EC33600A047003BD8004ECB2E7FCE2
:0103390022A1
:10033A0075F020800E75F010800575F0087D007E3E
:10034A00007F003392D530D50312052EEC334010CE
:10035A00EF33FFEE33FEED33FDEC33FCD5F0ED2247
:0E036A00E5F0247EA2D513CC92E7CDCEFF2283
:10037800EDD2E7CD33EC3392D524814006E4FFFE7D
:10038800FDFC22FCE4CFCECDCC24E0501174FF80DC
:10039800EDC3CC13CCCD13CDCE13CECF13CF047079
:0703A800F030D5DE02052E46
:1003AF00E9D2E7C933E833F892D5EDD2E7CD33EC94
:0703BF0033FC5002B2D5220D
:1003C600EC30E7100FBF000C0EBE00080DBD000498
:1003D6000BEB6014A2D5EB13FCED92E7FD2274FF44
:1003E600FCFDFEFF22E480F8A2D574FF13FC7D809D
:0303F600E480EFB1
:100EEC00021220E493A3F8E493A34003F68001F2EA
:100EFC0008DFF48029E493A3F85407240CC8C33307
:100F0C00C4540F4420C8834004F456800146F6DFD5
:100F1C00E4800B010204081020408090132DE47E25
:100F2C00019360BCA3FF543F30E509541FFEE493CA
:100F3C00A360010ECF54C025E060A840B8E493A391
:100F4C00FAE493A3F8E493A3C8C582C8CAC583CABC
:100F5C00F0A3C8C582C8CAC583CADFE9DEE780BE74
:0113400000AC
:1003F900E709F608DFFA8046E709F208DFFA803EE6
:1004090088828C83E709F0A3DFFA8032E309F608D2
:10041900DFFA8078E309F208DFFA807088828C833A
:10042900E309F0A3DFFA806489828A83E0A3F608EE
:10043900DFFA805889828A83E0A3F208DFFA804CC8
:1004490080D280FA80C680D4806980F2803380109F
:1004590080A680EA809A80A880DA80E280CA803308
:1004690089828A83ECFAE493A3C8C582C8CCC58380
:10047900CCF0A3C8C582C8CCC583CCDFE9DEE78050
:100489000D89828A83E493A3F608DFF9ECFAA9F0CF
:10049900EDFB2289828A83ECFAE0A3C8C582C8CC25
:1004A900C583CCF0A3C8C582C8CCC583CCDFEADE3E
:1004B900E880DB89828A83E493A3F208DFF980CCA0
:1004C90088F0EF60010E4E60C388F0ED2402B40499
:1004D9000050B9F582EB2402B4040050AF23234540
:0604E90082239004497318
:1004EF00BB010CE58229F582E5833AF583E02250C2
:1004FF0006E92582F8E622BBFE06E92582F8E2220C
:0D050F00E58229F582E5833AF583E4932225
:10051C00EF8DF0A4A8F0CF8CF0A428CE8DF0A42EF3
:02052C00FE22AD
:10115D00C2D5E830E70FB2D5E4C39BFBE49AFAE4BD
:10116D0099F9E498F8EC30E717B2D51211931205FE
:10117D00C5E4C39BFBE49AFAE499F9E498F880037B
:10118D001205C530D50DE4C39FFFE49EFEE49DFD21
:04119D00E49CFC22B0
:0E052E00C3E49FFFE49EFEE49DFDE49CFC22DE
:10053C00E493F8740193F9740293FA740393FB2215
:0C054C00ECF0A3EDF0A3EEF0A3EFF02222
:10055800A8828583F0D083D08212056F12056F12AE
:10056800056F12056FE473E493A3C583C5F0C583D3
:10057800C8C582C8F0A3C583C5F0C583C8C582C8ED
:010588002250
:1005890075F008758200EF2FFFEE33FECD33CDCC29
:1005990033CCC58233C5829BED9AEC99E5829840AC
:1005A9000CF582EE9BFEED9AFDEC99FC0FD5F0D689
:1005B900E4CEFBE4CDFAE4CCF9A88222B800C1B9B3
:1005C9000059BA002DEC8BF084CFCECDFCE5F0CBF1
:1005D900F97818EF2FFFEE33FEED33FDEC33FCEB2A
:1005E90033FB10D703994004EB99FB0FD8E5E4F9E5
:1005F900FA227818EF2FFFEE33FEED33FDEC33FCD2
:10060900C933C910D7059BE99A4007EC9BFCE99AC5
:10061900F90FD8E0E4C9FAE4CCFB2275F010EF2F0A
:10062900FFEE33FEED33FDCC33CCC833C810D7070A
:100639009BEC9AE899400AED9BFDEC9AFCE899F845
:0E0649000FD5F0DAE4CDFBE4CCFAE4C8F922D8
:00000001FF
