:03001B0002116C63
:10116C00C0E0C0F0C083C082C0D075D000C000C049
:10117C0001C002C003C004C005C006C0071213564C
:10118C00120B71120E4290000DE004F0E0C3940AB1
:10119C00400B1212CB12087490000DE4F01206559D
:1011AC0090000CE004F0E0C3947D4004E4F0B2B78E
:1011BC00D007D006D005D004D003D002D001D00087
:0B11CC00D0D0D082D083D0F0D0E03231
:03000B0002154E8D
:01154E00326A
:1011D700C2AF5397381214B81213A6120F0C7FC858
:1011E7007E0012143AC2B7D2AF120C8B900020E0E7
:1011F700FCA3E0FDA3E0FEA3E0FF90008712054AF1
:10120700900024E0FCA3E0FDA3E0FEA3E0FF900034
:101217008B12054A900008E0FCA3E0FDA3E0FEA3C3
:10122700E0FF90008F12054A900093120556423452
:071237000000120A3280B230
:10146A0042B4000040400000414000003FB3333323
:04147A0040A000008E
:1014B8001213EB12149212123E1214A51214DB022C
:0214C800153BD2
:100F0C00E490004FF0A3F090001EF0A3F090003A94
:100F1C00F0A3F090004AF0A3F0900038F0A3F0900A
:100F2C00003CF0A3F090004DF0A3F090004DF0A326
:100F3C00F090002C1205560000000090003E1205A7
:100F4C00560000000090001A120556000000009098
:100F5C0000201205560000000090002412055600D7
:100F6C0000000090000812055600000000900016CA
:100F7C0012055600000000900032120556000000C9
:100F8C000090002812055600000000900000120589
:100F9C00560000000090000E120556000000009054
:100FAC000012120556000000009000461205560073
:0F0FBC00000000E490000CF0900036F0A3F0224B
:0512FF00900057EFF024
:1013040012132D7808A607900057E004FF12132D3E
:101314007809EFF6FD18E6FF3395E0EFFEED33951F
:08132400E0FCE42DFFEE3CFEAD
:01132C00229E
:101356007F451212FF90004FEEF0A3EFF07F3B1295
:1013660012FF90001EEEF0A3EFF07F471212FF90DF
:081376000051EEF0A3EFF0229C
:100FCB00E490009BF0A3F0900097E0F8A3E0F9A366
:100FDB00E0FAA3E0FBC000C001C002C0037F4512D2
:100FEB0012FFEE3395E0FDFCD003D002D001D00010
:100FFB00EB2FFFEA3EFEE93DFDE83CFC900097122B
:10100B00054A90009CE004F0700690009BE004F011
:10101B00C390009CE094F490009BE064809481402A
:10102B00A6E47BF47A01F9F8900097E0FCA3E0FDCD
:10103B00A3E0FEA3E0FF121287900030EEF0A3EFC7
:0B104B00F09000971205560000000016
:011056002277
:100D7600C3EE64809480500FD2A0C2C4C3E49FFF28
:100D8600E49E9000578008C2A0D2C4900057EEF0AF
:100D9600A3EFF0C3EC648094805013D2C3C2C2C3E5
:100DA600E49DFEE49C900059F0A3CEF0800EC2C3F1
:100DB600D2C2AF05900059ECF0A3EFF0900057E0D7
:100DC600FEA3E0FFC374E89FFF74039EFE900057E6
:100DD600F0A3EFF0A3E0FCA3E0FDC374E89DF0747C
:100DE600039C900059F090FF10EEF0A3EFF09000F6
:100DF60059E0FFA3E090FF20CFF0A3EFF0E4FFFE61
:100E06007DF07C41900020E0F8A3E0F9A3E0FAA38E
:100E1600E0FB1202BC6002501AE4FFFE7DF07CC1CA
:100E2600900020E0F8A3E0F9A3E0FAA3E0FB1202A9
:0B0E3600BC5008C2A0C2C4C2C3C2C2AC
:010E4100228E
:10065500900032E0F8A3E0F9A3E0FAA3E0FB9000F4
:1006650028E0FCA3E0FDA3E0FEA3E0FF120021903B
:100675000012E0F8A3E0F9A3E0FAA3E0FB120025DD
:10068500900004E0F8A3E0F9A3E0FAA3E0FB120070
:100695002590000E12054A900032E0F8A3E0F9A378
:1006A500E0FAA3E0FB900028E0FCA3E0FDA3E0FE58
:1006B500A3E0FF120021900012E0F8A3E0F9A3E007
:1006C500FAA3E0FB120021900004E0F8A3E0F9A3EF
:1006D500E0FAA3E0FB12002190000012054AE4FFB6
:1006E500FEFDFC90000EE0F8A3E0F9A3E0FAA3E01C
:1006F500FB1202BC601A401890000EE0FCA3E0FD5E
:10070500A3E0FEA3E0FFE4FBFAF9F8120025802E32
:10071500E4FFFEFDFC90000EE0F8A3E0F9A3E0FA8B
:10072500A3E0FB1202BC501C90000EE0FCA3E0FD10
:10073500A3E0FEA3E0FFE4FBFAF9F8120021900024
:100745000E12054AE4FFFEFDFC900000E0F8A3E070
:10075500F9A3E0FAA3E0FB1202BC601A401890006E
:1007650000E0FCA3E0FDA3E0FEA3E0FFE4FBFAF953
:10077500F8120025802EE4FFFEFDFC900000E0F855
:10078500A3E0F9A3E0FAA3E0FB1202BC501C900021
:1007950000E0FCA3E0FDA3E0FEA3E0FFE4FBFAF923
:1007A500F812002190000012054AE4FFFE7D7A7CD4
:1007B5004490000EE0F8A3E0F9A3E0FAA3E0FB12F1
:1007C50002BC600C400A90000E120556447A0000E7
:1007D500E4FFFE7D7A7CC490000EE0F8A3E0F9A367
:1007E500E0FAA3E0FB1202BC500A90000E12055677
:1007F500C47A0000E4FFFE7D7A7C44900000E0F8B6
:10080500A3E0F9A3E0FAA3E0FB1202BC600C400AE6
:10081500900000120556447A0000E4FFFE7D7A7CC4
:10082500C4900000E0F8A3E0F9A3E0FAA3E0FB120E
:1008350002BC500A900000120556C47A00009000D0
:100845000EE0FCA3E0FDA3E0FEA3E0FF120378C0E9
:1008550006C007900000E0FCA3E0FDA3E0FEA3E0D6
:0F086500FF120378AD07AC06D007D006020D7660
:100E4200AFD2EFFEADD37C00E42DFFEC3E90003A32
:100E5200F0A3EFF0AFD4EFFEADD5E42DFFEC3E9062
:100E6200004AF0A3EFF053D177E4F5D3F5D2F5D5EC
:100E7200F5D443D1CC90000EE0FCA3E0FDA3E0FE4C
:100E8200A3E0FF120378D3EF9400EE6480948040D5
:100E920003D38001C3401490004AE0FEA3E0FFE4C4
:100EA2009FFFE49E90004AF0A3EFF0900000E0FC68
:100EB200A3E0FDA3E0FEA3E0FF120378D3EF9400CA
:100EC200EE648094804003D38001C3401490003AC2
:100ED200E0FEA3E0FFE49FFFE49E90003AF0A3EF60
:100EE200F090004AE0FEA3E0FF90003DE02FF0907A
:100EF200003CE03EF090003AE0FEA3E0FF900039B3
:0A0F0200E02FF0900038E03EF022EE
:10087400900038E0FEA3E0FF90003DE02FFD9000E3
:100884003CE03EFC12033FE4FBFAF9783F12011608
:1008940090002C12054AE4900038F0A3F090003C3C
:1008A400F0A3F07FCD7ECC7D4C7C3F90002CE0F813
:1008B400A3E0F9A3E0FAA3E0FB120116C004C0050B
:1008C400C006C0077FCD7ECC7D4C7C3E90003EE0D0
:1008D400F8A3E0F9A3E0FAA3E0FB120116D003D0D9
:1008E40002D001D00012002590002C12054A90007D
:1008F4002CE0FCA3E0FDA3E0FEA3E0FF90003E1289
:10090400054A90004DE0FCA3E0FDEC12033F90008B
:100914005B12054A90005BE0FCA3E0FDA3E0FEA3AC
:10092400E0FF90002CE0F8A3E0F9A3E0FAA3E0FBD9
:1009340012002190005B12054A90147212052A904D
:10094400005BE0F8A3E0F9A3E0FAA3E0FB120116D0
:1009540090005712054A90147612052A90005BE025
:10096400F8A3E0F9A3E0FAA3E0FB12011690005FFC
:1009740012054A90001AE0FCA3E0FDA3E0FEA3E008
:10098400FF90005FE0F8A3E0F9A3E0FAA3E0FB1214
:10099400002590001A12054A90001AE0FCA3E0FD1D
:1009A400A3E0FEA3E0FF120378D3EF94E8EE6480A3
:1009B4009483400A90001A120556447A000090006D
:1009C4001AE0FCA3E0FDA3E0FEA3E0FF120378C35A
:1009D400EF9418EE6480947C500A90001A12055625
:1009E400C47A000090001AE0FCA3E0FDA3E0FEA39B
:1009F400E0FF900046E0F8A3E0F9A3E0FAA3E0FBEF
:100A040012002590001A12054A90001AE0FCA3E097
:100A1400FDA3E0FEA3E0FF900057E0F8A3E0F9A3F4
:0E0A2400E0FAA3E0FB12002590003202054A22
:100B710090001FE02430FD90001EE034F8FC1203C9
:100B81003FE4FBFA7980784612021F9000081205B3
:100B91004A900008E0FCA3E0FDA3E0FEA3E0FF7B98
:100BA100E17A2E7965784212011690000812054A01
:100BB10090004FE0FCA3E0FDEC12033FE4FBFA7967
:100BC100F4784112021FE4FBFA798078BF12011612
:100BD10090002412054A7F6F7E127D037C3C9000B9
:100BE10024E0F8A3E0F9A3E0FAA3E0FB12011690D8
:100BF1000020E0F8A3E0F9A3E0FAA3E0FB1200254E
:100C01007BA47A70797D783F120116C004C005C0BB
:100C110006C0077F0A7ED77D237C3C900008E0F860
:100C2100A3E0F9A3E0FAA3E0FB120116D003D0027E
:100C3100D001D00012002590002012054A90002416
:100C4100E0FCA3E0FDA3E0FEA3E0FF120329901462
:100C51006E12053A120116C004C005C006C0079005
:100C61000020E0FCA3E0FDA3E0FEA3E0FF120329C6
:100C710090146A12053A120116D003D002D001D0A5
:0A0C81000012002590002802054A29
:100C8B00121514EF14B40D004003020D5A900CA66C
:100C9B0075F003A4C58325F0C58373020CD8020C31
:100CAB00CD020D0F020D1A020D25020D2F020D3A6A
:100CBB00020D45020CE3020CEE020CF9020D0402CC
:100CCB000D5090004612055642200000229000461F
:100CDB00120556C2200000229000461205564270A3
:100CEB00000022900046120556C2700000229000B0
:100CFB004612055641A0000022900046120556C12F
:100D0B00A0000022900012120556434800002290CA
:100D1B000012120556C34800002290004DE4F0A3C8
:100D2B007414F02290004D74FFF0A374ECF0229039
:100D3B00001212055643C8000022900012120556ED
:100D4B00C3C800002290004DE4F0A37408F0229079
:100D5B0000461205560000000090001212055600C6
:0A0D6B00000000E490004DF0A3F03A
:010D7500225B
:1012CB00900038E0FEA3E0FFC390003DE09FFF904D
:1012DB00003CE09EFEAD07FC12033F90147A120512
:1012EB003A120116E4FBFA798078BF1201169000CE
:0412FB000402054A9A
:08152A007F147E71DEFEDFFC80
:011532002296
:04143A00AD07AC0648
:10143E00E4FBFAC3EB9DEA9C500A12152A0BBB0083
:04144E00010A80EF20
:011452002277
:1013EB00E4F594F593F592F591F5B2F5B1F5B4F505
:0B13FB00B3F5CAF5C975960EF59522F2
:10123E0043BA80E4F5F190FFF2F0F5F6F5F790FF82
:10124E00F07403F0A374E9F090FF107403F0A3742C
:10125E00E8F0A37403F0A374E9F090FF207403F098
:10126E00A374E8F0A37403F0A374E9F090FF14E400
:09127E00F090FF24F075F58622C2
:1014060075D90443A220E4F5F2F5F3F5E9F5F9F50B
:0A141600EAF5FAF5EBF5FBD2DE2251
:1014CA00538E7FE4F589758A95758CFFC28DD28C0F
:0114DA0022EF
:10149200538EBF53890F758BEB758DCBC28FD28E56
:0314A200D2AB22A8
:07153B0043D1CC53AF1F2286
:1014A500759850438E0475D7D575D6FF438E014385
:0314B5008E102274
:1014DB00759A50438E0475D7F775D6FD438E10223F
:070003003098FDC298AF998F
:01000A0022D3
:0A151400E59A30E0FB539AFEAF9B0E
:01151E0022AA
:081533008F993099FDC2992245
:0B151F008F9BE59A30E1FB539AFD2200
:0615420000007F16DFFE31
:011548002280
:0F14EB00D286D2CB121542C286121542C2CB2234
:0C150800C286D2CB121542D286021542D8
:0E14FA00A2009286D2CB121542C2CB0215423E
:0D000E00D2CB121542A286C2CB121542229F
:0213C900AE076D
:1013CB00E4780CF6EE25E0FE9286D2CB121542C2E3
:1013DB00CB121542780C06E6C3940840E702000EC8
:10137E00E4FED286FDFCEE25E0FED2CB121542A293
:10138E0086E4334EFEC2CB1215420DBD00010CEDAC
:07139E0064084C70E1AF068A
:0113A5002225
:10145300AC071214EB7FD01213C9AF041213C9AF38
:07146300051213C902150870
:02132D00AD070A
:10132F001214EB7FD01213C9AF051213C91214EBAD
:10133F007FD11213C912137E780AA607D200121496
:06134F00FA121508E6FF8A
:011355002275
:05154900C2B7C2B72289
:1013A600E4FD7F6B1214537D077F191214537D04DD
:1013B6007F1A1214537D187F1B1214537D017F1C54
:0313C600021453BB
:1014200000000000000000000000000000000000BC
:0A14300000000000000000000000B2
:10147E005000870000000000000000000000000087
:03148E000000005B
:0E10E300900080EBF0A3EAF0A3E9F0A3EDF09B
:1010F10074FFA3F0A3F0E4A3F0900083E0FF90005D
:1011010086E0FEC39F505B900080E0FBA3E0FAA362
:10111100E0F98E827583001204EFFF900084E0F005
:10112100A3E06FF0E4FD900084E0FEA3E0FF30E077
:1011310019EEC313FEEF13FFEE64A0FEEF6401FF8F
:10114100900084EEF0A3EFF0800B900084E0C313D5
:10115100F0A3E013F00DEDB408CC900086E004F0AC
:0A1161008097900084E0FEA3E0FFF9
:01116B002261
:100A320078637C007D017BFF7A1479207E007F0839
:100A42001204C9786B7C007D017BFF7A1479287EC1
:100A5200007F081204C978737C007D017BFF7A1441
:100A620079307E007F0A1204C9E490007EF0A3F080
:100A720090007DF090007DE0FFC39404505BEF2571
:100A8200E025E02487F582E43400F583E0FCA3E06E
:100A9200FDA3E0FEA3E0FF12037890007DE0FD25B8
:100AA200E02463F582E43400F583EEF0A3EFF0ED89
:100AB20025E02463F582E43400F583E0FEA3E0FF41
:100AC200ED25E0246BF582E43400F583EEF0A3EF2C
:100AD200F090007DE004F0809BE490007DF09000B7
:100AE2007DE0FF25E0246BF582E43400F583A3E08A
:100AF200FEEF25E02473F582E43400F583EEF090F6
:100B0200007DE0FD25E0246BF582E43400F583E00E
:100B1200FFED25E02474F582E43400F583EFF090D4
:100B2200007DE004F0E0B404B57B017A0079737DC6
:100B3200081210E390007EEEF0A3EFF090007EE04A
:100B4200FEA3E090007BF0EEA3F0E4A3F090007D22
:100B5200E0FFC3940A501774732FF582E43400F552
:0E0B620083E0FF12153390007DE004F080DF89
:010B70002262
:0300000002105794
:0C105700787FE4F6D8FD75812002109E21
:10001E000203E4E86480F8E933E83360110460F029
:10002E00ED33EC337009E8FCE9FDEAFEEBFF220448
:10003E0060DED3EB9FEA9EE99DE8C2E78CF0C2F743
:10004E0095F0400CE8CCF8E9CDF9EACEFAEBCFFB0F
:10005E001203AF85D0F05804700320D5B3E80470B6
:10006E00075002B2D50203EE92D5EC0460F7E4CC51
:10007E00C0E0C398F8603B94186008400DD0E0FBD8
:10008E000203C6E4FBFAC9FC8028E830E406E4C9A2
:10009E00FBE4CAFCE830E305E4C9CACBFCE854072C
:1000AE006010F8C3E913F9EA13FAEB13FBEC13FC37
:1000BE00D8F130F52FC3E49CFCEF9BFFEE9AFEEDDA
:1000CE0099FDD0E0FBEF4E4D4C701222DB03020384
:1000DE00EBEC2CFCEF33FFEE33FEED33FDED30E7B2
:1000EE00EB0203C6EF2BFFEE3AFEED39FDD0E0FB3F
:1000FE0050130BBB00030203EEED13FDEE13FEEFE8
:08010E0013FFEC13FC0203C611
:10011600EC4D6011E8497017ED33EC3304600DE4E3
:10012600FCFFFEFD22E933E8330470F80203E41213
:1001360003AF58046009E4CC248150062850090214
:1001460003EE2840030203EBC0E0EB4A7044B9809B
:1001560006D0E0FB0203DAEF4E701CBD8008EBFF11
:10016600EAFEE9FD80EBE98DF0A4FEE5F00201FF71
:10017600E9CDF9EAFEEBFFEF89F0A4FCE5F0CE89C4
:10018600F0A42EFFE435F0CD89F0A42DFEE435F081
:100196008067EF4E7005BD80D780C3EF8BF0A4ACAF
:1001A600F0EE8BF0A42CFCE435F0F8EF8AF0A42CEA
:1001B600E5F038FCE433CB8DF0A42CFCE5F03BF8FD
:1001C600EE8AF0A42CFCE5F038F8E433CF89F0A4ED
:1001D6002CFCE5F038CF3400CE89F0A42FFFE5F0F3
:1001E6003EFEE433C98DF0A42EFEE5F039CD8AF04B
:1001F600A42FFFE5F03EFEE43DFD33D0E0FB5007C3
:100206000BBB000F0203EEEC2CFCEF33FFEE33FECC
:06021600ED33FD0203C6FA
:10021C000203EEEC5D046005E8590470030203E48C
:10022C001203AF580460F6EC4860F2EC7004FDFE6B
:10023C00FF22C860DB2481C85009C39860025006B5
:10024C000203EB9850CAF582E9294B4A7005AB8240
:10025C000203DA75F0007C1A7880C3EF9BEE9AEDFE
:10026C0099400DC3EF9BFFEE9AFEED99FDE842F02D
:10027C00DC23ACF0D0E0FFD0E0FED0E0FDAB822080
:10028C00E7101BEB60BAEC2CFCEF33FFEE33FEED0A
:10029C0033FD0203C6E803F830E705C0F075F00043
:1002AC00EF2FFFEE33FEED33FD40B830E7C280AAEE
:1002BC0074F8CC6480CCC86480C8F582046043C3F5
:1002CC00EB9FF5F0EA9E42F0E99D42F0E89C45F088
:1002DC0060305018E5825FFFE582F42B5582FB50AD
:1002EC00210ABA001D09B90019088016E5825BFBCA
:1002FC00E582F42F5582FF50090EBE00050DBD009E
:10030C00010CC3EB9FF5F0EA9E42F0E99D42F0E848
:0D031C009C45F06007CC4820E701B3EC22BF
:10032900ED33EC33600A047003BD8004ECB2E7FCE2
:0103390022A1
:10033A0075F020800E75F010800575F0087D007E3E
:10034A00007F003392D530D50312051CEC334010E0
:10035A00EF33FFEE33FEED33FDEC33FCD5F0ED2247
:0E036A00E5F0247EA2D513CC92E7CDCEFF2283
:10037800EDD2E7CD33EC3392D524814006E4FFFE7D
:10038800FDFC22FCE4CFCECDCC24E0501174FF80DC
:10039800EDC3CC13CCCD13CDCE13CECF13CF047079
:0703A800F030D5DE02051C58
:1003AF00E9D2E7C933E833F892D5EDD2E7CD33EC94
:0703BF0033FC5002B2D5220D
:1003C600EC30E7100FBF000C0EBE00080DBD000498
:1003D6000BEB6014A2D5EB13FCED92E7FD2274FF44
:1003E600FCFDFEFF22E480F8A2D574FF13FC7D809D
:0303F600E480EFB1
:101063000211D7E493A3F8E493A34003F68001F2BB
:1010730008DFF48029E493A3F85407240CC8C3338E
:10108300C4540F4420C8834004F456800146F6DF5D
:10109300E4800B010204081020408090147EE47E5B
:1010A300019360BCA3FF543F30E509541FFEE49352
:1010B300A360010ECF54C025E060A840B8E493A319
:1010C300FAE493A3F8E493A3C8C582C8CAC583CA44
:1010D300F0A3C8C582C8CAC583CADFE9DEE780BEFC
:01149100005A
:1003F900E709F608DFFA8046E709F208DFFA803EE6
:1004090088828C83E709F0A3DFFA8032E309F608D2
:10041900DFFA8078E309F208DFFA807088828C833A
:10042900E309F0A3DFFA806489828A83E0A3F608EE
:10043900DFFA805889828A83E0A3F208DFFA804CC8
:1004490080D280FA80C680D4806980F2803380109F
:1004590080A680EA809A80A880DA80E280CA803308
:1004690089828A83ECFAE493A3C8C582C8CCC58380
:10047900CCF0A3C8C582C8CCC583CCDFE9DEE78050
:100489000D89828A83E493A3F608DFF9ECFAA9F0CF
:10049900EDFB2289828A83ECFAE0A3C8C582C8CC25
:1004A900C583CCF0A3C8C582C8CCC583CCDFEADE3E
:1004B900E880DB89828A83E493A3F208DFF980CCA0
:1004C90088F0EF60010E4E60C388F0ED2402B40499
:1004D9000050B9F582EB2402B4040050AF23234540
:0604E90082239004497318
:1004EF00BB010CE58229F582E5833AF583E02250C2
:1004FF0006E92582F8E622BBFE06E92582F8E2220C
:0D050F00E58229F582E5833AF583E4932225
:10128700C2D5E830E70FB2D5E4C39BFBE49AFAE492
:1012970099F9E498F8EC30E717B2D51212BD1205A8
:1012A700C3E4C39BFBE49AFAE499F9E498F8800352
:1012B7001205C330D50DE4C39FFFE49EFEE49DFDF8
:0412C700E49CFC2285
:0E051C00C3E49FFFE49EFEE49DFDE49CFC22F0
:10052A00E493FC740193FD740293FE740393FF2217
:10053A00E493F8740193F9740293FA740393FB2217
:0C054A00ECF0A3EDF0A3EEF0A3EFF02224
:10055600A8828583F0D083D08212056D12056D12B4
:10056600056D12056DE473E493A3C583C5F0C583D9
:10057600C8C582C8F0A3C583C5F0C583C8C582C8EF
:010586002252
:1005870075F008758200EF2FFFEE33FECD33CDCC2B
:1005970033CCC58233C5829BED9AEC99E5829840AE
:1005A7000CF582EE9BFEED9AFDEC99FC0FD5F0D68B
:1005B700E4CEFBE4CDFAE4CCF9A88222B800C1B9B5
:1005C7000059BA002DEC8BF084CFCECDFCE5F0CBF3
:1005D700F97818EF2FFFEE33FEED33FDEC33FCEB2C
:1005E70033FB10D703994004EB99FB0FD8E5E4F9E7
:1005F700FA227818EF2FFFEE33FEED33FDEC33FCD4
:10060700C933C910D7059BE99A4007EC9BFCE99AC7
:10061700F90FD8E0E4C9FAE4CCFB2275F010EF2F0C
:10062700FFEE33FEED33FDCC33CCC833C810D7070C
:100637009BEC9AE899400AED9BFDEC9AFCE899F847
:0E0647000FD5F0DAE4CDFBE4CCFAE4C8F922DA
:00000001FF
