:03001B0002102BA5
:10102B00C0E0C0F0C083C082C0D075D000C000C08B
:10103B0001C002C003C004C005C006C0071211A046
:10104B00120A9D120C8C900009E004F0E0C3940A84
:10105B004008120960900009E4F012062490000881
:10106B00E004F0E0C3947D4004E4F0B2C4D007D0B8
:10107B0006D005D004D003D002D001D000D0D0D000
:08108B0082D083D0F0D0E032E6
:10111200C2AF53973812122812115B120DFE7F6470
:101122007E001211D5C2C47F647E001211D5D2AFE7
:05113200120D5680FBC8
:10123A00447A000041C80000431600003DA3D70AC3
:10122800121137121202120FB612121512124A02B6
:0212380012ACF6
:100DFE00E490004BF0A3F090001AF0A3F0900036B0
:100E0E00F0A3F0900046F0A3F0900049F0A3F0900C
:100E1E00002812059E0000000090001612059E008C
:100E2E0000000090001C12059E00000000900020A3
:100E3E0012059E0000000090000412059E000000A6
:100E4E000090001212059E0000000090002E120568
:100E5E009E0000000090002412059E0000000090ED
:100E6E00000012059E0000000090000A12059E0070
:100E7E0000000090000E12059E000000009000423F
:100E8E0012059E00000000E4900008F0900032F081
:030E9E00A3F0229C
:0510930090007EEFF06B
:101098001210C17808A60790007EE004FF1210C164
:1010A8007809EFF6FD18E6FF3395E0EFFEED33958E
:0810B800E0FCE42DFFEE3CFE1C
:0110C000220D
:1011A0007F4312109390004BEEF0A3EFF07F3D12BF
:0B11B000109390001AEEF0A3EFF02265
:100BAD00120378900086EEF0A3EFF0900082E0FC47
:100BBD00A3E0FDA3E0FEA3E0FF120378AB07AA06B6
:100BCD00C3900086E064809480503BE0FEA3E0FF7C
:100BDD007CFF7DFF12051C900086EEF0A3EFF0C3A5
:100BED0074209FF0744E9E900086F090FF10744E0E
:100BFD00F0A37420F0900086E0FFA3E090FF00CFFB
:100C0D00F0A3EFF0802A900086E0FEA3E0FFC3740E
:100C1D00209FFF744E9EFE900086F0A3EFF090FF94
:100C2D0010EEF0A3EFF090FF00744EF0A37420F0DF
:100C3D00C3EA64809480502B7CFF7DFFAF03AE022E
:100C4D0012051CAA06AB07C374209BFB744E9AFABF
:100C5D0090FF20744EF0A37420F090FF30EAF0A3C3
:100C6D00EBF022C374209BFB744E9AAF0390FF20D0
:0E0C7D00F0A3EFF090FF30744EF0A37420F05F
:010C8B002246
:1006240090002EE0F8A3E0F9A3E0FAA3E0FB900029
:1006340024E0FCA3E0FDA3E0FEA3E0FF1200219070
:10064400000EE0F8A3E0F9A3E0FAA3E0FB12002512
:1006540090000A12059290002EE0F8A3E0F9A3E0BE
:10066400FAA3E0FB900024E0FCA3E0FDA3E0FEA3DA
:10067400E0FF12002190000EE0F8A3E0F9A3E0FAF5
:10068400A3E0FB120021900000120592E4FFFEFD9E
:10069400FC90000AE0F8A3E0F9A3E0FAA3E0FB125F
:1006A40002BC601C401A90000AE0FCA3E0FDA3E039
:1006B400FEA3E0FFE4FBFA79C878431200258030FA
:1006C400E4FFFEFDFC90000AE0F8A3E0F9A3E0FAE1
:1006D400A3E0FB1202BC501E90000AE0FCA3E0FD64
:1006E400A3E0FEA3E0FFE4FBFA79C87843120021FB
:1006F40090000A120592E4FFFEFDFC900000E0F871
:10070400A3E0F9A3E0FAA3E0FB1202BC601C401AC8
:10071400900000E0FCA3E0FDA3E0FEA3E0FFE4FB07
:10072400FA79C878431200258030E4FFFEFDFC907E
:100734000000E0F8A3E0F9A3E0FAA3E0FB1202BC96
:10074400501E900000E0FCA3E0FDA3E0FEA3E0FF48
:10075400E4FBFA79C8784312002190000012059254
:100764007F007E407D9C7C4690000AE0F8A3E0F97F
:10077400A3E0FAA3E0FB1202BC600C400A90000A5A
:1007840012059E469C40007F007E407D9C7CC69066
:10079400000AE0F8A3E0F9A3E0FAA3E0FB1202BC2C
:1007A400500A90000A12059EC69C40007F007E40BD
:1007B4007D9C7C46900000E0F8A3E0F9A3E0FAA356
:1007C400E0FB1202BC600C400A90000012059E4639
:1007D4009C40007F007E407D9C7CC6900000E0F839
:1007E400A3E0F9A3E0FAA3E0FB1202BC500A9000D4
:1007F4000012059EC69C4000900000E0FCA3E0FDB2
:10080400A3E0FEA3E0FF90008212059290000AE0AC
:0D081400FCA3E0FDA3E0FEA3E0FF020BAD9E
:100C8C00AFD2EFFEADD37C00E42DFFEC3E900036EE
:100C9C00F0A3EFF0AFD4EFFEADD5E42DFFEC3E901A
:100CAC000046F0A3EFF053D177E4F5D3F5D2F5D5A8
:100CBC00F5D443D1CC90000AE0FCA3E0FDA3E0FE08
:100CCC00A3E0FF120378D3EF9400EE64809480408D
:100CDC0003D38001C34014900046E0FEA3E0FFE480
:100CEC009FFFE49E900046F0A3EFF0900000E0FC24
:100CFC00A3E0FDA3E0FEA3E0FF120378D3EF940082
:100D0C00EE648094804003D38001C340149000367D
:100D1C00E0FEA3E0FFE49FFFE49E900036F0A3EF1B
:100D2C00F0900046E0FEA3E0FF900039E02FF09039
:100D3C000038E03EF0900036E0FEA3E0FF90003576
:0A0D4C00E02FF0900034E03EF022AA
:10096000900034E0FEA3E0FF900039E02FFF9000FC
:1009700038E03EFE7C007D0212052EAC06AD07EC91
:1009800012033F900028120592E4900034F0A3F087
:10099000900038F0A3F0900049E0FCA3E0FDEC12D9
:1009A000033F900082120592900082E0FCA3E0FDDC
:1009B000A3E0FEA3E0FF900028E0F8A3E0F9A3E0A5
:1009C000FAA3E0FB120021900082120592901242DD
:1009D000120572900082E0F8A3E0F9A3E0FAA3E028
:1009E000FB12011690007E120592901246120572BB
:1009F000900082E0F8A3E0F9A3E0FAA3E0FB120183
:100A000016900086120592900016E0FCA3E0FDA36C
:100A1000E0FEA3E0FF900086E0F8A3E0F9A3E0FA8F
:100A2000A3E0FB120025900016120592900016E03C
:100A3000FCA3E0FDA3E0FEA3E0FF120378D3EF9454
:100A400020EE648094CE400A90001612059E469CCB
:100A50004000900016E0FCA3E0FDA3E0FEA3E0FF51
:100A6000120378C3EF94E0EE64809431500A900052
:100A70001612059EC69C4000900016E0FCA3E0FD07
:100A8000A3E0FEA3E0FF90007EE0F8A3E0F9A3E07E
:0D0A9000FAA3E0FB12002590002E02059253
:100A9D0090001BE024E8FD90001AE03403FC1203E3
:100AAD003FE4FBFA7980784612021F90000412058C
:100ABD0092900004E0FCA3E0FDA3E0FEA3E0FF7B29
:100ACD00E17A2E7965784212011690000412059292
:100ADD0090004BE0FCA3E0FDEC12033FE4FBFA7940
:100AED00C0784112021F9000201205927F6F7E1276
:100AFD007D037C3C900020E0F8A3E0F9A3E0FAA38D
:100B0D00E0FB12011690001CE0F8A3E0F9A3E0FA57
:100B1D00A3E0FB1200257BA47A70797D783F12014A
:100B2D0016C004C005C006C0077F0A7ED77D237C92
:100B3D003C900004E0F8A3E0F9A3E0FAA3E0FB1277
:100B4D000116D003D002D001D00012002590001C58
:100B5D00120592900020E0FCA3E0FDA3E0FEA3E0CF
:100B6D00FF12032990123E120582120116C004C015
:100B7D0005C006C00790001CE0FCA3E0FDA3E0FE4D
:100B8D00A3E0FF12032990123A120582120116D02A
:100B9D0003D002D001D0001200259000240205924E
:100D5600B2C4121290EF14B408004003020DE290E0
:100D66000D7375F003A4C58325F0C58373020D9535
:100D7600020D8B020DA0020DAB020DB6020DC102D3
:100D86000DCC020DD7900049E4F0A37428F0229010
:100D9600004974FFF0A374D8F02290000E12059E4D
:100DA600459C40002290000E12059EC59C400022E4
:100DB60090004212059E4302000022900042120556
:100DC6009EC30200002290000E12059E466A600035
:100DD6002290000E12059EC66A6000229000421202
:100DE600059E0000000090000E12059E0000000007
:070DF600E4900049F0A3F0B6
:010DFD0022D3
:08129B007F147E71DEFEDFFC12
:0112A3002228
:0411D500AD07AC06B0
:1011D900E4FBFAC3EB9DEA9C500A12129B0BBB007D
:0411E900010A80EF88
:0111ED0022DF
:10113700E4F594F593F592F591F596F595F5B2F5F5
:10114700B1F5B4F5B3F5CAF5C975960EF59575B24F
:0411570080F5B1224C
:100FB60043BA80E4F5F190FFF2F0F5F6F5F790FF0D
:100FC600F0744EF0A37421F090FF00744EF0A374F9
:100FD60020F0A3744EF0A37421F090FF10744EF02D
:100FE600A37420F0A3744EF0A37421F090FF207434
:100FF6004EF0A37420F0A3744EF0A37421F090FF7A
:1010060030744EF0A37420F0A3744EF0A37421F054
:1010160090FF04E4F090FF14F090FF24F090FF346A
:05102600F075F58F22BA
:10120200538EBF53890F758BEB758DCBC28FD28EE8
:03121200D2AB223A
:0712AC0043D1CC53AF1F2218
:10121500759850438E0475D7D575D6FF438E014317
:031225008E102206
:10124A00759A50438E0475D7D575D6FF438E1022F2
:0A129000E59A30E0FB539AFEAF9B95
:01129A002231
:0812A4008F993099FDC29922D7
:0612B30000007F16DFFEC3
:0112B9002212
:0F125A00D2C5D2C61212B3C2C51212B3C2C62277
:0C128400C2C5D2C61212B3D2C50212B30A
:0E126900A20092C5D2C61212B3C2C60212B3C0
:0D127700D2C61212B3A2C5C2C61212B32213
:02117E00AE07BA
:10118000E4780CF6EE25E0FE92C5D2C61212B3C288
:10119000C61212B3780C06E6C3940840E702127731
:1010EA00E4FED2C5FDFCEE25E0FED2C61212B3A282
:1010FA00C5E4334EFEC2C61212B30DBD00010CED9B
:07110A0064084C70E1AF0620
:0111110022BB
:10000300AC0712125A7FD012117EAF0412117EAFC9
:070013000512117E021284A8
:0210C100AD0779
:1010C30012125A7FD012117EAF0512117E12125ADC
:1010D3007FD112117E1210EA780AA607D2001212EB
:0610E30069121284E6FF11
:0110E90022E4
:10115B00E4FD7F6B1200037D077F191200037D04F2
:10116B007F1A1200037D187F1B1200037D017F1C69
:03117B000200036C
:1011BB000000000000000000000000000000000024
:0A11CB00000000000000000000001A
:1011EE0050006E0000000000000000000000000033
:0311FE00000000EE
:0E0F2D0090008AEBF0A3EAF0A3E9F0A3EDF048
:100F3B0074FFA3F0A3F0E4A3F090008DE0FF90000A
:100F4B0090E0FEC39F505B90008AE0FBA3E0FAA306
:100F5B00E0F98E827583001204EFFF90008EE0F0B3
:100F6B00A3E06FF0E4FD90008EE0FEA3E0FF30E025
:100F7B0019EEC313FEEF13FFEE64A0FEEF6401FF47
:100F8B0090008EEEF0A3EFF0800B90008EE0C31379
:100F9B00F0A3E013F00DEDB408CC900090E004F05A
:0A0FAB00809790008EE0FEA3E0FFA7
:010FB5002219
:1008210078517C007D017BFF7A1179BB7E007F08C6
:100831001204C978597C007D017BFF7A1179C37E4E
:10084100007F081204C978617C007D017BFF7A1169
:1008510079CB7E007F0A1204C9E490006CF0A3F00A
:1008610090006BF090006BE0FFC39404505BEF25A8
:10087100E025E0246EF582E43400F583E0FCA3E09A
:10088100FDA3E0FEA3E0FF12037890006BE0FD25DD
:10089100E02451F582E43400F583EEF0A3EFF0EDAE
:1008A10025E02451F582E43400F583E0FEA3E0FF66
:1008B100ED25E02459F582E43400F583EEF0A3EF51
:1008C100F090006BE004F0809BE490006BF09000EE
:1008D1006BE0FF25E02459F582E43400F583A3E0C1
:1008E100FEEF25E02461F582E43400F583EEF0901B
:1008F100006BE0FD25E02459F582E43400F583E046
:10090100FFED25E02462F582E43400F583EFF090F9
:10091100006BE004F0E0B404B57B017A0079617DFD
:1009210008120F2D90006CEEF0A3EFF090006CE038
:10093100FEA3E0900069F0EEA3F0E4A3F090006B59
:10094100E0FFC3940A501774612FF582E43400F577
:0E09510083E0FF1212A490006BE004F080DF40
:01095F002275
:03000000020EA14C
:0C0EA100787FE4F6D8FD758120020EE891
:10001E000203E4E86480F8E933E83360110460F029
:10002E00ED33EC337009E8FCE9FDEAFEEBFF220448
:10003E0060DED3EB9FEA9EE99DE8C2E78CF0C2F743
:10004E0095F0400CE8CCF8E9CDF9EACEFAEBCFFB0F
:10005E001203AF85D0F05804700320D5B3E80470B6
:10006E00075002B2D50203EE92D5EC0460F7E4CC51
:10007E00C0E0C398F8603B94186008400DD0E0FBD8
:10008E000203C6E4FBFAC9FC8028E830E406E4C9A2
:10009E00FBE4CAFCE830E305E4C9CACBFCE854072C
:1000AE006010F8C3E913F9EA13FAEB13FBEC13FC37
:1000BE00D8F130F52FC3E49CFCEF9BFFEE9AFEEDDA
:1000CE0099FDD0E0FBEF4E4D4C701222DB03020384
:1000DE00EBEC2CFCEF33FFEE33FEED33FDED30E7B2
:1000EE00EB0203C6EF2BFFEE3AFEED39FDD0E0FB3F
:1000FE0050130BBB00030203EEED13FDEE13FEEFE8
:08010E0013FFEC13FC0203C611
:10011600EC4D6011E8497017ED33EC3304600DE4E3
:10012600FCFFFEFD22E933E8330470F80203E41213
:1001360003AF58046009E4CC248150062850090214
:1001460003EE2840030203EBC0E0EB4A7044B9809B
:1001560006D0E0FB0203DAEF4E701CBD8008EBFF11
:10016600EAFEE9FD80EBE98DF0A4FEE5F00201FF71
:10017600E9CDF9EAFEEBFFEF89F0A4FCE5F0CE89C4
:10018600F0A42EFFE435F0CD89F0A42DFEE435F081
:100196008067EF4E7005BD80D780C3EF8BF0A4ACAF
:1001A600F0EE8BF0A42CFCE435F0F8EF8AF0A42CEA
:1001B600E5F038FCE433CB8DF0A42CFCE5F03BF8FD
:1001C600EE8AF0A42CFCE5F038F8E433CF89F0A4ED
:1001D6002CFCE5F038CF3400CE89F0A42FFFE5F0F3
:1001E6003EFEE433C98DF0A42EFEE5F039CD8AF04B
:1001F600A42FFFE5F03EFEE43DFD33D0E0FB5007C3
:100206000BBB000F0203EEEC2CFCEF33FFEE33FECC
:06021600ED33FD0203C6FA
:10021C000203EEEC5D046005E8590470030203E48C
:10022C001203AF580460F6EC4860F2EC7004FDFE6B
:10023C00FF22C860DB2481C85009C39860025006B5
:10024C000203EB9850CAF582E9294B4A7005AB8240
:10025C000203DA75F0007C1A7880C3EF9BEE9AEDFE
:10026C0099400DC3EF9BFFEE9AFEED99FDE842F02D
:10027C00DC23ACF0D0E0FFD0E0FED0E0FDAB822080
:10028C00E7101BEB60BAEC2CFCEF33FFEE33FEED0A
:10029C0033FD0203C6E803F830E705C0F075F00043
:1002AC00EF2FFFEE33FEED33FD40B830E7C280AAEE
:1002BC0074F8CC6480CCC86480C8F582046043C3F5
:1002CC00EB9FF5F0EA9E42F0E99D42F0E89C45F088
:1002DC0060305018E5825FFFE582F42B5582FB50AD
:1002EC00210ABA001D09B90019088016E5825BFBCA
:1002FC00E582F42F5582FF50090EBE00050DBD009E
:10030C00010CC3EB9FF5F0EA9E42F0E99D42F0E848
:0D031C009C45F06007CC4820E701B3EC22BF
:10032900ED33EC33600A047003BD8004ECB2E7FCE2
:0103390022A1
:10033A0075F020800E75F010800575F0087D007E3E
:10034A00007F003392D530D503120564EC33401098
:10035A00EF33FFEE33FEED33FDEC33FCD5F0ED2247
:0E036A00E5F0247EA2D513CC92E7CDCEFF2283
:10037800EDD2E7CD33EC3392D524814006E4FFFE7D
:10038800FDFC22FCE4CFCECDCC24E0501174FF80DC
:10039800EDC3CC13CCCD13CDCE13CECF13CF047079
:0703A800F030D5DE02056410
:1003AF00E9D2E7C933E833F892D5EDD2E7CD33EC94
:0703BF0033FC5002B2D5220D
:1003C600EC30E7100FBF000C0EBE00080DBD000498
:1003D6000BEB6014A2D5EB13FCED92E7FD2274FF44
:1003E600FCFDFEFF22E480F8A2D574FF13FC7D809D
:0303F600E480EFB1
:100EAD00021112E493A3F8E493A34003F68001F238
:100EBD0008DFF48029E493A3F85407240CC8C33346
:100ECD00C4540F4420C8834004F456800146F6DF15
:100EDD00E4800B01020408102040809011EEE47EA6
:100EED00019360BCA3FF543F30E509541FFEE4930A
:100EFD00A360010ECF54C025E060A840B8E493A3D1
:100F0D00FAE493A3F8E493A3C8C582C8CAC583CAFB
:100F1D00F0A3C8C582C8CAC583CADFE9DEE780BEB3
:0112010000EC
:1003F900E709F608DFFA8046E709F208DFFA803EE6
:1004090088828C83E709F0A3DFFA8032E309F608D2
:10041900DFFA8078E309F208DFFA807088828C833A
:10042900E309F0A3DFFA806489828A83E0A3F608EE
:10043900DFFA805889828A83E0A3F208DFFA804CC8
:1004490080D280FA80C680D4806980F2803380109F
:1004590080A680EA809A80A880DA80E280CA803308
:1004690089828A83ECFAE493A3C8C582C8CCC58380
:10047900CCF0A3C8C582C8CCC583CCDFE9DEE78050
:100489000D89828A83E493A3F608DFF9ECFAA9F0CF
:10049900EDFB2289828A83ECFAE0A3C8C582C8CC25
:1004A900C583CCF0A3C8C582C8CCC583CCDFEADE3E
:1004B900E880DB89828A83E493A3F208DFF980CCA0
:1004C90088F0EF60010E4E60C388F0ED2402B40499
:1004D9000050B9F582EB2402B4040050AF23234540
:0604E90082239004497318
:1004EF00BB010CE58229F582E5833AF583E02250C2
:1004FF0006E92582F8E622BBFE06E92582F8E2220C
:0D050F00E58229F582E5833AF583E4932225
:10051C00EF8DF0A4A8F0CF8CF0A428CE8DF0A42EF3
:02052C00FE22AD
:10052E00C2D5EC30E709B2D5E4C39DFDE49CFCEEE8
:10053E0030E715B2D5E4C39FFFE49EFE1205CFC38C
:10054E00E49DFDE49CFC80031205CF30D507C3E487
:06055E009FFFE49EFE2257
:0E056400C3E49FFFE49EFEE49DFDE49CFC22A8
:10057200E493FC740193FD740293FE740393FF22CF
:10058200E493F8740193F9740293FA740393FB22CF
:0C059200ECF0A3EDF0A3EEF0A3EFF022DC
:10059E00A8828583F0D083D0821205B51205B512DC
:1005AE0005B51205B5E473E493A3C583C5F0C58301
:1005BE00C8C582C8F0A3C583C5F0C583C8C582C8A7
:0105CE00220A
:1005CF00BC000BBE0029EF8DF084FFADF022E4CC10
:1005DF00F875F008EF2FFFEE33FEEC33FCEE9DECD9
:1005EF00984005FCEE9DFE0FD5F0E9E4CEFD22ED1F
:1005FF00F8F5F0EE8420D21CFEADF075F008EF2F69
:10060F00FFED33FD4007985006D5F0F222C398FD59
:05061F000FD5F0EA22F6
:00000001FF
