:03001B0002123995
:10123900C0E0C0F0C083C082C0D075D000C000C07B
:1012490001C002C003C004C005C006C0071216DEF3
:10125900120C4C120E63900000E004F0E0C3940AF3
:101269004005E4F012189C12134B90000EE004F0B4
:10127900E0C3940A401512162712092A900032E099
:10128900B4010312108E90000EE4F012070B9000C7
:101299000DE004F0E0C3947D4004E4F0B2B7D00758
:1012A900D006D005D004D003D002D001D000D0D0D0
:0912B900D082D083D0F0D0E032E5
:03000B00020041AF
:01004100328C
:030043000217772A
:10177700C0E0C083C082E59A30E009539AFE90002A
:1017870008E59BF090005C7401F0D082D083D0E034
:01179700321F
:10156A00C2AF12181812001E120D6612191C7F3211
:10157A007E001217E8C2B7D2AF1218E57F327E009A
:10158A001217E890005CE0C394014008120FEAE4E5
:10159A0090005CF012142E3000DF1214D49000492F
:0415AA00EFF080D509
:1016890041542B4E414D454D5742616C616E636526
:10169900640D0A0042B4000040400000417000009F
:0C16A9003FB33333439600000000000004
:0C172E0041003200410013004100650042
:101818001217981218421215211218551218681228
:0518280019070218DBA6
:100D6600E490005DF0A3F0900020F0A3F090004A1C
:100D7600F0A3F0900056F0A3F0900047F0A3F09097
:100D8600004CF0A3F090005AF0A3F090005AF0A3A4
:100D9600F090003312069B0000000090004E1206F1
:100DA6009B0000000090001C12069B0000000090B3
:100DB600002612069B0000000090002A12069B00E7
:100DC60000000090000912069B0000000090001829
:100DD60012069B0000000090004112069B000000D6
:100DE6000090002E12069B000000009000001206E4
:100DF6009B0000000090000F12069B000000009070
:100E0600001412069B0000000090005212069B0080
:100E1600000000E490000DF0900045F0A3F0900073
:100E26006112069B0000000090000412069B000061
:100E3600000090003B12069B00000000E490005C5E
:100E4600F0900008F090002212069B00000000E4DB
:0D0E5600900059F07BFF7A1679890215F2A1
:05165B00900093EFF088
:101660001216B57808A607900093E004FF1216B58D
:101670007809EFF6FD18E6FF3395E0EFFEED3395C0
:08168000E0FCE42DFFEE3CFE4E
:01168800223F
:1016DE007F4512165B90005DEEF0A3EFF07F3B129C
:1016EE00165B900020EEF0A3EFF07F4712165B9092
:0816FE00005FEEF0A3EFF02203
:10112100E49000AEF0A3F09000AAE0F8A3E0F9A3E8
:10113100E0FAA3E0FBC000C001C002C0037F45127A
:10114100165BEE3395E0FDFCD003D002D001D00058
:10115100EB2FFFEA3EFEE93DFDE83CFC9000AA12C0
:10116100068F9000AFE004F070069000AEE004F04E
:10117100C39000AFE094F49000AEE06480948140AD
:10118100A6E47BF47A01F9F89000AAE0FCA3E0FD63
:10119100A3E0FEA3E0FF1215AE90003FEEF0A3EF37
:0B11A100F09000AA12069B0000000066
:0111AC002220
:100F2D00C3EE64809480500FD2A0C2C4C3E49FFF6F
:100F3D00E49E9000938008C2A0D2C4900093EEF07E
:100F4D00A3EFF0C3EC648094805013D2C3C2C2C32C
:100F5D00E49DFEE49C900095F0A3CEF0800EC2C3FC
:100F6D00D2C2AF05900095ECF0A3EFF0900093E0A6
:100F7D00FEA3E0FFC374E89FFF74039EFE900093F1
:100F8D00F0A3EFF0A3E0FCA3E0FDC374E89DF074C3
:100F9D00039C900095F090FF10EEF0A3EFF0900001
:100FAD0095E0FFA3E090FF20CFF0A3EFF090002697
:100FBD00E0FCA3E0FDA3E0FEA3E0FF1203A0D3EF4E
:100FCD009419EE64809480500BC3EF94E7EE648027
:0C0FDD00947F5008C2A0C2C4C2C3C2C2AC
:010FE90022E5
:10070B00900041E0F8A3E0F9A3E0FAA3E0FB90002E
:10071B002EE0FCA3E0FDA3E0FEA3E0FF1200499056
:10072B000014E0F8A3E0F9A3E0FAA3E0FB12004DFC
:10073B00900061E0F8A3E0F9A3E0FAA3E0FB12005C
:10074B004D90000F12068F900041E0F8A3E0F9A343
:10075B00E0FAA3E0FB90002EE0FCA3E0FDA3E0FE9B
:10076B00A3E0FF120049900014E0F8A3E0F9A3E026
:10077B00FAA3E0FB120049900061E0F8A3E0F9A3B3
:10078B00E0FAA3E0FB12004990000012068FE4FF91
:10079B00FEFDFC90000FE0F8A3E0F9A3E0FAA3E064
:1007AB00FB1202E4601A401890000FE0FCA3E0FD7E
:1007BB00A3E0FEA3E0FFE4FBFAF9F812004D802E54
:1007CB00E4FFFEFDFC90000FE0F8A3E0F9A3E0FAD4
:1007DB00A3E0FB1202E4501C90000FE0FCA3E0FD31
:1007EB00A3E0FEA3E0FFE4FBFAF9F8120049900046
:1007FB000F12068FE4FFFEFDFC900000E0F8A3E073
:10080B00F9A3E0FAA3E0FB1202E4601A401890008F
:10081B0000E0FCA3E0FDA3E0FEA3E0FFE4FBFAF99C
:10082B00F812004D802EE4FFFEFDFC900000E0F876
:10083B00A3E0F9A3E0FAA3E0FB1202E4501C900042
:10084B0000E0FCA3E0FDA3E0FEA3E0FFE4FBFAF96C
:10085B00F812004990000012068FE4FFFE7D7A7CAF
:10086B004490000FE0F8A3E0F9A3E0FAA3E0FB1239
:10087B0002E4600C400A90000F12069B447A0000C1
:10088B00E4FFFE7D7A7CC490000FE0F8A3E0F9A3AF
:10089B00E0FAA3E0FB1202E4500A90000F12069B51
:1008AB00C47A0000E4FFFE7D7A7C44900000E0F8FF
:1008BB00A3E0F9A3E0FAA3E0FB1202E4600C400A08
:1008CB0090000012069B447A0000E4FFFE7D7A7CC8
:1008DB00C4900000E0F8A3E0F9A3E0FAA3E0FB1258
:1008EB0002E4500A90000012069BC47A00009000AC
:1008FB000FE0FCA3E0FDA3E0FEA3E0FF1203A0C00A
:10090B0006C007900000E0FCA3E0FDA3E0FEA3E01F
:0F091B00FF1203A0AD07AC06D007D006020F2DC8
:100E6300AFD2EFFEADD37C00E42DFFEC3E90004A01
:100E7300F0A3EFF0AFD4EFFEADD5E42DFFEC3E9041
:100E83000056F0A3EFF053D177E4F5D3F5D2F5D5BF
:100E9300F5D443D1CC90000FE0FCA3E0FDA3E0FE2A
:100EA300A3E0FF1203A0D3EF9400EE64809480408C
:100EB30003D38001C34014900056E0FEA3E0FFE497
:100EC3009FFFE49E900056F0A3EFF0900000E0FC3B
:100ED300A3E0FDA3E0FEA3E0FF1203A0D3EF940081
:100EE300EE648094804003D38001C3401490004A91
:100EF300E0FEA3E0FFE49FFFE49E90004AF0A3EF2F
:100F0300F0900056E0FEA3E0FF90004DE02FF0903C
:100F1300004CE03EF090004AE0FEA3E0FF90004862
:0A0F2300E02FF0900047E03EF022BE
:10092A00900047E0FEA3E0FF90004DE02FFD90000D
:10093A004CE03EFC120367E4FBFAF9783F12013EF1
:10094A0090003312068FE4900047F0A3F090004C19
:10095A00F0A3F07FCD7ECC7D4C7C3F900033E0F855
:10096A00A3E0F9A3E0FAA3E0FB12013EC004C0052C
:10097A00C006C0077FCD7ECC7D4C7C3E90004EE009
:10098A00F8A3E0F9A3E0FAA3E0FB12013ED003D0FA
:10099A0002D001D00012004D90003312068F900051
:1009AA0033E0FCA3E0FDA3E0FEA3E0FF90004E12BB
:1009BA00068F90005AE0FCA3E0FDEC12036790005A
:1009CA009312068F900093E0FCA3E0FDA3E0FEA340
:1009DA00E0FF900033E0F8A3E0F9A3E0FAA3E0FB1C
:1009EA0012004990009312068F9016A512066F9076
:1009FA000093E0F8A3E0F9A3E0FAA3E0FB12013EBA
:100A0A0090009712068F9016A912066F900093E035
:100A1A00F8A3E0F9A3E0FAA3E0FB12013E90009BE1
:100A2A0012068F90001CE0FCA3E0FDA3E0FEA3E009
:100A3A00FF90009BE0F8A3E0F9A3E0FAA3E0FB1221
:100A4A00004D90001C12068F90001CE0FCA3E0FDF4
:100A5A00A3E0FEA3E0FF900052E0F8A3E0F9A3E0D0
:100A6A00FAA3E0FB12004D90001C12068F90001CA6
:100A7A00E0FCA3E0FDA3E0FEA3E0FF900022E0F883
:100A8A00A3E0F9A3E0FAA3E0FB12004D90001C12C8
:100A9A00068F90001CE0FCA3E0FDA3E0FEA3E0FFAC
:100AAA001203A0D3EF94E8EE64809483400A900086
:100ABA001C12069B447A000090001CE0FCA3E0FD97
:100ACA00A3E0FEA3E0FF1203A0C3EF9418EE648034
:100ADA00947C500A90001C12069BC47A0000900075
:100AEA001CE0FCA3E0FDA3E0FEA3E0FF900097E07A
:100AFA00F8A3E0F9A3E0FAA3E0FB12004D9000414D
:030B0A0002068F51
:100C4C00900021E02430FD900020E034F8FC1203E9
:100C5C0067E4FBFA79807846120247900009120685
:100C6C008F900009E0FCA3E0FDA3E0FEA3E0FF7B76
:100C7C00E17A2E7965784212013E90000912068FB6
:100C8C0090005DE0FCA3E0FDEC120367E4FBFA7955
:100C9C00F47841120247E4FBFA798078BF12013EE6
:100CAC0090002A12068F7F6F7E127D037C3C900091
:100CBC002AE0F8A3E0F9A3E0FAA3E0FB12013E90CE
:100CCC000026E0F8A3E0F9A3E0FAA3E0FB12004D44
:100CDC007BA47A70797D783F12013EC004C005C0B8
:100CEC0006C0077F0A7ED77D237C3C900009E0F884
:100CFC00A3E0F9A3E0FAA3E0FB12013ED003D0027B
:100D0C00D001D00012004D90002612068F90002AC0
:100D1C00E0FCA3E0FDA3E0FEA3E0FF12035190165C
:100D2C00A112067F12013EC004C005C006C0079088
:100D3C000026E0FCA3E0FDA3E0FEA3E0FF120351BC
:100D4C0090169D12067F12013ED003D002D001D026
:0A0D5C000012004D90002E02068FD9
:100FEA00900008E0FF1206CC101C01101102102715
:100FFA0003103204103D05104706105207105D0811
:10100A0010680D0000107290005212069B424800B0
:10101A00002290005212069BC2480000229000143F
:10102A0012069B434800002290001412069BC348F4
:10103A0000002290005AE4F0A37414F02290005A9F
:10104A0074FFF0A374ECF02290001412069B43C8BC
:10105A0000002290001412069BC3C80000229000D0
:10106A005AE4F0A37408F02290005212069B000082
:10107A00000090001412069B00000000E490005A41
:03108A00F0A3F0E0
:01108D002240
:10162700900047E0FEA3E0FFC390004DE09FFF90CE
:10163700004CE09EFEAD07FC1203679016B1120640
:101647007F12013EE4FBFA798078BF12013E9000D9
:041657000402068FF4
:10108E00A2B4E4FF33900093CFF0A3EFF0A2C8E434
:10109E00FF33A3CFF0A3EFF0900093E0FAA3E0FBB1
:1010AE004A7012A3E07004A3E0640170089016ADBC
:1010BE0012066F801FEB64014A701F900095E0705E
:1010CE0002A3E07015FFFE7D807CBF9016AD120668
:1010DE007F12013E90006102068F900093E0700235
:1010EE00A3E0700C900095E07002A3E070028018EF
:1010FE00900093E07004A3E064017016900095E0F8
:10110E007004A3E06401700A90006112069B000057
:02111E000000CF
:0111200022AC
:10142E0012187BAC07E412036C90003B12068FE49B
:10143E00FBFA795C784390003BE0FCA3E0FDA3E06F
:10144E00FEA3E0FF1202477B007A40790378461232
:10145E00013E90003B12068F90003BE0FCA3E0FDA6
:10146E00A3E0FEA3E0FF1203A0D3EF944BEE648043
:07147E00949D5002C2C1223F
:1013CA00900049E0FF7419D39F40047E0180027E99
:1013DA0000D3EE648094804031900059E0FED39FA0
:1013EA00400AA374FFF0A374F8F0802F900049E03C
:1013FA00FFEEC39F500B90005AE4F0A37408F080EC
:10140A001AE490005AF0A3F08011E490005AF0A375
:10141A00F090002212069B00000000900049E09024
:04142A000059F02253
:10134B00900065E07078900049E0D39414501CE451
:10135B00FFFE7DA07C41900052E0F8A3E0F9A3E0F2
:10136B00FAA3E0FB1202E440028049900049E0D36B
:10137B00940F501CE4FFFEFDFC900052E0F8A3E03C
:10138B00F9A3E0FAA3E0FB1202E46004400280241C
:10139B00900049E0D3940A50129000137401F0901E
:1013AB00005212069BC1F000008013900013E0B4B2
:0F13BB00010CE4F090005212069B00000000228B
:10179800E4F594F593F592F591F5B2F5B1F5CAF53E
:0C17A800C9759607F59575B41CF5B322C1
:1015210043BA80E4F5F190FFF2F0F5F6F5F790FF9C
:10153100F07403F0A374E9F090FF107403F0A37446
:10154100E8F0A37403F0A374E9F090FF207403F0B2
:10155100A374E8F0A37403F0A374E9F090FF14E41A
:09156100F090FF24F075F58622DC
:1017B40075D90443A220E4F5F2F5F3F5E9F5F9F55A
:0A17C400EAF5FAF5EBF5FBD2DE22A0
:01004200229B
:10184200538EBF53890F758BEB758DCBC28FD28EA2
:03185200D2AB22F4
:0719070043D1CC53AF1F22B6
:10185500759850438E0475D7F775D6FD438E0143B1
:031865008E1022C0
:10186800759A50438E0475D7F775D6FD438E10755B
:03187800AF01229B
:0718F7003098FDC298AF9983
:0118FE0022C7
:0A18C500E59A30E0FB539AFEAF9B5A
:0118CF0022F6
:0818FF008F993099FDC2992276
:0B18D0008F9BE59A30E1FB539AFD224C
:0B15F20090009FEBF0A3EAF0A3E9F0EB
:1015FD00E4FEFD12182DAE07E4FDEDC39E501A90CA
:10160D00009FE0FBA3E0FAA3E0F98D827583001241
:09161D000517FF1218D00D80E141
:0116260022A1
:0A18DB00439D20E4F5BD75BC80229A
:10187B0075BC8D00000000E5BC30E4FB53BCEFAF42
:02188B00BD227C
:0918E500D2B020B00375C76022E7
:06190E0000007F2FDFFE48
:0119140022B0
:0818EE007F147E71DEFEDFFCB9
:0118F60022CF
:0417E800AD07AC0697
:1017EC00E4FBFAC3EB9DEA9C500A1218EE0BBB000B
:0417FC00010A80EF6F
:0118000022C5
:0619150000007F16DFFE5A
:01191B0022A9
:0F188D00D286D2CB121915C286121915C2CB22E0
:0C18B900C286D2CB121915D28602191576
:0E18AB00A2019286D2CB121915C2CB021915DA
:0D000E00D2CB121915A286C2CB12191522F1
:02175500AE07DD
:10175700E4780CF6EE25E0FE9286D2CB121915C27C
:10176700CB121915780C06E6C3940840E702000E61
:10170600E4FED286FDFCEE25E0FED2CB121915A230
:1017160086E4334EFEC2CB1219150DBD00010CED49
:0717260064084C70E1AF06FE
:01172D002299
:10180100AC0712188D7FD0121755AF04121755AFC0
:07181100051217550218B97A
:0216B500AD077F
:1016B70012188D7FD0121755AF0512175512188DB6
:1016C7007FD1121755121706780AA607D2011218EA
:0616D700AB1218B9E6FF9A
:0116DD0022EA
:05000600C2B7C2B722E1
:10001E00E4FD7F6B1218017D077F191218017D0414
:10002E007F1A1218017D187F1B1218017D017F1C8B
:03003E00021801A4
:1017CE00000000000000000000000000000000000B
:0A17DE000000000000000000000001
:10173A0050008300000000000000000000000000CC
:03174A000000009C
:0E12C2009000A3EBF0A3EAF0A3E9F0A3EDF097
:1012D00074FFA3F0A3F0E4A3F09000A6E0FF900059
:1012E000A9E0FEC39F505B9000A3E0FBA3E0FAA33C
:1012F000E0F98E82758300120517FF9000A7E0F0D9
:10130000A3E06FF0E4FD9000A7E0FEA3E0FF30E073
:1013100019EEC313FEEF13FFEE64A0FEEF6401FFAE
:101320009000A7EEF0A3EFF0800B9000A7E0C313AE
:10133000F0A3E013F00DEDB408CC9000A9E004F0A8
:0A13400080979000A7E0FEA3E0FFF5
:01134A002280
:100B0D0078667C007D017BFF7A1779CE7E007F08A9
:100B1D001204F1786E7C007D017BFF7A1779D67E09
:100B2D00007F081204F178767C007D017BFF7A1737
:100B3D0079DE7E007F0A1204F1E4900081F0A3F0CB
:100B4D00900080F0900080E0FFC39404505BEF258F
:100B5D00E025E02483F582E43400F583E0FCA3E096
:100B6D00FDA3E0FEA3E0FF1203A0900080E0FD25B1
:100B7D00E02466F582E43400F583EEF0A3EFF0EDAA
:100B8D0025E02466F582E43400F583E0FEA3E0FF62
:100B9D00ED25E0246EF582E43400F583EEF0A3EF4D
:100BAD00F0900080E004F0809BE4900080F09000D5
:100BBD0080E0FF25E0246EF582E43400F583A3E0A8
:100BCD00FEEF25E02476F582E43400F583EEF09017
:100BDD000080E0FD25E0246EF582E43400F583E02D
:100BED00FFED25E02477F582E43400F583EFF090F6
:100BFD000080E004F0E0B404B57B017A0079767DE5
:100C0D00081212C2900081EEF0A3EFF0900081E087
:100C1D00FEA3E090007EF0EEA3F0E4A3F090008040
:100C2D00E0FFC3940A501774762FF582E43400F573
:0E0C3D0083E0FF1218FF900080E004F080DFDB
:010C4B002286
:07174D004200B00000C100E2
:07191C00C2B6C288C2A82276
:0F189C00D2B612190E12190EC2B6D2A8C200226D
:1014D400E4FB90009F12069B00000000300038904F
:1014E40000B0E0FEA3E0FFE4FCFD90009F12068F35
:1014F400E47FFC7E03FDFC90009FE0F8A3E0F9A3E9
:10150400E0FAA3E0FB1205447BA07A867901780017
:0C1514001205CFAB0780037FFF22AF035E
:0115200022A8
:030003000214855F
:10148500C0E0C083C082C0D075D000C000C00730A6
:10149500B20C758A00758C00D28CC2008024C28C77
:1014A500AF8C9000B0E4F0A3EFF0E0F8E4F0E89042
:1014B50000B0F0AF8AA3E02FF09000B0E03400F068
:0F14C500D200D007D000D0D0D082D083D0E03278
:030000000211AD3D
:0C11AD00787FE4F6D8FD7581200211F473
:1000460002040CE86480F8E933E83360110460F0D8
:10005600ED33EC337009E8FCE9FDEAFEEBFF220420
:1000660060DED3EB9FEA9EE99DE8C2E78CF0C2F71B
:1000760095F0400CE8CCF8E9CDF9EACEFAEBCFFBE7
:100086001203D785D0F05804700320D5B3E8047066
:10009600075002B2D502041692D5EC0460F7E4CC00
:1000A600C0E0C398F8603B94186008400DD0E0FBB0
:1000B6000203EEE4FBFAC9FC8028E830E406E4C952
:1000C600FBE4CAFCE830E305E4C9CACBFCE8540704
:1000D6006010F8C3E913F9EA13FAEB13FBEC13FC0F
:1000E600D8F130F52FC3E49CFCEF9BFFEE9AFEEDB2
:1000F60099FDD0E0FBEF4E4D4C701222DB0302045B
:1001060013EC2CFCEF33FFEE33FEED33FDED30E761
:10011600EB0203EEEF2BFFEE3AFEED39FDD0E0FBEE
:1001260050130BBB0003020416ED13FDEE13FEEF96
:0801360013FFEC13FC0203EEC1
:10013E00EC4D6011E8497017ED33EC3304600DE4BB
:10014E00FCFFFEFD22E933E8330470F802040C12C2
:10015E0003D758046009E4CC2481500628500902C4
:10016E000416284003020413C0E0EB4A7044B98021
:10017E0006D0E0FB020402EF4E701CBD8008EBFFC0
:10018E00EAFEE9FD80EBE98DF0A4FEE5F002022720
:10019E00E9CDF9EAFEEBFFEF89F0A4FCE5F0CE899C
:1001AE00F0A42EFFE435F0CD89F0A42DFEE435F059
:1001BE008067EF4E7005BD80D780C3EF8BF0A4AC87
:1001CE00F0EE8BF0A42CFCE435F0F8EF8AF0A42CC2
:1001DE00E5F038FCE433CB8DF0A42CFCE5F03BF8D5
:1001EE00EE8AF0A42CFCE5F038F8E433CF89F0A4C5
:1001FE002CFCE5F038CF3400CE89F0A42FFFE5F0CB
:10020E003EFEE433C98DF0A42EFEE5F039CD8AF022
:10021E00A42FFFE5F03EFEE43DFD33D0E0FB50079A
:10022E000BBB000F020416EC2CFCEF33FFEE33FE7B
:06023E00ED33FD0203EEAA
:10024400020416EC5D046005E85904700302040C12
:100254001203D7580460F6EC4860F2EC7004FDFE1B
:10026400FF22C860DB2481C85009C398600250068D
:100274000204139850CAF582E9294B4A7005AB82EF
:1002840002040275F0007C1A7880C3EF9BEE9AEDAD
:1002940099400DC3EF9BFFEE9AFEED99FDE842F005
:1002A400DC23ACF0D0E0FFD0E0FED0E0FDAB822058
:1002B400E7101BEB60BAEC2CFCEF33FFEE33FEEDE2
:1002C40033FD0203EEE803F830E705C0F075F000F3
:1002D400EF2FFFEE33FEED33FD40B830E7C280AAC6
:1002E40074F8CC6480CCC86480C8F582046043C3CD
:1002F400EB9FF5F0EA9E42F0E99D42F0E89C45F060
:1003040060305018E5825FFFE582F42B5582FB5084
:10031400210ABA001D09B90019088016E5825BFBA1
:10032400E582F42F5582FF50090EBE00050DBD0075
:10033400010CC3EB9FF5F0EA9E42F0E99D42F0E820
:0D0344009C45F06007CC4820E701B3EC2297
:10035100ED33EC33600A047003BD8004ECB2E7FCBA
:010361002279
:1003620075F020800E75F010800575F0087D007E16
:10037200007F003392D530D503120661EC33401072
:10038200EF33FFEE33FEED33FDEC33FCD5F0ED221F
:0E039200E5F0247EA2D513CC92E7CDCEFF225B
:1003A000EDD2E7CD33EC3392D524814006E4FFFE55
:1003B000FDFC22FCE4CFCECDCC24E0501174FF80B4
:1003C000EDC3CC13CCCD13CDCE13CECF13CF047051
:0703D000F030D5DE020661EA
:1003D700E9D2E7C933E833F892D5EDD2E7CD33EC6C
:0703E70033FC5002B2D522E5
:1003EE00EC30E7100FBF000C0EBE00080DBD000470
:1003FE000BEB6014A2D5EB13FCED92E7FD2274FF1C
:10040E00FCFDFEFF22E480F8A2D574FF13FC7D8074
:03041E00E480EF88
:1011B90002156AE493A3F8E493A34003F68001F2CD
:1011C90008DFF48029E493A3F85407240CC8C33337
:1011D900C4540F4420C8834004F456800146F6DF06
:1011E900E4800B010204081020408090172EE47E51
:1011F900019360BCA3FF543F30E509541FFEE493FB
:10120900A360010ECF54C025E060A840B8E493A3C1
:10121900FAE493A3F8E493A3C8C582C8CAC583CAEC
:10122900F0A3C8C582C8CAC583CADFE9DEE780BEA4
:011754000094
:10042100E709F608DFFA8046E709F208DFFA803EBD
:1004310088828C83E709F0A3DFFA8032E309F608AA
:10044100DFFA8078E309F208DFFA807088828C8312
:10045100E309F0A3DFFA806489828A83E0A3F608C6
:10046100DFFA805889828A83E0A3F208DFFA804CA0
:1004710080D280FA80C680D4806980F28033801077
:1004810080A680EA809A80A880DA80E280CA8033E0
:1004910089828A83ECFAE493A3C8C582C8CCC58358
:1004A100CCF0A3C8C582C8CCC583CCDFE9DEE78028
:1004B1000D89828A83E493A3F608DFF9ECFAA9F0A7
:1004C100EDFB2289828A83ECFAE0A3C8C582C8CCFD
:1004D100C583CCF0A3C8C582C8CCC583CCDFEADE16
:1004E100E880DB89828A83E493A3F208DFF980CC78
:1004F10088F0EF60010E4E60C388F0ED2402B40471
:100501000050B9F582EB2402B4040050AF23234517
:06051100822390047173C7
:10051700BB010CE58229F582E5833AF583E0225099
:1005270006E92582F8E622BBFE06E92582F8E222E3
:0D053700E58229F582E5833AF583E49322FD
:10054400E88FF0A4CC8BF0A42CFCE98EF0A42CFC56
:100554008AF0EDA42CFCEA8EF0A4CDA8F08BF0A4D4
:100564002DCC3825F0FDE98FF0A42CCD35F0FCEB33
:100574008EF0A4FEA9F0EB8FF0A4CFC5F02ECD39F8
:0F058400FEE43CFCEAA42DCE35F0FDE43CFC2265
:1005930075F008758200EF2FFFEE33FECD33CDCC1F
:1005A30033CCC58233C5829BED9AEC99E5829840A2
:1005B3000CF582EE9BFEED9AFDEC99FC0FD5F0D67F
:1005C300E4CEFBE4CDFAE4CCF9A88222B800C1B9A9
:1005D3000059BA002DEC8BF084CFCECDFCE5F0CBE7
:1005E300F97818EF2FFFEE33FEED33FDEC33FCEB20
:1005F30033FB10D703994004EB99FB0FD8E5E4F9DB
:10060300FA227818EF2FFFEE33FEED33FDEC33FCC7
:10061300C933C910D7059BE99A4007EC9BFCE99ABB
:10062300F90FD8E0E4C9FAE4CCFB2275F010EF2F00
:10063300FFEE33FEED33FDCC33CCC833C810D70700
:100643009BEC9AE899400AED9BFDEC9AFCE899F83B
:0E0653000FD5F0DAE4CDFBE4CCFAE4C8F922CE
:1015AE00C2D5E830E70FB2D5E4C39BFBE49AFAE468
:1015BE0099F9E498F8EC30E717B2D51215E4120554
:1015CE00CFE4C39BFBE49AFAE499F9E498F880031C
:1015DE001205CF30D50DE4C39FFFE49EFEE49DFDC2
:0415EE00E49CFC225B
:0E066100C3E49FFFE49EFEE49DFDE49CFC22AA
:10066F00E493FC740193FD740293FE740393FF22D1
:10067F00E493F8740193F9740293FA740393FB22D1
:0C068F00ECF0A3EDF0A3EEF0A3EFF022DE
:10069B00A8828583F0D083D0821206B21206B212E2
:1006AB0006B21206B2E473E493A3C583C5F0C58307
:1006BB00C8C582C8F0A3C583C5F0C583C8C582C8A9
:0106CB00220C
:1006CC00D083D082F8E4937012740193700DA3A3BD
:1006DC0093F8740193F5828883E4737402936860D1
:0606EC00EFA3A3A380DFD1
:10182D00E4FFFE1206F2600C0FEF70010E09E97075
:05183D00F20A80EF2219
:1006F200BB010689828A83E0225002E722BBFE0206
:09070200E32289828A83E4932238
:00000001FF
