:03001B00021209C5
:10120900C0E0C0F0C083C082C0D075D000C000C0AB
:1012190001C002C003C004C005C006C0071213FD07
:10122900120B71120E4290000DE004F0E0C3940A13
:10123900401512137212087490002CE0B4010312C5
:101249000FD590000DE4F012065590000CE004F063
:10125900E0C3947D4004E4F0B2B7D007D006D005CE
:10126900D004D003D002D001D000D0D0D082D08316
:05127900D0F0D0E032CE
:03000B000215FDDE
:0115FD0032BB
:10127E00C2AF53973812156712144D120F0C7FC858
:10128E007E001214E1C2B7D2AF120C8B900020E098
:10129E00FCA3E0FDA3E0FEA3E0FF90008412054A4C
:1012AE00900024E0FCA3E0FDA3E0FEA3E0FF90008D
:1012BE008812054A900008E0FCA3E0FDA3E0FEA31F
:1012CE00E0FF90008C12054A9000901205564234B1
:0712DE000000120A3280B289
:1015120042B4000040400000416800003FB3333352
:081522004396000000000000E8
:0414FA0041002C0081
:101567001214921215411212E512155412158A021D
:0215770015EA73
:100F0C00E490004CF0A3F090001EF0A3F090003B96
:100F1C00F0A3F0900047F0A3F0900039F0A3F0900C
:100F2C00003DF0A3F090004AF0A3F090004AF0A32B
:100F3C00F090002D1205560000000090003F1205A5
:100F4C00560000000090001A120556000000009098
:100F5C0000201205560000000090002412055600D7
:100F6C0000000090000812055600000000900016CA
:100F7C0012055600000000900033120556000000C8
:100F8C000090002812055600000000900000120589
:100F9C00560000000090000E120556000000009054
:100FAC000012120556000000009000431205560076
:100FBC00000000E490000CF0900037F0A3F09000DB
:090FCC0004120556000000002289
:0513A600900054EFF07F
:1013AB001213D47808A607900054E004FF1213D44C
:1013BB007809EFF6FD18E6FF3395E0EFFEED339578
:0813CB00E0FCE42DFFEE3CFE06
:0113D30022F7
:1013FD007F451213A690004CEEF0A3EFF07F3B1249
:10140D0013A690001EEEF0A3EFF07F471213A690E7
:08141D00004EEEF0A3EFF022F7
:10106800E4900098F0A3F0900094E0F8A3E0F9A3CE
:10107800E0FAA3E0FBC000C001C002C0037F451234
:1010880013A6EE3395E0FDFCD003D002D001D000CA
:10109800EB2FFFEA3EFEE93DFDE83CFC9000941290
:1010A800054A900099E004F07006900098E004F07A
:1010B800C3900099E094F4900098E0648094814093
:1010C800A6E47BF47A01F9F8900094E0FCA3E0FD33
:1010D800A3E0FEA3E0FF12132E900031EEF0A3EF81
:0B10E800F0900094120556000000007C
:0110F30022DA
:100D7600C3EE64809480500FD2A0C2C4C3E49FFF28
:100D8600E49E9000548008C2A0D2C4900054EEF0B5
:100D9600A3EFF0C3EC648094805013D2C3C2C2C3E5
:100DA600E49DFEE49C900056F0A3CEF0800EC2C3F4
:100DB600D2C2AF05900056ECF0A3EFF0900054E0DD
:100DC600FEA3E0FFC374E89FFF74039EFE900054E9
:100DD600F0A3EFF0A3E0FCA3E0FDC374E89DF0747C
:100DE600039C900056F090FF10EEF0A3EFF09000F9
:100DF60056E0FFA3E090FF20CFF0A3EFF0E4FFFE64
:100E06007DF07C41900020E0F8A3E0F9A3E0FAA38E
:100E1600E0FB1202BC6002501AE4FFFE7DF07CC1CA
:100E2600900020E0F8A3E0F9A3E0FAA3E0FB1202A9
:0B0E3600BC5008C2A0C2C4C2C3C2C2AC
:010E4100228E
:10065500900033E0F8A3E0F9A3E0FAA3E0FB9000F3
:1006650028E0FCA3E0FDA3E0FEA3E0FF120021903B
:100675000012E0F8A3E0F9A3E0FAA3E0FB120025DD
:10068500900004E0F8A3E0F9A3E0FAA3E0FB120070
:100695002590000E12054A900033E0F8A3E0F9A377
:1006A500E0FAA3E0FB900028E0FCA3E0FDA3E0FE58
:1006B500A3E0FF120021900012E0F8A3E0F9A3E007
:1006C500FAA3E0FB120021900004E0F8A3E0F9A3EF
:1006D500E0FAA3E0FB12002190000012054AE4FFB6
:1006E500FEFDFC90000EE0F8A3E0F9A3E0FAA3E01C
:1006F500FB1202BC601A401890000EE0FCA3E0FD5E
:10070500A3E0FEA3E0FFE4FBFAF9F8120025802E32
:10071500E4FFFEFDFC90000EE0F8A3E0F9A3E0FA8B
:10072500A3E0FB1202BC501C90000EE0FCA3E0FD10
:10073500A3E0FEA3E0FFE4FBFAF9F8120021900024
:100745000E12054AE4FFFEFDFC900000E0F8A3E070
:10075500F9A3E0FAA3E0FB1202BC601A401890006E
:1007650000E0FCA3E0FDA3E0FEA3E0FFE4FBFAF953
:10077500F8120025802EE4FFFEFDFC900000E0F855
:10078500A3E0F9A3E0FAA3E0FB1202BC501C900021
:1007950000E0FCA3E0FDA3E0FEA3E0FFE4FBFAF923
:1007A500F812002190000012054AE4FFFE7D7A7CD4
:1007B5004490000EE0F8A3E0F9A3E0FAA3E0FB12F1
:1007C50002BC600C400A90000E120556447A0000E7
:1007D500E4FFFE7D7A7CC490000EE0F8A3E0F9A367
:1007E500E0FAA3E0FB1202BC500A90000E12055677
:1007F500C47A0000E4FFFE7D7A7C44900000E0F8B6
:10080500A3E0F9A3E0FAA3E0FB1202BC600C400AE6
:10081500900000120556447A0000E4FFFE7D7A7CC4
:10082500C4900000E0F8A3E0F9A3E0FAA3E0FB120E
:1008350002BC500A900000120556C47A00009000D0
:100845000EE0FCA3E0FDA3E0FEA3E0FF120378C0E9
:1008550006C007900000E0FCA3E0FDA3E0FEA3E0D6
:0F086500FF120378AD07AC06D007D006020D7660
:100E4200AFD2EFFEADD37C00E42DFFEC3E90003B31
:100E5200F0A3EFF0AFD4EFFEADD5E42DFFEC3E9062
:100E62000047F0A3EFF053D177E4F5D3F5D2F5D5EF
:100E7200F5D443D1CC90000EE0FCA3E0FDA3E0FE4C
:100E8200A3E0FF120378D3EF9400EE6480948040D5
:100E920003D38001C34014900047E0FEA3E0FFE4C7
:100EA2009FFFE49E900047F0A3EFF0900000E0FC6B
:100EB200A3E0FDA3E0FEA3E0FF120378D3EF9400CA
:100EC200EE648094804003D38001C3401490003BC1
:100ED200E0FEA3E0FFE49FFFE49E90003BF0A3EF5F
:100EE200F0900047E0FEA3E0FF90003EE02FF0907C
:100EF200003DE03EF090003BE0FEA3E0FF90003AB0
:0A0F0200E02FF0900039E03EF022ED
:10087400900039E0FEA3E0FF90003EE02FFD9000E1
:100884003DE03EFC12033FE4FBFAF9783F12011607
:1008940090002D12054AE4900039F0A3F090003D39
:1008A400F0A3F07FCD7ECC7D4C7C3F90002DE0F812
:1008B400A3E0F9A3E0FAA3E0FB120116C004C0050B
:1008C400C006C0077FCD7ECC7D4C7C3E90003FE0CF
:1008D400F8A3E0F9A3E0FAA3E0FB120116D003D0D9
:1008E40002D001D00012002590002D12054A90007C
:1008F4002DE0FCA3E0FDA3E0FEA3E0FF90003F1287
:10090400054A90004AE0FCA3E0FDEC12033F90008E
:100914005812054A900058E0FCA3E0FDA3E0FEA3B2
:10092400E0FF90002DE0F8A3E0F9A3E0FAA3E0FBD8
:1009340012002190005812054A90151A12052A90A7
:100944000058E0F8A3E0F9A3E0FAA3E0FB120116D3
:1009540090005412054A90151E12052A900058E082
:10096400F8A3E0F9A3E0FAA3E0FB12011690005CFF
:1009740012054A90001AE0FCA3E0FDA3E0FEA3E008
:10098400FF90005CE0F8A3E0F9A3E0FAA3E0FB1217
:10099400002590001A12054A90001AE0FCA3E0FD1D
:1009A400A3E0FEA3E0FF900043E0F8A3E0F9A3E096
:1009B400FAA3E0FB12002590001A12054A90001ACF
:1009C400E0FCA3E0FDA3E0FEA3E0FF120378D3EF75
:1009D40094E8EE64809483400A90001A1205564409
:1009E4007A000090001AE0FCA3E0FDA3E0FEA3E07F
:1009F400FF120378C3EF9418EE6480947C500A903D
:100A0400001A120556C47A000090001AE0FCA3E014
:100A1400FDA3E0FEA3E0FF900054E0F8A3E0F9A3F7
:0E0A2400E0FAA3E0FB12002590003302054A21
:100B710090001FE02430FD90001EE034F8FC1203C9
:100B81003FE4FBFA7980784612021F9000081205B3
:100B91004A900008E0FCA3E0FDA3E0FEA3E0FF7B98
:100BA100E17A2E7965784212011690000812054A01
:100BB10090004CE0FCA3E0FDEC12033FE4FBFA796A
:100BC100F4784112021FE4FBFA798078BF12011612
:100BD10090002412054A7F6F7E127D037C3C9000B9
:100BE10024E0F8A3E0F9A3E0FAA3E0FB12011690D8
:100BF1000020E0F8A3E0F9A3E0FAA3E0FB1200254E
:100C01007BA47A70797D783F120116C004C005C0BB
:100C110006C0077F0A7ED77D237C3C900008E0F860
:100C2100A3E0F9A3E0FAA3E0FB120116D003D0027E
:100C3100D001D00012002590002012054A90002416
:100C4100E0FCA3E0FDA3E0FEA3E0FF120329901561
:100C51001612053A120116C004C005C006C007905D
:100C61000020E0FCA3E0FDA3E0FEA3E0FF120329C6
:100C710090151212053A120116D003D002D001D0FC
:0A0C81000012002590002802054A29
:100C8B001215C3EF14B40D004003020D5A900CA6BD
:100C9B0075F003A4C58325F0C58373020CD8020C31
:100CAB00CD020D0F020D1A020D25020D2F020D3A6A
:100CBB00020D45020CE3020CEE020CF9020D0402CC
:100CCB000D50900043120556422000002290004325
:100CDB00120556C2200000229000431205564270A6
:100CEB00000022900043120556C2700000229000B3
:100CFB004312055641A0000022900043120556C135
:100D0B00A0000022900012120556434800002290CA
:100D1B000012120556C34800002290004AE4F0A3CB
:100D2B007414F02290004A74FFF0A374ECF022903C
:100D3B00001212055643C8000022900012120556ED
:100D4B00C3C800002290004AE4F0A37408F022907C
:100D5B0000431205560000000090001212055600C9
:0A0D6B00000000E490004AF0A3F03D
:010D7500225B
:10137200900039E0FEA3E0FFC390003EE09FFF90A3
:10138200003DE09EFEAD07FC12033F9015261205BC
:101392003A120116E4FBFA798078BF120116900026
:0413A2000402054AF2
:100FD500A2B4E4FF33900054CFF0A3EFF0A2C8E42D
:100FE500FF33A3CFF0A3EFF0900054E0FAA3E0FBAA
:100FF5004A7012A3E07004A3E06401700890152202
:1010050012052A801FEB64014A701F900056E0709C
:1010150002A3E07015FFFE7D807CBF9015221205AE
:101025003A12011690005002054A900054E07002F1
:10103500A3E0700C900056E07002A3E070028018E7
:10104500900054E07004A3E064017016900056E02F
:101055007004A3E06401700A900050120556000068
:02106500000089
:011067002266
:0815D9007F147E71DEFEDFFCD1
:0115E10022E7
:0414E100AD07AC06A1
:1014E500E4FBFAC3EB9DEA9C500A1215D90BBB002D
:0414F500010A80EF79
:0114F90022D0
:10149200E4F594F593F592F591F5B2F5B1F5B4F55D
:0B14A200B3F5CAF5C975960EF595224A
:1012E50043BA80E4F5F190FFF2F0F5F6F5F790FFDB
:1012F500F07403F0A374E9F090FF107403F0A37485
:10130500E8F0A37403F0A374E9F090FF207403F0F0
:10131500A374E8F0A37403F0A374E9F090FF14E458
:09132500F090FF24F075F586221A
:1014AD0075D90443A220E4F5F2F5F3F5E9F5F9F564
:0A14BD00EAF5FAF5EBF5FBD2DE22AA
:10157900538E7FE4F589758A95758CFFC28DD28C5F
:01158900223F
:10154100538EBF53890F758BEB758DCBC28FD28EA6
:03155100D2AB22F8
:0715EA0043D1CC53AF1F22D7
:10155400759850438E0475D7D575D6FF438E0143D5
:031564008E1022C4
:10158A00759A50438E0475D7F775D6FD438E10228F
:070003003098FDC298AF998F
:01000A0022D3
:0A15C300E59A30E0FB539AFEAF9B5F
:0115CD0022FB
:0815E2008F993099FDC2992296
:0B15CE008F9BE59A30E1FB539AFD2251
:0615F10000007F16DFFE82
:0115F70022D1
:0F159A00D286D2CB1215F1C2861215F1C2CB2226
:0C15B700C286D2CB1215F1D2860215F1CB
:0E15A900A2009286D2CB1215F1C2CB0215F130
:0D000E00D2CB1215F1A286C2CB1215F12241
:02147000AE07C5
:10147200E4780CF6EE25E0FE9286D2CB1215F1C28C
:10148200CB1215F1780C06E6C3940840E702000E71
:10142500E4FED286FDFCEE25E0FED2CB1215F1A23C
:1014350086E4334EFEC2CB1215F10DBD00010CED55
:0714450064084C70E1AF06E2
:01144C00227D
:10152A00AC0712159A7FD0121470AF04121470AF60
:07153A00051214700215B741
:0213D400AD0763
:1013D60012159A7FD0121470AF0512147012159A56
:1013E6007FD1121470121425780AA607D20012159E
:0613F600A91215B7E6FF85
:0113FC0022CE
:0515F800C2B7C2B722DA
:10144D00E4FD7F6B12152A7D077F1912152A7D0485
:10145D007F1A12152A7D187F1B12152A7D017F1CFC
:03146D0002152A3B
:1014C7000000000000000000000000000000000015
:0A14D700000000000000000000000B
:1014FE00500084000000000000000000000000000A
:03150E00000000DA
:0E11800090007DEBF0A3EAF0A3E9F0A3EDF000
:10118E0074FFA3F0A3F0E4A3F0900080E0FF9000C2
:10119E0083E0FEC39F505B90007DE0FBA3E0FAA3CB
:1011AE00E0F98E827583001204EFFF900081E0F06B
:1011BE00A3E06FF0E4FD900081E0FEA3E0FF30E0DD
:1011CE0019EEC313FEEF13FFEE64A0FEEF6401FFF2
:1011DE00900081EEF0A3EFF0800B900081E0C3133E
:1011EE00F0A3E013F00DEDB408CC900083E004F012
:0A11FE008097900081E0FEA3E0FF5F
:0112080022C3
:100A320078607C007D017BFF7A1479C77E007F0895
:100A42001204C978687C007D017BFF7A1479CF7E1D
:100A5200007F081204C978707C007D017BFF7A1444
:100A620079D77E007F0A1204C9E490007BF0A3F0DC
:100A720090007AF090007AE0FFC39404505BEF2577
:100A8200E025E02484F582E43400F583E0FCA3E071
:100A9200FDA3E0FEA3E0FF12037890007AE0FD25BB
:100AA200E02460F582E43400F583EEF0A3EFF0ED8C
:100AB20025E02460F582E43400F583E0FEA3E0FF44
:100AC200ED25E02468F582E43400F583EEF0A3EF2F
:100AD200F090007AE004F0809BE490007AF09000BD
:100AE2007AE0FF25E02468F582E43400F583A3E090
:100AF200FEEF25E02470F582E43400F583EEF090F9
:100B0200007AE0FD25E02468F582E43400F583E014
:100B1200FFED25E02471F582E43400F583EFF090D7
:100B2200007AE004F0E0B404B57B017A0079707DCC
:100B32000812118090007BEEF0A3EFF090007BE0B2
:100B4200FEA3E0900078F0EEA3F0E4A3F090007A28
:100B5200E0FFC3940A501774702FF582E43400F555
:0E0B620083E0FF1215E290007AE004F080DFDD
:010B70002262
:030000000210F4F7
:0C10F400787FE4F6D8FD75812002113BE6
:10001E000203E4E86480F8E933E83360110460F029
:10002E00ED33EC337009E8FCE9FDEAFEEBFF220448
:10003E0060DED3EB9FEA9EE99DE8C2E78CF0C2F743
:10004E0095F0400CE8CCF8E9CDF9EACEFAEBCFFB0F
:10005E001203AF85D0F05804700320D5B3E80470B6
:10006E00075002B2D50203EE92D5EC0460F7E4CC51
:10007E00C0E0C398F8603B94186008400DD0E0FBD8
:10008E000203C6E4FBFAC9FC8028E830E406E4C9A2
:10009E00FBE4CAFCE830E305E4C9CACBFCE854072C
:1000AE006010F8C3E913F9EA13FAEB13FBEC13FC37
:1000BE00D8F130F52FC3E49CFCEF9BFFEE9AFEEDDA
:1000CE0099FDD0E0FBEF4E4D4C701222DB03020384
:1000DE00EBEC2CFCEF33FFEE33FEED33FDED30E7B2
:1000EE00EB0203C6EF2BFFEE3AFEED39FDD0E0FB3F
:1000FE0050130BBB00030203EEED13FDEE13FEEFE8
:08010E0013FFEC13FC0203C611
:10011600EC4D6011E8497017ED33EC3304600DE4E3
:10012600FCFFFEFD22E933E8330470F80203E41213
:1001360003AF58046009E4CC248150062850090214
:1001460003EE2840030203EBC0E0EB4A7044B9809B
:1001560006D0E0FB0203DAEF4E701CBD8008EBFF11
:10016600EAFEE9FD80EBE98DF0A4FEE5F00201FF71
:10017600E9CDF9EAFEEBFFEF89F0A4FCE5F0CE89C4
:10018600F0A42EFFE435F0CD89F0A42DFEE435F081
:100196008067EF4E7005BD80D780C3EF8BF0A4ACAF
:1001A600F0EE8BF0A42CFCE435F0F8EF8AF0A42CEA
:1001B600E5F038FCE433CB8DF0A42CFCE5F03BF8FD
:1001C600EE8AF0A42CFCE5F038F8E433CF89F0A4ED
:1001D6002CFCE5F038CF3400CE89F0A42FFFE5F0F3
:1001E6003EFEE433C98DF0A42EFEE5F039CD8AF04B
:1001F600A42FFFE5F03EFEE43DFD33D0E0FB5007C3
:100206000BBB000F0203EEEC2CFCEF33FFEE33FECC
:06021600ED33FD0203C6FA
:10021C000203EEEC5D046005E8590470030203E48C
:10022C001203AF580460F6EC4860F2EC7004FDFE6B
:10023C00FF22C860DB2481C85009C39860025006B5
:10024C000203EB9850CAF582E9294B4A7005AB8240
:10025C000203DA75F0007C1A7880C3EF9BEE9AEDFE
:10026C0099400DC3EF9BFFEE9AFEED99FDE842F02D
:10027C00DC23ACF0D0E0FFD0E0FED0E0FDAB822080
:10028C00E7101BEB60BAEC2CFCEF33FFEE33FEED0A
:10029C0033FD0203C6E803F830E705C0F075F00043
:1002AC00EF2FFFEE33FEED33FD40B830E7C280AAEE
:1002BC0074F8CC6480CCC86480C8F582046043C3F5
:1002CC00EB9FF5F0EA9E42F0E99D42F0E89C45F088
:1002DC0060305018E5825FFFE582F42B5582FB50AD
:1002EC00210ABA001D09B90019088016E5825BFBCA
:1002FC00E582F42F5582FF50090EBE00050DBD009E
:10030C00010CC3EB9FF5F0EA9E42F0E99D42F0E848
:0D031C009C45F06007CC4820E701B3EC22BF
:10032900ED33EC33600A047003BD8004ECB2E7FCE2
:0103390022A1
:10033A0075F020800E75F010800575F0087D007E3E
:10034A00007F003392D530D50312051CEC334010E0
:10035A00EF33FFEE33FEED33FDEC33FCD5F0ED2247
:0E036A00E5F0247EA2D513CC92E7CDCEFF2283
:10037800EDD2E7CD33EC3392D524814006E4FFFE7D
:10038800FDFC22FCE4CFCECDCC24E0501174FF80DC
:10039800EDC3CC13CCCD13CDCE13CECF13CF047079
:0703A800F030D5DE02051C58
:1003AF00E9D2E7C933E833F892D5EDD2E7CD33EC94
:0703BF0033FC5002B2D5220D
:1003C600EC30E7100FBF000C0EBE00080DBD000498
:1003D6000BEB6014A2D5EB13FCED92E7FD2274FF44
:1003E600FCFDFEFF22E480F8A2D574FF13FC7D809D
:0303F600E480EFB1
:1011000002127EE493A3F8E493A34003F68001F275
:1011100008DFF48029E493A3F85407240CC8C333F0
:10112000C4540F4420C8834004F456800146F6DFBF
:10113000E4800B01020408102040809014FAE47E41
:10114000019360BCA3FF543F30E509541FFEE493B4
:10115000A360010ECF54C025E060A840B8E493A37B
:10116000FAE493A3F8E493A3C8C582C8CAC583CAA6
:10117000F0A3C8C582C8CAC583CADFE9DEE780BE5E
:0115110000D9
:1003F900E709F608DFFA8046E709F208DFFA803EE6
:1004090088828C83E709F0A3DFFA8032E309F608D2
:10041900DFFA8078E309F208DFFA807088828C833A
:10042900E309F0A3DFFA806489828A83E0A3F608EE
:10043900DFFA805889828A83E0A3F208DFFA804CC8
:1004490080D280FA80C680D4806980F2803380109F
:1004590080A680EA809A80A880DA80E280CA803308
:1004690089828A83ECFAE493A3C8C582C8CCC58380
:10047900CCF0A3C8C582C8CCC583CCDFE9DEE78050
:100489000D89828A83E493A3F608DFF9ECFAA9F0CF
:10049900EDFB2289828A83ECFAE0A3C8C582C8CC25
:1004A900C583CCF0A3C8C582C8CCC583CCDFEADE3E
:1004B900E880DB89828A83E493A3F208DFF980CCA0
:1004C90088F0EF60010E4E60C388F0ED2402B40499
:1004D9000050B9F582EB2402B4040050AF23234540
:0604E90082239004497318
:1004EF00BB010CE58229F582E5833AF583E02250C2
:1004FF0006E92582F8E622BBFE06E92582F8E2220C
:0D050F00E58229F582E5833AF583E4932225
:10132E00C2D5E830E70FB2D5E4C39BFBE49AFAE4EA
:10133E0099F9E498F8EC30E717B2D5121364120558
:10134E00C3E4C39BFBE49AFAE499F9E498F88003AA
:10135E001205C330D50DE4C39FFFE49EFEE49DFD50
:04136E00E49CFC22DD
:0E051C00C3E49FFFE49EFEE49DFDE49CFC22F0
:10052A00E493FC740193FD740293FE740393FF2217
:10053A00E493F8740193F9740293FA740393FB2217
:0C054A00ECF0A3EDF0A3EEF0A3EFF02224
:10055600A8828583F0D083D08212056D12056D12B4
:10056600056D12056DE473E493A3C583C5F0C583D9
:10057600C8C582C8F0A3C583C5F0C583C8C582C8EF
:010586002252
:1005870075F008758200EF2FFFEE33FECD33CDCC2B
:1005970033CCC58233C5829BED9AEC99E5829840AE
:1005A7000CF582EE9BFEED9AFDEC99FC0FD5F0D68B
:1005B700E4CEFBE4CDFAE4CCF9A88222B800C1B9B5
:1005C7000059BA002DEC8BF084CFCECDFCE5F0CBF3
:1005D700F97818EF2FFFEE33FEED33FDEC33FCEB2C
:1005E70033FB10D703994004EB99FB0FD8E5E4F9E7
:1005F700FA227818EF2FFFEE33FEED33FDEC33FCD4
:10060700C933C910D7059BE99A4007EC9BFCE99AC7
:10061700F90FD8E0E4C9FAE4CCFB2275F010EF2F0C
:10062700FFEE33FEED33FDCC33CCC833C810D7070C
:100637009BEC9AE899400AED9BFDEC9AFCE899F847
:0E0647000FD5F0DAE4CDFBE4CCFAE4C8F922DA
:00000001FF
