:03001B0002114A85
:10114A00C0E0C0F0C083C082C0D075D000C000C06B
:10115A0001C002C003C004C005C006C0071212CDF8
:10116A00120B97120D7D90000DE004F0E0C3940A73
:10117A00400B12124212089A90000DE4F012067BFC
:10118A0090000CE004F0E0C3947D4004E4F0B2B7B0
:10119A00D007D006D005D004D003D002D001D000A9
:0B11AA00D0D0D082D083D0F0D0E03253
:03000B000214E3F9
:0114E30032D6
:10136200C2AF53973812144D12131D120E477FC885
:0E1372007E001213CFC2B7D2AF120F0680FB5F
:1013FF0042B4000040400000414000003FB333338F
:04140F0040A00000F9
:10144D001213801214271211B512143A12147002CD
:02145D0014D0A9
:100E4700E490004FF0A3F090001EF0A3F090003A5A
:100E5700F0A3F090004AF0A3F0900038F0A3F090D0
:100E6700003CF0A3F090004DF0A3F090004DF0A3EC
:100E7700F090002C1205560000000090003E12056D
:100E8700560000000090001A12055600000000905E
:100E9700002012055600000000900024120556009D
:100EA7000000009000081205560000000090001690
:100EB700120556000000009000321205560000008F
:100EC700009000281205560000000090000012054F
:100ED700560000000090000E12055600000000901A
:100EE7000012120556000000009000461205560039
:0F0EF700000000E490000CF0900036F0A3F02211
:05127600900084EFF080
:10127B001212A47808A607900084E004FF1212A4AF
:10128B007809EFF6FD18E6FF3395E0EFFEED3395A9
:08129B00E0FCE42DFFEE3CFE37
:0112A3002228
:1012CD007F4512127690004FEEF0A3EFF07F3B12A8
:1012DD00127690001EEEF0A3EFF07F47121276907B
:0812ED000051EEF0A3EFF02226
:100FA900E490009BF0A3F0900097E0F8A3E0F9A388
:100FB900E0FAA3E0FBC000C001C002C0037F4512F4
:100FC9001276EE3395E0FDFCD003D002D001D000BB
:100FD900EB2FFFEA3EFEE93DFDE83CFC900097124D
:100FE900054A90009CE004F0700690009BE004F034
:100FF900C390009CE094F490009BE064809481404D
:10100900A6E47BF47A01F9F8900097E0FCA3E0FDEF
:10101900A3E0FEA3E0FF1211FE900030EEF0A3EF73
:0B102900F09000971205560000000038
:011034002299
:100CB100C3EE64809480500FD2A0C2C4C3E49FFFEE
:100CC100E49E9000848008C2A0D2C4900084EEF01B
:100CD100A3EFF0C3EC648094805013D2C3C2C2C3AB
:100CE100E49DFEE49C900086F0A3CEF0800EC2C38A
:100CF100D2C2AF05900086ECF0A3EFF0900084E043
:100D0100FEA3E0FFC374E89FFF74039EFE9000847E
:100D1100F0A3EFF0A3E0FCA3E0FDC374E89DF07441
:100D2100039C900086F090FF10EEF0A3EFF090008E
:100D310086E0FFA3E090FF20CFF0A3EFF0E4FFFEF9
:100D41007DF07C41900020E0F8A3E0F9A3E0FAA354
:100D5100E0FB1202BC6002501AE4FFFE7DF07CC190
:100D6100900020E0F8A3E0F9A3E0FAA3E0FB12026F
:0B0D7100BC5008C2A0C2C4C2C3C2C272
:010D7C002254
:10067B00900032E0F8A3E0F9A3E0FAA3E0FB9000CE
:10068B0028E0FCA3E0FDA3E0FEA3E0FF1200219015
:10069B000012E0F8A3E0F9A3E0FAA3E0FB120025B7
:1006AB00900004E0F8A3E0F9A3E0FAA3E0FB12004A
:1006BB002590000E12054A900032E0F8A3E0F9A352
:1006CB00E0FAA3E0FB900028E0FCA3E0FDA3E0FE32
:1006DB00A3E0FF120021900012E0F8A3E0F9A3E0E1
:1006EB00FAA3E0FB120021900004E0F8A3E0F9A3C9
:1006FB00E0FAA3E0FB12002190000012054AE4FF90
:10070B00FEFDFC90000EE0F8A3E0F9A3E0FAA3E0F5
:10071B00FB1202BC601A401890000EE0FCA3E0FD37
:10072B00A3E0FEA3E0FFE4FBFAF9F8120025802E0C
:10073B00E4FFFEFDFC90000EE0F8A3E0F9A3E0FA65
:10074B00A3E0FB1202BC501C90000EE0FCA3E0FDEA
:10075B00A3E0FEA3E0FFE4FBFAF9F81200219000FE
:10076B000E12054AE4FFFEFDFC900000E0F8A3E04A
:10077B00F9A3E0FAA3E0FB1202BC601A4018900048
:10078B0000E0FCA3E0FDA3E0FEA3E0FFE4FBFAF92D
:10079B00F8120025802EE4FFFEFDFC900000E0F82F
:1007AB00A3E0F9A3E0FAA3E0FB1202BC501C9000FB
:1007BB0000E0FCA3E0FDA3E0FEA3E0FFE4FBFAF9FD
:1007CB00F812002190000012054AE4FFFE7D7A7CAE
:1007DB004490000EE0F8A3E0F9A3E0FAA3E0FB12CB
:1007EB0002BC600C400A90000E120556447A0000C1
:1007FB00E4FFFE7D7A7CC490000EE0F8A3E0F9A341
:10080B00E0FAA3E0FB1202BC500A90000E12055650
:10081B00C47A0000E4FFFE7D7A7C44900000E0F88F
:10082B00A3E0F9A3E0FAA3E0FB1202BC600C400AC0
:10083B00900000120556447A0000E4FFFE7D7A7C9E
:10084B00C4900000E0F8A3E0F9A3E0FAA3E0FB12E8
:10085B0002BC500A900000120556C47A00009000AA
:10086B000EE0FCA3E0FDA3E0FEA3E0FF120378C0C3
:10087B0006C007900000E0FCA3E0FDA3E0FEA3E0B0
:0F088B00FF120378AD07AC06D007D006020CB100
:100D7D00AFD2EFFEADD37C00E42DFFEC3E90003AF8
:100D8D00F0A3EFF0AFD4EFFEADD5E42DFFEC3E9028
:100D9D00004AF0A3EFF053D177E4F5D3F5D2F5D5B2
:100DAD00F5D443D1CC90000EE0FCA3E0FDA3E0FE12
:100DBD00A3E0FF120378D3EF9400EE64809480409B
:100DCD0003D38001C3401490004AE0FEA3E0FFE48A
:100DDD009FFFE49E90004AF0A3EFF0900000E0FC2E
:100DED00A3E0FDA3E0FEA3E0FF120378D3EF940090
:100DFD00EE648094804003D38001C3401490003A88
:100E0D00E0FEA3E0FFE49FFFE49E90003AF0A3EF25
:100E1D00F090004AE0FEA3E0FF90003DE02FF0903F
:100E2D00003CE03EF090003AE0FEA3E0FF90003978
:0A0E3D00E02FF0900038E03EF022B4
:10089A00900038E0FEA3E0FF90003DE02FFD9000BD
:1008AA003CE03EFC12033FE4FBFAF9783F120116E2
:1008BA0090002C12054AE4900038F0A3F090003C16
:1008CA00F0A3F07FCD7ECC7D4C7C3F90002CE0F8ED
:1008DA00A3E0F9A3E0FAA3E0FB120116C004C005E5
:1008EA00C006C0077FCD7ECC7D4C7C3E90003EE0AA
:1008FA00F8A3E0F9A3E0FAA3E0FB120116D003D0B3
:10090A0002D001D00012002590002C12054A900056
:10091A002CE0FCA3E0FDA3E0FEA3E0FF90003E1262
:10092A00054A90004DE0FCA3E0FDEC12033F900065
:10093A008812054A900088E0FCA3E0FDA3E0FEA32C
:10094A00E0FF90002CE0F8A3E0F9A3E0FAA3E0FBB3
:10095A0012002190008812054A90140712052A9065
:10096A000088E0F8A3E0F9A3E0FAA3E0FB1201167D
:10097A0090008412054A90140B12052A900088E010
:10098A00F8A3E0F9A3E0FAA3E0FB12011690008CA9
:10099A0012054A90001AE0FCA3E0FDA3E0FEA3E0E2
:1009AA00FF90008CE0F8A3E0F9A3E0FAA3E0FB12C1
:1009BA00002590001A12054A90001AE0FCA3E0FDF7
:1009CA00A3E0FEA3E0FF120378D3EF94E8EE64807D
:1009DA009483400A90001A120556447A0000900047
:1009EA001AE0FCA3E0FDA3E0FEA3E0FF120378C334
:1009FA00EF9418EE6480947C500A90001A120556FF
:100A0A00C47A000090001AE0FCA3E0FDA3E0FEA374
:100A1A00E0FF900046E0F8A3E0F9A3E0FAA3E0FBC8
:100A2A0012002590001A12054A90001AE0FCA3E071
:100A3A00FDA3E0FEA3E0FF900084E0F8A3E0F9A3A1
:0E0A4A00E0FAA3E0FB12002590003202054AFC
:100B970090001FE02430FD90001EE034F8FC1203A3
:100BA7003FE4FBFA7980784612021F90000812058D
:100BB7004A900008E0FCA3E0FDA3E0FEA3E0FF7B72
:100BC700E17A2E7965784212011690000812054ADB
:100BD70090004FE0FCA3E0FDEC12033FE4FBFA7941
:100BE700F4784112021FE4FBFA798078BF120116EC
:100BF70090002412054A7F6F7E127D037C3C900093
:100C070024E0F8A3E0F9A3E0FAA3E0FB12011690B1
:100C17000020E0F8A3E0F9A3E0FAA3E0FB12002527
:100C27007BA47A70797D783F120116C004C005C095
:100C370006C0077F0A7ED77D237C3C900008E0F83A
:100C4700A3E0F9A3E0FAA3E0FB120116D003D00258
:100C5700D001D00012002590002012054A900024F0
:100C6700E0FCA3E0FDA3E0FEA3E0FF12032990143C
:100C77000312053A120116C004C005C006C007904A
:100C87000020E0FCA3E0FDA3E0FEA3E0FF120329A0
:100C97009013FF12053A120116D003D002D001D0EB
:0A0CA7000012002590002802054A03
:100F06001214A9EF1205870F37010F2C020F4203A7
:100F16000F4D040F58050F62060F6D070F78080F67
:100F2600830D00000F8D90004612055642200000EA
:100F360022900046120556C220000022900012128E
:100F460005564348000022900012120556C3480079
:100F5600002290004DE4F0A37414F02290004D742A
:100F6600FFF0A374ECF02290001212055643C8005D
:100F76000022900012120556C3C800002290004DB0
:100F8600E4F0A37408F02290004612055600000013
:100F96000090001212055600000000E490004DF08B
:020FA600A3F0B6
:010FA8002226
:10124200900038E0FEA3E0FFC390003DE09FFF90D6
:10125200003CE09EFEAD07FC12033F90140F120506
:101262003A120116E4FBFA798078BF120116900057
:041272000402054A23
:0814BF007F147E71DEFEDFFCEC
:0114C7002202
:0413CF00AD07AC06B4
:1013D300E4FBFAC3EB9DEA9C500A1214BF0BBB005B
:0413E300010A80EF8C
:0113E70022E3
:10138000E4F594F593F592F591F5B2F5B1F5B4F570
:0B139000B3F5CAF5C975960EF595225D
:1011B50043BA80E4F5F190FFF2F0F5F6F5F790FF0C
:1011C500F07403F0A374E9F090FF107403F0A374B6
:1011D500E8F0A37403F0A374E9F090FF207403F022
:1011E500A374E8F0A37403F0A374E9F090FF14E48A
:0911F500F090FF24F075F586224C
:10139B0075D90443A220E4F5F2F5F3F5E9F5F9F577
:0A13AB00EAF5FAF5EBF5FBD2DE22BD
:10145F00538E7FE4F589758A95758CFFC28DD28C7A
:01146F00225A
:10142700538EBF53890F758BEB758DCBC28FD28EC1
:03143700D2AB2213
:0714D00043D1CC53AF1F22F2
:10143A00759850438E0475D7D575D6FF438E0143F0
:03144A008E1022DF
:10147000759A50438E0475D7F775D6FD438E1022AA
:070003003098FDC298AF998F
:01000A0022D3
:0A14A900E59A30E0FB539AFEAF9B7A
:0114B3002216
:0814C8008F993099FDC29922B1
:0B14B4008F9BE59A30E1FB539AFD226C
:0614D70000007F16DFFE9D
:0114DD0022EC
:0F148000D286D2CB1214D7C2861214D7C2CB2277
:0C149D00C286D2CB1214D7D2860214D71C
:0E148F00A2009286D2CB1214D7C2CB0214D781
:0D000E00D2CB1214D7A286C2CB1214D72277
:02134000AE07F6
:10134200E4780CF6EE25E0FE9286D2CB1214D7C2D8
:10135200CB1214D7780C06E6C3940840E702000EBD
:1012F500E4FED286FDFCEE25E0FED2CB1214D7A289
:1013050086E4334EFEC2CB1214D70DBD00010CEDA1
:0713150064084C70E1AF0613
:01131C0022AE
:1013E800AC071214807FD0121340AF04121340AF21
:0713F8000512134002149DD1
:0212A400AD0794
:1012A6001214807FD0121340AF051213401214801F
:1012B6007FD11213401212F5780AA607D200121433
:0612C6008F12149DE6FFEB
:0112CC0022FF
:0514DE00C2B7C2B722F5
:10131D00E4FD7F6B1213E87D077F191213E87D043E
:10132D007F1A1213E87D187F1B1213E87D017F1CB5
:03133D000213E8B0
:1013B5000000000000000000000000000000000028
:0A13C500000000000000000000001E
:101413005000740000000000000000000000000005
:03142300000000C6
:0E10C100900090EBF0A3EAF0A3E9F0A3EDF0AD
:1010CF0074FFA3F0A3F0E4A3F0900093E0FF90006F
:1010DF0096E0FEC39F505B900090E0FBA3E0FAA365
:1010EF00E0F98E827583001204EFFF900094E0F018
:1010FF00A3E06FF0E4FD900094E0FEA3E0FF30E08A
:10110F0019EEC313FEEF13FFEE64A0FEEF6401FFB1
:10111F00900094EEF0A3EFF0800B900094E0C313D7
:10112F00F0A3E013F00DEDB408CC900096E004F0BE
:0A113F008097900094E0FEA3E0FF0B
:011149002283
:100A580078577C007D017BFF7A1379B57E007F088B
:100A68001204C9785F7C007D017BFF7A1379BD7E13
:100A7800007F081204C978677C007D017BFF7A1328
:100A880079C57E007F0A1204C9E4900072F0A3F0D1
:100A9800900071F0900071E0FFC39404505BEF2563
:100AA800E025E02474F582E43400F583E0FCA3E05B
:100AB800FDA3E0FEA3E0FF120378900071E0FD259E
:100AC800E02457F582E43400F583EEF0A3EFF0ED6F
:100AD80025E02457F582E43400F583E0FEA3E0FF27
:100AE800ED25E0245FF582E43400F583EEF0A3EF12
:100AF800F0900071E004F0809BE4900071F09000A9
:100B080071E0FF25E0245FF582E43400F583A3E07B
:100B1800FEEF25E02467F582E43400F583EEF090DB
:100B28000071E0FD25E0245FF582E43400F583E000
:100B3800FFED25E02468F582E43400F583EFF090BA
:100B48000071E004F0E0B404B57B017A0079677DB8
:100B5800081210C1900072EEF0A3EFF0900072E05E
:100B6800FEA3E090006FF0EEA3F0E4A3F090007114
:100B7800E0FFC3940A501774672FF582E43400F538
:0E0B880083E0FF1214C8900071E004F080DFDB
:010B9600223C
:03000000021035B6
:0C103500787FE4F6D8FD75812002107C65
:10001E000203E4E86480F8E933E83360110460F029
:10002E00ED33EC337009E8FCE9FDEAFEEBFF220448
:10003E0060DED3EB9FEA9EE99DE8C2E78CF0C2F743
:10004E0095F0400CE8CCF8E9CDF9EACEFAEBCFFB0F
:10005E001203AF85D0F05804700320D5B3E80470B6
:10006E00075002B2D50203EE92D5EC0460F7E4CC51
:10007E00C0E0C398F8603B94186008400DD0E0FBD8
:10008E000203C6E4FBFAC9FC8028E830E406E4C9A2
:10009E00FBE4CAFCE830E305E4C9CACBFCE854072C
:1000AE006010F8C3E913F9EA13FAEB13FBEC13FC37
:1000BE00D8F130F52FC3E49CFCEF9BFFEE9AFEEDDA
:1000CE0099FDD0E0FBEF4E4D4C701222DB03020384
:1000DE00EBEC2CFCEF33FFEE33FEED33FDED30E7B2
:1000EE00EB0203C6EF2BFFEE3AFEED39FDD0E0FB3F
:1000FE0050130BBB00030203EEED13FDEE13FEEFE8
:08010E0013FFEC13FC0203C611
:10011600EC4D6011E8497017ED33EC3304600DE4E3
:10012600FCFFFEFD22E933E8330470F80203E41213
:1001360003AF58046009E4CC248150062850090214
:1001460003EE2840030203EBC0E0EB4A7044B9809B
:1001560006D0E0FB0203DAEF4E701CBD8008EBFF11
:10016600EAFEE9FD80EBE98DF0A4FEE5F00201FF71
:10017600E9CDF9EAFEEBFFEF89F0A4FCE5F0CE89C4
:10018600F0A42EFFE435F0CD89F0A42DFEE435F081
:100196008067EF4E7005BD80D780C3EF8BF0A4ACAF
:1001A600F0EE8BF0A42CFCE435F0F8EF8AF0A42CEA
:1001B600E5F038FCE433CB8DF0A42CFCE5F03BF8FD
:1001C600EE8AF0A42CFCE5F038F8E433CF89F0A4ED
:1001D6002CFCE5F038CF3400CE89F0A42FFFE5F0F3
:1001E6003EFEE433C98DF0A42EFEE5F039CD8AF04B
:1001F600A42FFFE5F03EFEE43DFD33D0E0FB5007C3
:100206000BBB000F0203EEEC2CFCEF33FFEE33FECC
:06021600ED33FD0203C6FA
:10021C000203EEEC5D046005E8590470030203E48C
:10022C001203AF580460F6EC4860F2EC7004FDFE6B
:10023C00FF22C860DB2481C85009C39860025006B5
:10024C000203EB9850CAF582E9294B4A7005AB8240
:10025C000203DA75F0007C1A7880C3EF9BEE9AEDFE
:10026C0099400DC3EF9BFFEE9AFEED99FDE842F02D
:10027C00DC23ACF0D0E0FFD0E0FED0E0FDAB822080
:10028C00E7101BEB60BAEC2CFCEF33FFEE33FEED0A
:10029C0033FD0203C6E803F830E705C0F075F00043
:1002AC00EF2FFFEE33FEED33FD40B830E7C280AAEE
:1002BC0074F8CC6480CCC86480C8F582046043C3F5
:1002CC00EB9FF5F0EA9E42F0E99D42F0E89C45F088
:1002DC0060305018E5825FFFE582F42B5582FB50AD
:1002EC00210ABA001D09B90019088016E5825BFBCA
:1002FC00E582F42F5582FF50090EBE00050DBD009E
:10030C00010CC3EB9FF5F0EA9E42F0E99D42F0E848
:0D031C009C45F06007CC4820E701B3EC22BF
:10032900ED33EC33600A047003BD8004ECB2E7FCE2
:0103390022A1
:10033A0075F020800E75F010800575F0087D007E3E
:10034A00007F003392D530D50312051CEC334010E0
:10035A00EF33FFEE33FEED33FDEC33FCD5F0ED2247
:0E036A00E5F0247EA2D513CC92E7CDCEFF2283
:10037800EDD2E7CD33EC3392D524814006E4FFFE7D
:10038800FDFC22FCE4CFCECDCC24E0501174FF80DC
:10039800EDC3CC13CCCD13CDCE13CECF13CF047079
:0703A800F030D5DE02051C58
:1003AF00E9D2E7C933E833F892D5EDD2E7CD33EC94
:0703BF0033FC5002B2D5220D
:1003C600EC30E7100FBF000C0EBE00080DBD000498
:1003D6000BEB6014A2D5EB13FCED92E7FD2274FF44
:1003E600FCFDFEFF22E480F8A2D574FF13FC7D809D
:0303F600E480EFB1
:10104100021362E493A3F8E493A34003F68001F250
:1010510008DFF48029E493A3F85407240CC8C333B0
:10106100C4540F4420C8834004F456800146F6DF7F
:10107100E4800B0102040810204080901413E47EE8
:10108100019360BCA3FF543F30E509541FFEE49374
:10109100A360010ECF54C025E060A840B8E493A33B
:1010A100FAE493A3F8E493A3C8C582C8CAC583CA66
:1010B100F0A3C8C582C8CAC583CADFE9DEE780BE1E
:0114260000C5
:1003F900E709F608DFFA8046E709F208DFFA803EE6
:1004090088828C83E709F0A3DFFA8032E309F608D2
:10041900DFFA8078E309F208DFFA807088828C833A
:10042900E309F0A3DFFA806489828A83E0A3F608EE
:10043900DFFA805889828A83E0A3F208DFFA804CC8
:1004490080D280FA80C680D4806980F2803380109F
:1004590080A680EA809A80A880DA80E280CA803308
:1004690089828A83ECFAE493A3C8C582C8CCC58380
:10047900CCF0A3C8C582C8CCC583CCDFE9DEE78050
:100489000D89828A83E493A3F608DFF9ECFAA9F0CF
:10049900EDFB2289828A83ECFAE0A3C8C582C8CC25
:1004A900C583CCF0A3C8C582C8CCC583CCDFEADE3E
:1004B900E880DB89828A83E493A3F208DFF980CCA0
:1004C90088F0EF60010E4E60C388F0ED2402B40499
:1004D9000050B9F582EB2402B4040050AF23234540
:0604E90082239004497318
:1004EF00BB010CE58229F582E5833AF583E02250C2
:1004FF0006E92582F8E622BBFE06E92582F8E2220C
:0D050F00E58229F582E5833AF583E4932225
:1011FE00C2D5E830E70FB2D5E4C39BFBE49AFAE41C
:10120E0099F9E498F8EC30E717B2D51212341205BA
:10121E00E9E4C39BFBE49AFAE499F9E498F88003B5
:10122E001205E930D50DE4C39FFFE49EFEE49DFD5B
:04123E00E49CFC220E
:0E051C00C3E49FFFE49EFEE49DFDE49CFC22F0
:10052A00E493FC740193FD740293FE740393FF2217
:10053A00E493F8740193F9740293FA740393FB2217
:0C054A00ECF0A3EDF0A3EEF0A3EFF02224
:10055600A8828583F0D083D08212056D12056D12B4
:10056600056D12056DE473E493A3C583C5F0C583D9
:10057600C8C582C8F0A3C583C5F0C583C8C582C8EF
:010586002252
:10058700D083D082F8E4937012740193700DA3A303
:1005970093F8740193F5828883E473740293686017
:0605A700EFA3A3A380DF17
:1005AD0075F008758200EF2FFFEE33FECD33CDCC05
:1005BD0033CCC58233C5829BED9AEC99E582984088
:1005CD000CF582EE9BFEED9AFDEC99FC0FD5F0D665
:1005DD00E4CEFBE4CDFAE4CCF9A88222B800C1B98F
:1005ED000059BA002DEC8BF084CFCECDFCE5F0CBCD
:1005FD00F97818EF2FFFEE33FEED33FDEC33FCEB06
:10060D0033FB10D703994004EB99FB0FD8E5E4F9C0
:10061D00FA227818EF2FFFEE33FEED33FDEC33FCAD
:10062D00C933C910D7059BE99A4007EC9BFCE99AA1
:10063D00F90FD8E0E4C9FAE4CCFB2275F010EF2FE6
:10064D00FFEE33FEED33FDCC33CCC833C810D707E6
:10065D009BEC9AE899400AED9BFDEC9AFCE899F821
:0E066D000FD5F0DAE4CDFBE4CCFAE4C8F922B4
:00000001FF
